{
  "_format": "hh-sol-artifact-1",
  "contractName": "ERC20TemplateEnterprise",
  "sourceName": "contracts/templates/ERC20TemplateEnterprise.sol",
  "abi": [
    {
      "anonymous": false,
      "inputs": [
        {
          "indexed": true,
          "internalType": "address",
          "name": "user",
          "type": "address"
        },
        {
          "indexed": true,
          "internalType": "address",
          "name": "signer",
          "type": "address"
        },
        {
          "indexed": false,
          "internalType": "uint256",
          "name": "timestamp",
          "type": "uint256"
        },
        {
          "indexed": false,
          "internalType": "uint256",
          "name": "blockNumber",
          "type": "uint256"
        }
      ],
      "name": "AddedMinter",
      "type": "event"
    },
    {
      "anonymous": false,
      "inputs": [
        {
          "indexed": true,
          "internalType": "address",
          "name": "user",
          "type": "address"
        },
        {
          "indexed": true,
          "internalType": "address",
          "name": "signer",
          "type": "address"
        },
        {
          "indexed": false,
          "internalType": "uint256",
          "name": "timestamp",
          "type": "uint256"
        },
        {
          "indexed": false,
          "internalType": "uint256",
          "name": "blockNumber",
          "type": "uint256"
        }
      ],
      "name": "AddedPaymentManager",
      "type": "event"
    },
    {
      "anonymous": false,
      "inputs": [
        {
          "indexed": true,
          "internalType": "address",
          "name": "owner",
          "type": "address"
        },
        {
          "indexed": true,
          "internalType": "address",
          "name": "spender",
          "type": "address"
        },
        {
          "indexed": false,
          "internalType": "uint256",
          "name": "value",
          "type": "uint256"
        }
      ],
      "name": "Approval",
      "type": "event"
    },
    {
      "anonymous": false,
      "inputs": [
        {
          "indexed": true,
          "internalType": "address",
          "name": "signer",
          "type": "address"
        },
        {
          "indexed": false,
          "internalType": "uint256",
          "name": "timestamp",
          "type": "uint256"
        },
        {
          "indexed": false,
          "internalType": "uint256",
          "name": "blockNumber",
          "type": "uint256"
        }
      ],
      "name": "CleanedPermissions",
      "type": "event"
    },
    {
      "anonymous": false,
      "inputs": [
        {
          "indexed": true,
          "internalType": "address",
          "name": "consumeMarketFeeAddress",
          "type": "address"
        },
        {
          "indexed": true,
          "internalType": "address",
          "name": "consumeMarketFeeToken",
          "type": "address"
        },
        {
          "indexed": false,
          "internalType": "uint256",
          "name": "consumeMarketFeeAmount",
          "type": "uint256"
        }
      ],
      "name": "ConsumeMarketFee",
      "type": "event"
    },
    {
      "anonymous": false,
      "inputs": [
        {
          "indexed": false,
          "internalType": "address",
          "name": "currentMinter",
          "type": "address"
        },
        {
          "indexed": false,
          "internalType": "address",
          "name": "newMinter",
          "type": "address"
        }
      ],
      "name": "MinterApproved",
      "type": "event"
    },
    {
      "anonymous": false,
      "inputs": [
        {
          "indexed": false,
          "internalType": "address",
          "name": "currentMinter",
          "type": "address"
        },
        {
          "indexed": false,
          "internalType": "address",
          "name": "newMinter",
          "type": "address"
        }
      ],
      "name": "MinterProposed",
      "type": "event"
    },
    {
      "anonymous": false,
      "inputs": [
        {
          "indexed": false,
          "internalType": "address",
          "name": "dispenserContract",
          "type": "address"
        }
      ],
      "name": "NewDispenser",
      "type": "event"
    },
    {
      "anonymous": false,
      "inputs": [
        {
          "indexed": false,
          "internalType": "bytes32",
          "name": "exchangeId",
          "type": "bytes32"
        },
        {
          "indexed": true,
          "internalType": "address",
          "name": "owner",
          "type": "address"
        },
        {
          "indexed": false,
          "internalType": "address",
          "name": "exchangeContract",
          "type": "address"
        },
        {
          "indexed": true,
          "internalType": "address",
          "name": "baseToken",
          "type": "address"
        }
      ],
      "name": "NewFixedRate",
      "type": "event"
    },
    {
      "anonymous": false,
      "inputs": [
        {
          "indexed": true,
          "internalType": "address",
          "name": "caller",
          "type": "address"
        },
        {
          "indexed": true,
          "internalType": "address",
          "name": "_newPaymentCollector",
          "type": "address"
        },
        {
          "indexed": false,
          "internalType": "uint256",
          "name": "timestamp",
          "type": "uint256"
        },
        {
          "indexed": false,
          "internalType": "uint256",
          "name": "blockNumber",
          "type": "uint256"
        }
      ],
      "name": "NewPaymentCollector",
      "type": "event"
    },
    {
      "anonymous": false,
      "inputs": [
        {
          "indexed": true,
          "internalType": "address",
          "name": "providerAddress",
          "type": "address"
        },
        {
          "indexed": true,
          "internalType": "address",
          "name": "consumerAddress",
          "type": "address"
        },
        {
          "indexed": false,
          "internalType": "bytes32",
          "name": "orderTxId",
          "type": "bytes32"
        },
        {
          "indexed": false,
          "internalType": "bytes",
          "name": "providerData",
          "type": "bytes"
        },
        {
          "indexed": false,
          "internalType": "bytes",
          "name": "providerSignature",
          "type": "bytes"
        },
        {
          "indexed": false,
          "internalType": "bytes",
          "name": "consumerData",
          "type": "bytes"
        },
        {
          "indexed": false,
          "internalType": "bytes",
          "name": "consumerSignature",
          "type": "bytes"
        },
        {
          "indexed": false,
          "internalType": "uint256",
          "name": "timestamp",
          "type": "uint256"
        },
        {
          "indexed": false,
          "internalType": "uint256",
          "name": "blockNumber",
          "type": "uint256"
        }
      ],
      "name": "OrderExecuted",
      "type": "event"
    },
    {
      "anonymous": false,
      "inputs": [
        {
          "indexed": false,
          "internalType": "bytes32",
          "name": "orderTxId",
          "type": "bytes32"
        },
        {
          "indexed": false,
          "internalType": "address",
          "name": "caller",
          "type": "address"
        },
        {
          "indexed": false,
          "internalType": "uint256",
          "name": "timestamp",
          "type": "uint256"
        },
        {
          "indexed": false,
          "internalType": "uint256",
          "name": "number",
          "type": "uint256"
        }
      ],
      "name": "OrderReused",
      "type": "event"
    },
    {
      "anonymous": false,
      "inputs": [
        {
          "indexed": true,
          "internalType": "address",
          "name": "consumer",
          "type": "address"
        },
        {
          "indexed": false,
          "internalType": "address",
          "name": "payer",
          "type": "address"
        },
        {
          "indexed": false,
          "internalType": "uint256",
          "name": "amount",
          "type": "uint256"
        },
        {
          "indexed": false,
          "internalType": "uint256",
          "name": "serviceIndex",
          "type": "uint256"
        },
        {
          "indexed": false,
          "internalType": "uint256",
          "name": "timestamp",
          "type": "uint256"
        },
        {
          "indexed": true,
          "internalType": "address",
          "name": "publishMarketAddress",
          "type": "address"
        },
        {
          "indexed": false,
          "internalType": "uint256",
          "name": "blockNumber",
          "type": "uint256"
        }
      ],
      "name": "OrderStarted",
      "type": "event"
    },
    {
      "anonymous": false,
      "inputs": [
        {
          "indexed": true,
          "internalType": "address",
          "name": "providerFeeAddress",
          "type": "address"
        },
        {
          "indexed": true,
          "internalType": "address",
          "name": "providerFeeToken",
          "type": "address"
        },
        {
          "indexed": false,
          "internalType": "uint256",
          "name": "providerFeeAmount",
          "type": "uint256"
        },
        {
          "indexed": false,
          "internalType": "bytes",
          "name": "providerData",
          "type": "bytes"
        },
        {
          "indexed": false,
          "internalType": "uint8",
          "name": "v",
          "type": "uint8"
        },
        {
          "indexed": false,
          "internalType": "bytes32",
          "name": "r",
          "type": "bytes32"
        },
        {
          "indexed": false,
          "internalType": "bytes32",
          "name": "s",
          "type": "bytes32"
        },
        {
          "indexed": false,
          "internalType": "uint256",
          "name": "validUntil",
          "type": "uint256"
        }
      ],
      "name": "ProviderFee",
      "type": "event"
    },
    {
      "anonymous": false,
      "inputs": [
        {
          "indexed": true,
          "internalType": "address",
          "name": "PublishMarketFeeAddress",
          "type": "address"
        },
        {
          "indexed": true,
          "internalType": "address",
          "name": "PublishMarketFeeToken",
          "type": "address"
        },
        {
          "indexed": false,
          "internalType": "uint256",
          "name": "PublishMarketFeeAmount",
          "type": "uint256"
        }
      ],
      "name": "PublishMarketFee",
      "type": "event"
    },
    {
      "anonymous": false,
      "inputs": [
        {
          "indexed": false,
          "internalType": "address",
          "name": "caller",
          "type": "address"
        },
        {
          "indexed": false,
          "internalType": "address",
          "name": "PublishMarketFeeAddress",
          "type": "address"
        },
        {
          "indexed": false,
          "internalType": "address",
          "name": "PublishMarketFeeToken",
          "type": "address"
        },
        {
          "indexed": false,
          "internalType": "uint256",
          "name": "PublishMarketFeeAmount",
          "type": "uint256"
        }
      ],
      "name": "PublishMarketFeeChanged",
      "type": "event"
    },
    {
      "anonymous": false,
      "inputs": [
        {
          "indexed": true,
          "internalType": "address",
          "name": "user",
          "type": "address"
        },
        {
          "indexed": true,
          "internalType": "address",
          "name": "signer",
          "type": "address"
        },
        {
          "indexed": false,
          "internalType": "uint256",
          "name": "timestamp",
          "type": "uint256"
        },
        {
          "indexed": false,
          "internalType": "uint256",
          "name": "blockNumber",
          "type": "uint256"
        }
      ],
      "name": "RemovedMinter",
      "type": "event"
    },
    {
      "anonymous": false,
      "inputs": [
        {
          "indexed": true,
          "internalType": "address",
          "name": "user",
          "type": "address"
        },
        {
          "indexed": true,
          "internalType": "address",
          "name": "signer",
          "type": "address"
        },
        {
          "indexed": false,
          "internalType": "uint256",
          "name": "timestamp",
          "type": "uint256"
        },
        {
          "indexed": false,
          "internalType": "uint256",
          "name": "blockNumber",
          "type": "uint256"
        }
      ],
      "name": "RemovedPaymentManager",
      "type": "event"
    },
    {
      "anonymous": false,
      "inputs": [
        {
          "indexed": true,
          "internalType": "address",
          "name": "from",
          "type": "address"
        },
        {
          "indexed": true,
          "internalType": "address",
          "name": "to",
          "type": "address"
        },
        {
          "indexed": false,
          "internalType": "uint256",
          "name": "value",
          "type": "uint256"
        }
      ],
      "name": "Transfer",
      "type": "event"
    },
    {
      "stateMutability": "payable",
      "type": "fallback"
    },
    {
      "inputs": [],
      "name": "BASE",
      "outputs": [
        {
          "internalType": "uint256",
          "name": "",
          "type": "uint256"
        }
      ],
      "stateMutability": "view",
      "type": "function"
    },
    {
      "inputs": [],
      "name": "DOMAIN_SEPARATOR",
      "outputs": [
        {
          "internalType": "bytes32",
          "name": "",
          "type": "bytes32"
        }
      ],
      "stateMutability": "view",
      "type": "function"
    },
    {
      "inputs": [],
      "name": "PERMIT_TYPEHASH",
      "outputs": [
        {
          "internalType": "bytes32",
          "name": "",
          "type": "bytes32"
        }
      ],
      "stateMutability": "view",
      "type": "function"
    },
    {
      "inputs": [
        {
          "internalType": "address",
          "name": "_minter",
          "type": "address"
        }
      ],
      "name": "addMinter",
      "outputs": [],
      "stateMutability": "nonpayable",
      "type": "function"
    },
    {
      "inputs": [
        {
          "internalType": "address",
          "name": "_paymentManager",
          "type": "address"
        }
      ],
      "name": "addPaymentManager",
      "outputs": [],
      "stateMutability": "nonpayable",
      "type": "function"
    },
    {
      "inputs": [
        {
          "internalType": "address",
          "name": "owner",
          "type": "address"
        },
        {
          "internalType": "address",
          "name": "spender",
          "type": "address"
        }
      ],
      "name": "allowance",
      "outputs": [
        {
          "internalType": "uint256",
          "name": "",
          "type": "uint256"
        }
      ],
      "stateMutability": "view",
      "type": "function"
    },
    {
      "inputs": [
        {
          "internalType": "address",
          "name": "spender",
          "type": "address"
        },
        {
          "internalType": "uint256",
          "name": "amount",
          "type": "uint256"
        }
      ],
      "name": "approve",
      "outputs": [
        {
          "internalType": "bool",
          "name": "",
          "type": "bool"
        }
      ],
      "stateMutability": "nonpayable",
      "type": "function"
    },
    {
      "inputs": [
        {
          "internalType": "uint256",
          "name": "",
          "type": "uint256"
        }
      ],
      "name": "authERC20",
      "outputs": [
        {
          "internalType": "address",
          "name": "",
          "type": "address"
        }
      ],
      "stateMutability": "view",
      "type": "function"
    },
    {
      "inputs": [
        {
          "internalType": "address",
          "name": "account",
          "type": "address"
        }
      ],
      "name": "balanceOf",
      "outputs": [
        {
          "internalType": "uint256",
          "name": "",
          "type": "uint256"
        }
      ],
      "stateMutability": "view",
      "type": "function"
    },
    {
      "inputs": [
        {
          "internalType": "uint256",
          "name": "amount",
          "type": "uint256"
        }
      ],
      "name": "burn",
      "outputs": [],
      "stateMutability": "nonpayable",
      "type": "function"
    },
    {
      "inputs": [
        {
          "internalType": "address",
          "name": "account",
          "type": "address"
        },
        {
          "internalType": "uint256",
          "name": "amount",
          "type": "uint256"
        }
      ],
      "name": "burnFrom",
      "outputs": [],
      "stateMutability": "nonpayable",
      "type": "function"
    },
    {
      "inputs": [
        {
          "components": [
            {
              "internalType": "address",
              "name": "consumer",
              "type": "address"
            },
            {
              "internalType": "uint256",
              "name": "serviceIndex",
              "type": "uint256"
            },
            {
              "components": [
                {
                  "internalType": "address",
                  "name": "providerFeeAddress",
                  "type": "address"
                },
                {
                  "internalType": "address",
                  "name": "providerFeeToken",
                  "type": "address"
                },
                {
                  "internalType": "uint256",
                  "name": "providerFeeAmount",
                  "type": "uint256"
                },
                {
                  "internalType": "uint8",
                  "name": "v",
                  "type": "uint8"
                },
                {
                  "internalType": "bytes32",
                  "name": "r",
                  "type": "bytes32"
                },
                {
                  "internalType": "bytes32",
                  "name": "s",
                  "type": "bytes32"
                },
                {
                  "internalType": "uint256",
                  "name": "validUntil",
                  "type": "uint256"
                },
                {
                  "internalType": "bytes",
                  "name": "providerData",
                  "type": "bytes"
                }
              ],
              "internalType": "struct ERC20TemplateEnterprise.providerFee",
              "name": "_providerFee",
              "type": "tuple"
            },
            {
              "components": [
                {
                  "internalType": "address",
                  "name": "consumeMarketFeeAddress",
                  "type": "address"
                },
                {
                  "internalType": "address",
                  "name": "consumeMarketFeeToken",
                  "type": "address"
                },
                {
                  "internalType": "uint256",
                  "name": "consumeMarketFeeAmount",
                  "type": "uint256"
                }
              ],
              "internalType": "struct ERC20TemplateEnterprise.consumeMarketFee",
              "name": "_consumeMarketFee",
              "type": "tuple"
            }
          ],
          "internalType": "struct ERC20TemplateEnterprise.OrderParams",
          "name": "_orderParams",
          "type": "tuple"
        },
        {
          "internalType": "address",
          "name": "dispenserContract",
          "type": "address"
        }
      ],
      "name": "buyFromDispenserAndOrder",
      "outputs": [],
      "stateMutability": "nonpayable",
      "type": "function"
    },
    {
      "inputs": [
        {
          "components": [
            {
              "internalType": "address",
              "name": "consumer",
              "type": "address"
            },
            {
              "internalType": "uint256",
              "name": "serviceIndex",
              "type": "uint256"
            },
            {
              "components": [
                {
                  "internalType": "address",
                  "name": "providerFeeAddress",
                  "type": "address"
                },
                {
                  "internalType": "address",
                  "name": "providerFeeToken",
                  "type": "address"
                },
                {
                  "internalType": "uint256",
                  "name": "providerFeeAmount",
                  "type": "uint256"
                },
                {
                  "internalType": "uint8",
                  "name": "v",
                  "type": "uint8"
                },
                {
                  "internalType": "bytes32",
                  "name": "r",
                  "type": "bytes32"
                },
                {
                  "internalType": "bytes32",
                  "name": "s",
                  "type": "bytes32"
                },
                {
                  "internalType": "uint256",
                  "name": "validUntil",
                  "type": "uint256"
                },
                {
                  "internalType": "bytes",
                  "name": "providerData",
                  "type": "bytes"
                }
              ],
              "internalType": "struct ERC20TemplateEnterprise.providerFee",
              "name": "_providerFee",
              "type": "tuple"
            },
            {
              "components": [
                {
                  "internalType": "address",
                  "name": "consumeMarketFeeAddress",
                  "type": "address"
                },
                {
                  "internalType": "address",
                  "name": "consumeMarketFeeToken",
                  "type": "address"
                },
                {
                  "internalType": "uint256",
                  "name": "consumeMarketFeeAmount",
                  "type": "uint256"
                }
              ],
              "internalType": "struct ERC20TemplateEnterprise.consumeMarketFee",
              "name": "_consumeMarketFee",
              "type": "tuple"
            }
          ],
          "internalType": "struct ERC20TemplateEnterprise.OrderParams",
          "name": "_orderParams",
          "type": "tuple"
        },
        {
          "components": [
            {
              "internalType": "address",
              "name": "exchangeContract",
              "type": "address"
            },
            {
              "internalType": "bytes32",
              "name": "exchangeId",
              "type": "bytes32"
            },
            {
              "internalType": "uint256",
              "name": "maxBaseTokenAmount",
              "type": "uint256"
            },
            {
              "internalType": "uint256",
              "name": "swapMarketFee",
              "type": "uint256"
            },
            {
              "internalType": "address",
              "name": "marketFeeAddress",
              "type": "address"
            }
          ],
          "internalType": "struct ERC20TemplateEnterprise.FreParams",
          "name": "_freParams",
          "type": "tuple"
        }
      ],
      "name": "buyFromFreAndOrder",
      "outputs": [],
      "stateMutability": "nonpayable",
      "type": "function"
    },
    {
      "inputs": [],
      "name": "cap",
      "outputs": [
        {
          "internalType": "uint256",
          "name": "",
          "type": "uint256"
        }
      ],
      "stateMutability": "view",
      "type": "function"
    },
    {
      "inputs": [],
      "name": "cleanFrom721",
      "outputs": [],
      "stateMutability": "nonpayable",
      "type": "function"
    },
    {
      "inputs": [],
      "name": "cleanPermissions",
      "outputs": [],
      "stateMutability": "nonpayable",
      "type": "function"
    },
    {
      "inputs": [
        {
          "internalType": "address",
          "name": "_dispenser",
          "type": "address"
        },
        {
          "internalType": "uint256",
          "name": "maxTokens",
          "type": "uint256"
        },
        {
          "internalType": "uint256",
          "name": "maxBalance",
          "type": "uint256"
        },
        {
          "internalType": "bool",
          "name": "withMint",
          "type": "bool"
        },
        {
          "internalType": "address",
          "name": "",
          "type": "address"
        }
      ],
      "name": "createDispenser",
      "outputs": [],
      "stateMutability": "nonpayable",
      "type": "function"
    },
    {
      "inputs": [
        {
          "internalType": "address",
          "name": "fixedPriceAddress",
          "type": "address"
        },
        {
          "internalType": "address[]",
          "name": "addresses",
          "type": "address[]"
        },
        {
          "internalType": "uint256[]",
          "name": "uints",
          "type": "uint256[]"
        }
      ],
      "name": "createFixedRate",
      "outputs": [
        {
          "internalType": "bytes32",
          "name": "exchangeId",
          "type": "bytes32"
        }
      ],
      "stateMutability": "nonpayable",
      "type": "function"
    },
    {
      "inputs": [],
      "name": "decimals",
      "outputs": [
        {
          "internalType": "uint8",
          "name": "",
          "type": "uint8"
        }
      ],
      "stateMutability": "pure",
      "type": "function"
    },
    {
      "inputs": [
        {
          "internalType": "address",
          "name": "spender",
          "type": "address"
        },
        {
          "internalType": "uint256",
          "name": "subtractedValue",
          "type": "uint256"
        }
      ],
      "name": "decreaseAllowance",
      "outputs": [
        {
          "internalType": "bool",
          "name": "",
          "type": "bool"
        }
      ],
      "stateMutability": "nonpayable",
      "type": "function"
    },
    {
      "inputs": [],
      "name": "getDispensers",
      "outputs": [
        {
          "internalType": "address[]",
          "name": "",
          "type": "address[]"
        }
      ],
      "stateMutability": "view",
      "type": "function"
    },
    {
      "inputs": [],
      "name": "getERC721Address",
      "outputs": [
        {
          "internalType": "address",
          "name": "",
          "type": "address"
        }
      ],
      "stateMutability": "view",
      "type": "function"
    },
    {
      "inputs": [],
      "name": "getFixedRates",
      "outputs": [
        {
          "components": [
            {
              "internalType": "address",
              "name": "contractAddress",
              "type": "address"
            },
            {
              "internalType": "bytes32",
              "name": "id",
              "type": "bytes32"
            }
          ],
          "internalType": "struct ERC20TemplateEnterprise.fixedRate[]",
          "name": "",
          "type": "tuple[]"
        }
      ],
      "stateMutability": "view",
      "type": "function"
    },
    {
      "inputs": [],
      "name": "getId",
      "outputs": [
        {
          "internalType": "uint8",
          "name": "",
          "type": "uint8"
        }
      ],
      "stateMutability": "pure",
      "type": "function"
    },
    {
      "inputs": [],
      "name": "getPaymentCollector",
      "outputs": [
        {
          "internalType": "address",
          "name": "",
          "type": "address"
        }
      ],
      "stateMutability": "view",
      "type": "function"
    },
    {
      "inputs": [
        {
          "internalType": "address",
          "name": "user",
          "type": "address"
        }
      ],
      "name": "getPermissions",
      "outputs": [
        {
          "components": [
            {
              "internalType": "bool",
              "name": "minter",
              "type": "bool"
            },
            {
              "internalType": "bool",
              "name": "paymentManager",
              "type": "bool"
            }
          ],
          "internalType": "struct ERC20Roles.RolesERC20",
          "name": "",
          "type": "tuple"
        }
      ],
      "stateMutability": "view",
      "type": "function"
    },
    {
      "inputs": [],
      "name": "getPublishingMarketFee",
      "outputs": [
        {
          "internalType": "address",
          "name": "",
          "type": "address"
        },
        {
          "internalType": "address",
          "name": "",
          "type": "address"
        },
        {
          "internalType": "uint256",
          "name": "",
          "type": "uint256"
        }
      ],
      "stateMutability": "view",
      "type": "function"
    },
    {
      "inputs": [
        {
          "internalType": "address",
          "name": "spender",
          "type": "address"
        },
        {
          "internalType": "uint256",
          "name": "addedValue",
          "type": "uint256"
        }
      ],
      "name": "increaseAllowance",
      "outputs": [
        {
          "internalType": "bool",
          "name": "",
          "type": "bool"
        }
      ],
      "stateMutability": "nonpayable",
      "type": "function"
    },
    {
      "inputs": [
        {
          "internalType": "string[]",
          "name": "strings_",
          "type": "string[]"
        },
        {
          "internalType": "address[]",
          "name": "addresses_",
          "type": "address[]"
        },
        {
          "internalType": "address[]",
          "name": "factoryAddresses_",
          "type": "address[]"
        },
        {
          "internalType": "uint256[]",
          "name": "uints_",
          "type": "uint256[]"
        },
        {
          "internalType": "bytes[]",
          "name": "bytes_",
          "type": "bytes[]"
        }
      ],
      "name": "initialize",
      "outputs": [
        {
          "internalType": "bool",
          "name": "",
          "type": "bool"
        }
      ],
      "stateMutability": "nonpayable",
      "type": "function"
    },
    {
      "inputs": [
        {
          "internalType": "address",
          "name": "user",
          "type": "address"
        }
      ],
      "name": "isERC20Deployer",
      "outputs": [
        {
          "internalType": "bool",
          "name": "",
          "type": "bool"
        }
      ],
      "stateMutability": "view",
      "type": "function"
    },
    {
      "inputs": [],
      "name": "isInitialized",
      "outputs": [
        {
          "internalType": "bool",
          "name": "",
          "type": "bool"
        }
      ],
      "stateMutability": "view",
      "type": "function"
    },
    {
      "inputs": [
        {
          "internalType": "address",
          "name": "account",
          "type": "address"
        }
      ],
      "name": "isMinter",
      "outputs": [
        {
          "internalType": "bool",
          "name": "",
          "type": "bool"
        }
      ],
      "stateMutability": "view",
      "type": "function"
    },
    {
      "inputs": [
        {
          "internalType": "address",
          "name": "account",
          "type": "address"
        },
        {
          "internalType": "uint256",
          "name": "value",
          "type": "uint256"
        }
      ],
      "name": "mint",
      "outputs": [],
      "stateMutability": "nonpayable",
      "type": "function"
    },
    {
      "inputs": [],
      "name": "name",
      "outputs": [
        {
          "internalType": "string",
          "name": "",
          "type": "string"
        }
      ],
      "stateMutability": "view",
      "type": "function"
    },
    {
      "inputs": [
        {
          "internalType": "address",
          "name": "",
          "type": "address"
        }
      ],
      "name": "nonces",
      "outputs": [
        {
          "internalType": "uint256",
          "name": "",
          "type": "uint256"
        }
      ],
      "stateMutability": "view",
      "type": "function"
    },
    {
      "inputs": [
        {
          "internalType": "bytes32",
          "name": "orderTxId",
          "type": "bytes32"
        },
        {
          "internalType": "bytes",
          "name": "providerData",
          "type": "bytes"
        },
        {
          "internalType": "bytes",
          "name": "providerSignature",
          "type": "bytes"
        },
        {
          "internalType": "bytes",
          "name": "consumerData",
          "type": "bytes"
        },
        {
          "internalType": "bytes",
          "name": "consumerSignature",
          "type": "bytes"
        },
        {
          "internalType": "address",
          "name": "consumerAddress",
          "type": "address"
        }
      ],
      "name": "orderExecuted",
      "outputs": [],
      "stateMutability": "nonpayable",
      "type": "function"
    },
    {
      "inputs": [
        {
          "internalType": "address",
          "name": "",
          "type": "address"
        }
      ],
      "name": "permissions",
      "outputs": [
        {
          "internalType": "bool",
          "name": "minter",
          "type": "bool"
        },
        {
          "internalType": "bool",
          "name": "paymentManager",
          "type": "bool"
        }
      ],
      "stateMutability": "view",
      "type": "function"
    },
    {
      "inputs": [
        {
          "internalType": "address",
          "name": "owner",
          "type": "address"
        },
        {
          "internalType": "address",
          "name": "spender",
          "type": "address"
        },
        {
          "internalType": "uint256",
          "name": "value",
          "type": "uint256"
        },
        {
          "internalType": "uint256",
          "name": "deadline",
          "type": "uint256"
        },
        {
          "internalType": "uint8",
          "name": "v",
          "type": "uint8"
        },
        {
          "internalType": "bytes32",
          "name": "r",
          "type": "bytes32"
        },
        {
          "internalType": "bytes32",
          "name": "s",
          "type": "bytes32"
        }
      ],
      "name": "permit",
      "outputs": [],
      "stateMutability": "nonpayable",
      "type": "function"
    },
    {
      "inputs": [
        {
          "internalType": "address",
          "name": "_minter",
          "type": "address"
        }
      ],
      "name": "removeMinter",
      "outputs": [],
      "stateMutability": "nonpayable",
      "type": "function"
    },
    {
      "inputs": [
        {
          "internalType": "address",
          "name": "_paymentManager",
          "type": "address"
        }
      ],
      "name": "removePaymentManager",
      "outputs": [],
      "stateMutability": "nonpayable",
      "type": "function"
    },
    {
      "inputs": [
        {
          "internalType": "bytes32",
          "name": "orderTxId",
          "type": "bytes32"
        },
        {
          "components": [
            {
              "internalType": "address",
              "name": "providerFeeAddress",
              "type": "address"
            },
            {
              "internalType": "address",
              "name": "providerFeeToken",
              "type": "address"
            },
            {
              "internalType": "uint256",
              "name": "providerFeeAmount",
              "type": "uint256"
            },
            {
              "internalType": "uint8",
              "name": "v",
              "type": "uint8"
            },
            {
              "internalType": "bytes32",
              "name": "r",
              "type": "bytes32"
            },
            {
              "internalType": "bytes32",
              "name": "s",
              "type": "bytes32"
            },
            {
              "internalType": "uint256",
              "name": "validUntil",
              "type": "uint256"
            },
            {
              "internalType": "bytes",
              "name": "providerData",
              "type": "bytes"
            }
          ],
          "internalType": "struct ERC20TemplateEnterprise.providerFee",
          "name": "_providerFee",
          "type": "tuple"
        }
      ],
      "name": "reuseOrder",
      "outputs": [],
      "stateMutability": "nonpayable",
      "type": "function"
    },
    {
      "inputs": [],
      "name": "router",
      "outputs": [
        {
          "internalType": "address",
          "name": "",
          "type": "address"
        }
      ],
      "stateMutability": "view",
      "type": "function"
    },
    {
      "inputs": [
        {
          "internalType": "bytes",
          "name": "_value",
          "type": "bytes"
        }
      ],
      "name": "setData",
      "outputs": [],
      "stateMutability": "nonpayable",
      "type": "function"
    },
    {
      "inputs": [
        {
          "internalType": "address",
          "name": "_newPaymentCollector",
          "type": "address"
        }
      ],
      "name": "setPaymentCollector",
      "outputs": [],
      "stateMutability": "nonpayable",
      "type": "function"
    },
    {
      "inputs": [
        {
          "internalType": "address",
          "name": "_publishMarketFeeAddress",
          "type": "address"
        },
        {
          "internalType": "address",
          "name": "_publishMarketFeeToken",
          "type": "address"
        },
        {
          "internalType": "uint256",
          "name": "_publishMarketFeeAmount",
          "type": "uint256"
        }
      ],
      "name": "setPublishingMarketFee",
      "outputs": [],
      "stateMutability": "nonpayable",
      "type": "function"
    },
    {
      "inputs": [
        {
          "internalType": "address",
          "name": "consumer",
          "type": "address"
        },
        {
          "internalType": "uint256",
          "name": "serviceIndex",
          "type": "uint256"
        },
        {
          "components": [
            {
              "internalType": "address",
              "name": "providerFeeAddress",
              "type": "address"
            },
            {
              "internalType": "address",
              "name": "providerFeeToken",
              "type": "address"
            },
            {
              "internalType": "uint256",
              "name": "providerFeeAmount",
              "type": "uint256"
            },
            {
              "internalType": "uint8",
              "name": "v",
              "type": "uint8"
            },
            {
              "internalType": "bytes32",
              "name": "r",
              "type": "bytes32"
            },
            {
              "internalType": "bytes32",
              "name": "s",
              "type": "bytes32"
            },
            {
              "internalType": "uint256",
              "name": "validUntil",
              "type": "uint256"
            },
            {
              "internalType": "bytes",
              "name": "providerData",
              "type": "bytes"
            }
          ],
          "internalType": "struct ERC20TemplateEnterprise.providerFee",
          "name": "_providerFee",
          "type": "tuple"
        },
        {
          "components": [
            {
              "internalType": "address",
              "name": "consumeMarketFeeAddress",
              "type": "address"
            },
            {
              "internalType": "address",
              "name": "consumeMarketFeeToken",
              "type": "address"
            },
            {
              "internalType": "uint256",
              "name": "consumeMarketFeeAmount",
              "type": "uint256"
            }
          ],
          "internalType": "struct ERC20TemplateEnterprise.consumeMarketFee",
          "name": "_consumeMarketFee",
          "type": "tuple"
        }
      ],
      "name": "startOrder",
      "outputs": [],
      "stateMutability": "nonpayable",
      "type": "function"
    },
    {
      "inputs": [],
      "name": "symbol",
      "outputs": [
        {
          "internalType": "string",
          "name": "",
          "type": "string"
        }
      ],
      "stateMutability": "view",
      "type": "function"
    },
    {
      "inputs": [],
      "name": "totalSupply",
      "outputs": [
        {
          "internalType": "uint256",
          "name": "",
          "type": "uint256"
        }
      ],
      "stateMutability": "view",
      "type": "function"
    },
    {
      "inputs": [
        {
          "internalType": "address",
          "name": "to",
          "type": "address"
        },
        {
          "internalType": "uint256",
          "name": "amount",
          "type": "uint256"
        }
      ],
      "name": "transfer",
      "outputs": [
        {
          "internalType": "bool",
          "name": "",
          "type": "bool"
        }
      ],
      "stateMutability": "nonpayable",
      "type": "function"
    },
    {
      "inputs": [
        {
          "internalType": "address",
          "name": "from",
          "type": "address"
        },
        {
          "internalType": "address",
          "name": "to",
          "type": "address"
        },
        {
          "internalType": "uint256",
          "name": "amount",
          "type": "uint256"
        }
      ],
      "name": "transferFrom",
      "outputs": [
        {
          "internalType": "bool",
          "name": "",
          "type": "bool"
        }
      ],
      "stateMutability": "nonpayable",
      "type": "function"
    },
    {
      "inputs": [],
      "name": "withdrawETH",
      "outputs": [],
      "stateMutability": "payable",
      "type": "function"
    },
    {
      "stateMutability": "payable",
      "type": "receive"
    }
  ],
  "bytecode": "0x6080604052600b805460ff191690553480156200001b57600080fd5b5060408051808201825260048152631d195cdd60e21b60208083019182528351808501909452600a8452691d195cdd14de5b589bdb60b21b9084015281519192916200006a916003916200008e565b508051620000809060049060208401906200008e565b505060016007555062000171565b8280546200009c9062000134565b90600052602060002090601f016020900481019282620000c057600085556200010b565b82601f10620000db57805160ff19168380011785556200010b565b828001600101855582156200010b579182015b828111156200010b578251825591602001919060010190620000ee565b50620001199291506200011d565b5090565b5b808211156200011957600081556001016200011e565b600181811c908216806200014957607f821691505b602082108114156200016b57634e487b7160e01b600052602260045260246000fd5b50919050565b615e8d80620001816000396000f3fe6080604052600436106102c65760003560e01c80635d1ca6311161017e578063a8c09b0b116100d3578063d505accf1161008f578063e487c2e81161006c578063e487c2e814610988578063ec342ad01461099d578063ef867ff4146109b9578063f887ea40146109d957005b8063d505accf14610940578063dd62ed3e14610960578063e086e5ec1461098057005b8063a8c09b0b14610867578063a9059cbb14610887578063aa271e1a146108a7578063aa492ef9146108e0578063ab62f0e114610900578063b3998be01461092057005b806382c03da51161013a57806395d89b411161011757806395d89b41146107f257806396fb3eaf14610807578063983b2d5614610827578063a457c2d71461084757005b806382c03da51461079d57806389208f0f146107b25780638b96412b146107d257005b80635d1ca631146106c457806370a08231146106d857806379cc67901461070e57806379d9d7f31461072e5780637dda231e1461074e5780637ecebe001461077057005b8063313ce56711610234578063397b3743116101f057806347ac7d55116101cd57806347ac7d551461064d5780634f189cb21461066f57806357a3a31b1461068457806357ad5ff6146106a457005b8063397b3743146105d157806340c10f191461060d57806342966c681461062d57005b8063313ce5671461052c578063355274ea1461054e578063361fef49146105635780633644e51514610583578063392e53cd1461059957806339509351146105b157005b8063191c918a11610283578063191c918a146104585780631b53b05f1461047857806323b872dd1461049857806325b00243146104b85780633092afd5146104d857806330adf81f146104f857005b80627ffb78146102cf57806301e882081461030b57806306fdde031461035b578063095ea7b31461037d578063160a7925146103ad57806318160ddd1461043957005b366102cd57005b005b3480156102db57600080fd5b50600b5461010090046001600160a01b03165b6040516001600160a01b0390911681526020015b60405180910390f35b34801561031757600080fd5b50610344610326366004614de5565b60056020526000908152604090205460ff8082169161010090041682565b604080519215158352901515602083015201610302565b34801561036757600080fd5b506103706109f9565b6040516103029190614e2e565b34801561038957600080fd5b5061039d610398366004614e61565b610a8b565b6040519015158152602001610302565b3480156103b957600080fd5b5061041a6103c8366004614de5565b6040805180820190915260008082526020820152506001600160a01b031660009081526005602090815260409182902082518084019093525460ff808216151584526101009091041615159082015290565b6040805182511515815260209283015115159281019290925201610302565b34801561044557600080fd5b506002545b604051908152602001610302565b34801561046457600080fd5b506102cd610473366004614e9b565b610aa5565b34801561048457600080fd5b506102cd610493366004614f12565b610d05565b3480156104a457600080fd5b5061039d6104b3366004614f63565b610e33565b3480156104c457600080fd5b506102cd6104d3366004614de5565b610e59565b3480156104e457600080fd5b506102cd6104f3366004614de5565b610f78565b34801561050457600080fd5b5061044a7f6e71edae12b1b97f4d1f60370fef10105fa2faae0126114a169c64845d6126c981565b34801561053857600080fd5b5060125b60405160ff9091168152602001610302565b34801561055a57600080fd5b50600a5461044a565b34801561056f57600080fd5b506102cd61057e366004614fb7565b611094565b34801561058f57600080fd5b5061044a60105481565b3480156105a557600080fd5b50600b5460ff1661039d565b3480156105bd57600080fd5b5061039d6105cc366004614e61565b6110e5565b3480156105dd57600080fd5b50600d54600e54600f54604080516001600160a01b03948516815293909216602084015290820152606001610302565b34801561061957600080fd5b506102cd610628366004614e61565b611107565b34801561063957600080fd5b506102cd610648366004614ffd565b6111d4565b34801561065957600080fd5b506106626111de565b604051610302919061505a565b34801561067b57600080fd5b506102cd61123f565b34801561069057600080fd5b506102cd61069f366004614de5565b61131a565b3480156106b057600080fd5b506102cd6106bf366004614f63565b6114e1565b3480156106d057600080fd5b50600261053c565b3480156106e457600080fd5b5061044a6106f3366004614de5565b6001600160a01b031660009081526020819052604090205490565b34801561071a57600080fd5b506102cd610729366004614e61565b61169a565b34801561073a57600080fd5b506102cd61074936600461506d565b6116af565b34801561075a57600080fd5b5061076361192f565b60405161030291906150e0565b34801561077c57600080fd5b5061044a61078b366004614de5565b60116020526000908152604090205481565b3480156107a957600080fd5b506102cd6119a4565b3480156107be57600080fd5b506102cd6107cd366004615180565b611a03565b3480156107de57600080fd5b5061044a6107ed366004615331565b611cf0565b3480156107fe57600080fd5b5061037061203d565b34801561081357600080fd5b5061039d610822366004614de5565b61204c565b34801561083357600080fd5b506102cd610842366004614de5565b6120ca565b34801561085357600080fd5b5061039d610862366004614e61565b6121e6565b34801561087357600080fd5b506102cd610882366004615406565b61226c565b34801561089357600080fd5b5061039d6108a2366004614e61565b6126f8565b3480156108b357600080fd5b5061039d6108c2366004614de5565b6001600160a01b031660009081526005602052604090205460ff1690565b3480156108ec57600080fd5b506102cd6108fb366004614de5565b612706565b34801561090c57600080fd5b506102cd61091b36600461545f565b612822565b34801561092c57600080fd5b5061039d61093b3660046154e4565b6129dd565b34801561094c57600080fd5b506102cd61095b3660046155e5565b612b10565b34801561096c57600080fd5b5061044a61097b366004615653565b612d22565b6102cd612d4d565b34801561099457600080fd5b506102ee612d8d565b3480156109a957600080fd5b5061044a670de0b6b3a764000081565b3480156109c557600080fd5b506102ee6109d4366004614ffd565b612e26565b3480156109e557600080fd5b506012546102ee906001600160a01b031681565b606060088054610a0890615681565b80601f0160208091040260200160405190810160405280929190818152602001828054610a3490615681565b8015610a815780601f10610a5657610100808354040283529160200191610a81565b820191906000526020600020905b815481529060010190602001808311610a6457829003601f168201915b5050505050905090565b600033610a99818585612e50565b60019150505b92915050565b600b5460405163160a792560e01b81523360048201526101009091046001600160a01b03169063160a792590602401608060405180830381865afa158015610af1573d6000803e3d6000fd5b505050506040513d601f19601f82011682018060405250810190610b1591906156b6565b6020015180610b9c5750600b546040516331a9108f60e11b815260016004820152339161010090046001600160a01b031690636352211e90602401602060405180830381865afa158015610b6d573d6000803e3d6000fd5b505050506040513d601f19601f82011682018060405250810190610b91919061573a565b6001600160a01b0316145b610bc15760405162461bcd60e51b8152600401610bb890615757565b60405180910390fd5b60026007541415610be45760405162461bcd60e51b8152600401610bb89061578c565b60026007558115610bf857610bf885612f75565b601480546001810182556000919091527fce6d7b5282bd9a3661ae061feed1dbda4e52ab073b1f9285be6e155d9c38d4ec0180546001600160a01b0319166001600160a01b0387169081179091556040519081527fa31ffd41531537eb31bfd827a3f5372b5f62bf4dd8579e5354b280dc58490e709060200160405180910390a1601254604051636b14d00560e11b81526001600160a01b0387811660048301523060248301819052604483018890526064830187905233608484015260a48301529091169063d629a00a9060c401600060405180830381600087803b158015610ce157600080fd5b505af1158015610cf5573d6000803e3d6000fd5b5050600160075550505050505050565b60026007541415610d285760405162461bcd60e51b8152600401610bb89061578c565b6002600755604051631d746d8360e01b8152306004820152670de0b6b3a764000060248201819052336044830152906001600160a01b03831690631d746d8390606401600060405180830381600087803b158015610d8557600080fd5b505af1158015610d99573d6000803e3d6000fd5b50503360009081526020819052604090205483925090501015610dfe5760405162461bcd60e51b815260206004820152601f60248201527f556e61626c6520746f206765742044542066726f6d2044697370656e736572006044820152606401610bb8565b610e29610e0e6020850185614de5565b6020850135610e2060408701876157c3565b866060016116af565b5050600160075550565b600033610e4185828561304c565b610e4c8585856130c6565b60019150505b9392505050565b600b5460405163160a792560e01b81523360048201526101009091046001600160a01b03169063160a792590602401608060405180830381865afa158015610ea5573d6000803e3d6000fd5b505050506040513d601f19601f82011682018060405250810190610ec991906156b6565b6020015180610f505750600b546040516331a9108f60e11b815260016004820152339161010090046001600160a01b031690636352211e90602401602060405180830381865afa158015610f21573d6000803e3d6000fd5b505050506040513d601f19601f82011682018060405250810190610f45919061573a565b6001600160a01b0316145b610f6c5760405162461bcd60e51b8152600401610bb890615757565b610f7581613294565b50565b600b5460405163160a792560e01b81523360048201526101009091046001600160a01b03169063160a792590602401608060405180830381865afa158015610fc4573d6000803e3d6000fd5b505050506040513d601f19601f82011682018060405250810190610fe891906156b6565b602001518061106f5750600b546040516331a9108f60e11b815260016004820152339161010090046001600160a01b031690636352211e90602401602060405180830381865afa158015611040573d6000803e3d6000fd5b505050506040513d601f19601f82011682018060405250810190611064919061573a565b6001600160a01b0316145b61108b5760405162461bcd60e51b8152600401610bb890615757565b610f7581613306565b60408051838152336020820152428183015243606082015290517f526e31449ea46e2aecf9b480c8d7dfa191348ef74ffdf75b445a6ab726daa6ff9181900360800190a16110e181613366565b5050565b600033610a998185856110f88383612d22565b61110291906157f9565b612e50565b3360009081526005602052604090205460ff166111665760405162461bcd60e51b815260206004820152601960248201527f455243323054656d706c6174653a204e4f54204d494e544552000000000000006044820152606401610bb8565b600a5461117c8261117660025490565b90613778565b11156111ca5760405162461bcd60e51b815260206004820152601f60248201527f44617461746f6b656e54656d706c6174653a20636170206578636565646564006044820152606401610bb8565b6110e18282613784565b610f753382613863565b60606014805480602002602001604051908101604052809291908181526020018280548015610a8157602002820191906000526020600020905b81546001600160a01b03168152600190910190602001808311611218575050505050905090565b600b546040516331a9108f60e11b8152600160048201526101009091046001600160a01b031690636352211e90602401602060405180830381865afa15801561128c573d6000803e3d6000fd5b505050506040513d601f19601f820116820180604052508101906112b0919061573a565b6001600160a01b0316336001600160a01b0316146113105760405162461bcd60e51b815260206004820152601b60248201527f455243323054656d706c6174653a206e6f74204e46544f776e657200000000006044820152606401610bb8565b6113186139ae565b565b33600090815260056020526040902054610100900460ff16806113ad5750600b5460405163160a792560e01b81523360048201526101009091046001600160a01b03169063160a792590602401608060405180830381865afa158015611384573d6000803e3d6000fd5b505050506040513d601f19601f820116820180604052508101906113a891906156b6565b602001515b806114305750600b546040516331a9108f60e11b815260016004820152339161010090046001600160a01b031690636352211e90602401602060405180830381865afa158015611401573d6000803e3d6000fd5b505050506040513d601f19601f82011682018060405250810190611425919061573a565b6001600160a01b0316145b6114905760405162461bcd60e51b815260206004820152602b60248201527f455243323054656d706c6174653a204e4f54205041594d454e54204d414e414760448201526a22a91037b91027aba722a960a91b6064820152608401610bb8565b61149981613e89565b604080514281524360208201526001600160a01b0383169133917f4d7694d695c57cc54947177c8e8a0e61aae664e9223492a798c32fadfc6419cc910160405180910390a350565b600d546001600160a01b0316331461154e5760405162461bcd60e51b815260206004820152602a60248201527f455243323054656d706c6174653a206e6f74207075626c6973684d61726b65746044820152694665654164647265737360b01b6064820152608401610bb8565b6001600160a01b0383166115b55760405162461bcd60e51b815260206004820152602860248201527f496e76616c6964205f7075626c6973684d61726b657446656541646472657373604482015267206164647265737360c01b6064820152608401610bb8565b6001600160a01b03821661161a5760405162461bcd60e51b815260206004820152602660248201527f496e76616c6964205f7075626c6973684d61726b6574466565546f6b656e206160448201526564647265737360d01b6064820152608401610bb8565b600d80546001600160a01b038581166001600160a01b03199283168117909355600e8054918616919092168117909155600f839055604080513381526020810193909352820152606081018290527f02ab4b3fc023109c2d0da394bda239166c833f63c42b71b67ed4b836dca0ddfe9060800160405180910390a1505050565b6116a582338361304c565b6110e18282613863565b33600090815260208190526040902054670de0b6b3a7640000908111156117245760405162461bcd60e51b8152602060048201526024808201527f4e6f7420656e6f7567682064617461746f6b656e7320746f207374617274204f604482015263393232b960e11b6064820152608401610bb8565b600d5460408051338152602081018490529081018690524260608201524360808201526001600160a01b03918216918716907fe1c4fa794edfa8f619b8257a077398950357b9c6398528f94480307352f9afcc9060a00160405180910390a36000600f5411801561179f5750600e546001600160a01b031615155b80156117b55750600d546001600160a01b031615155b1561182a57600e54600d54600f546117dd926001600160a01b03908116923392911690613eab565b600e54600d54600f546040519081526001600160a01b0392831692909116907f4049a448ac6f0284a98d2cb9199e73605944ea5bec901a037f88c84703de82b29060200160405180910390a35b600082604001351180156118575750600061184b6040840160208501614de5565b6001600160a01b031614155b80156118795750600061186d6020840184614de5565b6001600160a01b031614155b15611916576118a96118916040840160208501614de5565b3361189f6020860186614de5565b8560400135613eab565b6118b96040830160208401614de5565b6001600160a01b03166118cf6020840184614de5565b6001600160a01b03167f6d11837f46cc09b011cf4aae09fcade046c020aac088090ae4f77ff67b707972846040013560405161190d91815260200190565b60405180910390a35b61191f83613366565b611928816111d4565b5050505050565b60606013805480602002602001604051908101604052809291908181526020016000905b8282101561199b576000848152602090819020604080518082019091526002850290910180546001600160a01b03168252600190810154828401529083529092019101611953565b50505050905090565b600b5461010090046001600160a01b031633146113105760405162461bcd60e51b815260206004820152601f60248201527f455243323054656d706c6174653a204e4f542037323120436f6e7472616374006044820152606401610bb8565b336001600160a01b0382161415611a5c5760405162461bcd60e51b815260206004820152601f60248201527f50726f76696465722063616e6e6f742062652074686520636f6e73756d6572006044820152606401610bb8565b60006040518060400160405280601c81526020017f19457468657265756d205369676e6564204d6573736167653a0a33320000000081525090506000818c8c8c604051602001611aae93929190615811565b60405160208183030381529060405280519060200120604051602001611ad592919061582b565b604051602081830303815290604052805190602001209050336001600160a01b0316611b37828b8b8080601f016020809104026020016040519081016040528093929190818152602001838380828437600092019190915250613ff292505050565b6001600160a01b031614611b8d5760405162461bcd60e51b815260206004820152601f60248201527f50726f7669646572207369676e617475726520636865636b206661696c6564006044820152606401610bb8565b6000828888604051602001611ba392919061584d565b60405160208183030381529060405280519060200120604051602001611bca92919061582b565b604051602081830303815290604052805190602001209050836001600160a01b0316611c2c8288888080601f016020809104026020016040519081016040528093929190818152602001838380828437600092019190915250613ff292505050565b6001600160a01b031614611c825760405162461bcd60e51b815260206004820152601f60248201527f436f6e73756d6572207369676e617475726520636865636b206661696c6564006044820152606401610bb8565b836001600160a01b0316336001600160a01b03167fc9a10280e9c735c63092fa5431e6acb3ed342e08b69a083e5e676994eb7070f98f8f8f8f8f8f8f8f8f4243604051611cd99b9a99989796959493929190615886565b60405180910390a350505050505050505050505050565b600b5460405163160a792560e01b815233600482015260009161010090046001600160a01b03169063160a792590602401608060405180830381865afa158015611d3e573d6000803e3d6000fd5b505050506040513d601f19601f82011682018060405250810190611d6291906156b6565b6020015180611de95750600b546040516331a9108f60e11b815260016004820152339161010090046001600160a01b031690636352211e90602401602060405180830381865afa158015611dba573d6000803e3d6000fd5b505050506040513d601f19601f82011682018060405250810190611dde919061573a565b6001600160a01b0316145b611e055760405162461bcd60e51b8152600401610bb890615757565b60026007541415611e285760405162461bcd60e51b8152600401610bb89061578c565b60026007819055503083600381518110611e4457611e446158f8565b60200260200101906001600160a01b031690816001600160a01b031681525050600082600481518110611e7957611e796158f8565b60200260200101511115611e9057611e9084612f75565b601254604051638244937560e01b81526001600160a01b0390911690638244937590611ec49087908790879060040161590e565b6020604051808303816000875af1158015611ee3573d6000803e3d6000fd5b505050506040513d601f19601f82011682018060405250810190611f079190615974565b905082600081518110611f1c57611f1c6158f8565b60200260200101516001600160a01b031683600181518110611f4057611f406158f8565b60200260200101516001600160a01b03167fb3fac3ae95956dbac74e63ba8dac94081832395c8788e3049c900a7732f348058387604051611f949291909182526001600160a01b0316602082015260400190565b60405180910390a3604080518082019091526001600160a01b03948516815260208101828152601380546001808201835560009290925292517f66de8ffda797e3de9c05e8fc57b3bf0ec28a930d40b0d285d93c06501cf6a090600290940293840180546001600160a01b0319169190981617909655517f66de8ffda797e3de9c05e8fc57b3bf0ec28a930d40b0d285d93c06501cf6a091909101556007939093555090919050565b606060098054610a0890615681565b600b5460405163160a792560e01b81526001600160a01b0383811660048301526000926101009004169063160a792590602401608060405180830381865afa15801561209c573d6000803e3d6000fd5b505050506040513d601f19601f820116820180604052508101906120c091906156b6565b6020015192915050565b600b5460405163160a792560e01b81523360048201526101009091046001600160a01b03169063160a792590602401608060405180830381865afa158015612116573d6000803e3d6000fd5b505050506040513d601f19601f8201168201806040525081019061213a91906156b6565b60200151806121c15750600b546040516331a9108f60e11b815260016004820152339161010090046001600160a01b031690636352211e90602401602060405180830381865afa158015612192573d6000803e3d6000fd5b505050506040513d601f19601f820116820180604052508101906121b6919061573a565b6001600160a01b0316145b6121dd5760405162461bcd60e51b8152600401610bb890615757565b610f7581612f75565b600033816121f48286612d22565b9050838110156122545760405162461bcd60e51b815260206004820152602560248201527f45524332303a2064656372656173656420616c6c6f77616e63652062656c6f77604482015264207a65726f60d81b6064820152608401610bb8565b6122618286868403612e50565b506001949350505050565b6002600754141561228f5760405162461bcd60e51b8152600401610bb89061578c565b600260075560006122a36020830183614de5565b604051634c87087d60e01b81526020840135600482015290915060009081906001600160a01b03841690634c87087d9060240161018060405180830381865afa1580156122f4573d6000803e3d6000fd5b505050506040513d601f19601f82011682018060405250810190612318919061598d565b5050505050505050935050925050306001600160a01b0316826001600160a01b0316146123975760405162461bcd60e51b815260206004820152602760248201527f5468697320466978656452617465206973206e6f742070726f766964696e67206044820152661d1a1a5cc8111560ca1b6064820152608401610bb8565b604051636e8de4b560e11b815260208501356004820152670de0b6b3a76400006024820152606085013560448201526000906001600160a01b0385169063dd1bc96a90606401608060405180830381865afa1580156123fa573d6000803e3d6000fd5b505050506040513d601f19601f8201168201806040525081019061241e9190615a4a565b505050905084604001358111156124875760405162461bcd60e51b815260206004820152602760248201527f46697865645261746545786368616e67653a20546f6f206d616e79206261736560448201526620746f6b656e7360c81b6064820152608401610bb8565b61249382333084613eab565b6124b46124a36020870187614de5565b6001600160a01b03841690836140ca565b6001600160a01b0384166368c4b7e96020870135670de0b6b3a7640000846124e260a08b0160808c01614de5565b6040516001600160e01b031960e087901b1681526004810194909452602484019290925260448301526001600160a01b031660648201526060880135608482015260a401600060405180830381600087803b15801561254057600080fd5b505af1158015612554573d6000803e3d6000fd5b505030600090815260208190526040902054670de0b6b3a76400009250905010156125c15760405162461bcd60e51b815260206004820152601f60248201527f556e61626c6520746f206275792044542066726f6d20466978656452617465006044820152606401610bb8565b6125d43033670de0b6b3a76400006130c6565b6125ff6125e46020880188614de5565b60208801356125f660408a018a6157c3565b896060016116af565b604051634c87087d60e01b8152602086013560048201526000906001600160a01b03861690634c87087d9060240161018060405180830381865afa15801561264b573d6000803e3d6000fd5b505050506040513d601f19601f8201168201806040525081019061266f919061598d565b509a505050505050505050505060008111156126ea57604051637997ca3b60e11b815260208701356004820152602481018290526001600160a01b0386169063f32f947690604401600060405180830381600087803b1580156126d157600080fd5b505af11580156126e5573d6000803e3d6000fd5b505050505b505060016007555050505050565b600033610a998185856130c6565b600b5460405163160a792560e01b81523360048201526101009091046001600160a01b03169063160a792590602401608060405180830381865afa158015612752573d6000803e3d6000fd5b505050506040513d601f19601f8201168201806040525081019061277691906156b6565b60200151806127fd5750600b546040516331a9108f60e11b815260016004820152339161010090046001600160a01b031690636352211e90602401602060405180830381865afa1580156127ce573d6000803e3d6000fd5b505050506040513d601f19601f820116820180604052508101906127f2919061573a565b6001600160a01b0316145b6128195760405162461bcd60e51b8152600401610bb890615757565b610f75816141af565b600b5460405163160a792560e01b81523360048201526101009091046001600160a01b03169063160a792590602401608060405180830381865afa15801561286e573d6000803e3d6000fd5b505050506040513d601f19601f8201168201806040525081019061289291906156b6565b60200151806129195750600b546040516331a9108f60e11b815260016004820152339161010090046001600160a01b031690636352211e90602401602060405180830381865afa1580156128ea573d6000803e3d6000fd5b505050506040513d601f19601f8201168201806040525081019061290e919061573a565b6001600160a01b0316145b6129355760405162461bcd60e51b8152600401610bb890615757565b6040516bffffffffffffffffffffffff193060601b16602082015260009060340160408051808303601f19018152908290528051602090910120600b546301caf8fd60e31b835290925061010090046001600160a01b031690630e57c7e8906129a690849087908790600401615a80565b600060405180830381600087803b1580156129c057600080fd5b505af11580156129d4573d6000803e3d6000fd5b50505050505050565b600b5460009060ff1615612a4d5760405162461bcd60e51b815260206004820152603160248201527f455243323054656d706c6174653a20746f6b656e20696e7374616e636520616c6044820152701c9958591e481a5b9a5d1a585b1a5e9959607a1b6064820152608401610bb8565b612b01612a5a8b8d615afa565b8a8a8080602002602001604051908101604052809392919081815260200183836020028082843760009201919091525050604080516020808e0282810182019093528d82529093508d92508c91829185019084908082843760009201919091525050604080516020808d0282810182019093528c82529093508c92508b918291850190849080828437600092019190915250612afc92508991508a9050615b81565b614290565b9b9a5050505050505050505050565b43841015612b535760405162461bcd60e51b815260206004820152601060248201526f115490cc8c11150e881156141254915160821b6044820152606401610bb8565b6010546001600160a01b038816600090815260116020526040812080549192917f6e71edae12b1b97f4d1f60370fef10105fa2faae0126114a169c64845d6126c9918b918b918b919087612ba683615bfc565b909155506040805160208101969096526001600160a01b0394851690860152929091166060840152608083015260a082015260c0810187905260e00160405160208183030381529060405280519060200120604051602001612c1f92919061190160f01b81526002810192909252602282015260420190565b60408051601f198184030181528282528051602091820120600080855291840180845281905260ff88169284019290925260608301869052608083018590529092509060019060a0016020604051602081039080840390855afa158015612c8a573d6000803e3d6000fd5b5050604051601f1901519150506001600160a01b03811615801590612cc05750886001600160a01b0316816001600160a01b0316145b612d0c5760405162461bcd60e51b815260206004820152601a60248201527f455243323044543a20494e56414c49445f5349474e41545552450000000000006044820152606401610bb8565b612d17898989612e50565b505050505050505050565b6001600160a01b03918216600090815260016020908152604080832093909416825291909152205490565b612d55612d8d565b6001600160a01b03166108fc479081150290604051600060405180830381858888f19350505050158015610f75573d6000803e3d6000fd5b600c546000906001600160a01b0316612e1657600b546040516331a9108f60e11b8152600160048201526101009091046001600160a01b031690636352211e90602401602060405180830381865afa158015612ded573d6000803e3d6000fd5b505050506040513d601f19601f82011682018060405250810190612e11919061573a565b905090565b50600c546001600160a01b031690565b60068181548110612e3657600080fd5b6000918252602090912001546001600160a01b0316905081565b6001600160a01b038316612eb25760405162461bcd60e51b8152602060048201526024808201527f45524332303a20617070726f76652066726f6d20746865207a65726f206164646044820152637265737360e01b6064820152608401610bb8565b6001600160a01b038216612f135760405162461bcd60e51b815260206004820152602260248201527f45524332303a20617070726f766520746f20746865207a65726f206164647265604482015261737360f01b6064820152608401610bb8565b6001600160a01b0383811660008181526001602090815260408083209487168084529482529182902085905590518481527f8c5be1e5ebec7d5bd14f71427d1e84f3dd0314c0f7b2291e5b200ac8c7c3b92591015b60405180910390a3505050565b6001600160a01b03811615610f75576001600160a01b0381166000908152600560205260409020805460ff1615612fee5760405162461bcd60e51b815260206004820152601d60248201527f4552433230526f6c65733a2020414c52454144592041204d494e5445520000006044820152606401610bb8565b805460ff191660011781556130028261477a565b6040805142815243602082015233916001600160a01b038516917f4f7e100eb1ee13e903798bd0d6aa854152e07eb05544f392b9409c12935c809591015b60405180910390a35050565b60006130588484612d22565b905060001981146130c057818110156130b35760405162461bcd60e51b815260206004820152601d60248201527f45524332303a20696e73756666696369656e7420616c6c6f77616e63650000006044820152606401610bb8565b6130c08484848403612e50565b50505050565b6001600160a01b03831661312a5760405162461bcd60e51b815260206004820152602560248201527f45524332303a207472616e736665722066726f6d20746865207a65726f206164604482015264647265737360d81b6064820152608401610bb8565b6001600160a01b03821661318c5760405162461bcd60e51b815260206004820152602360248201527f45524332303a207472616e7366657220746f20746865207a65726f206164647260448201526265737360e81b6064820152608401610bb8565b6001600160a01b038316600090815260208190526040902054818110156132045760405162461bcd60e51b815260206004820152602660248201527f45524332303a207472616e7366657220616d6f756e7420657863656564732062604482015265616c616e636560d01b6064820152608401610bb8565b6001600160a01b0380851660009081526020819052604080822085850390559185168152908120805484929061323b9084906157f9565b92505081905550826001600160a01b0316846001600160a01b03167fddf252ad1be2c89b69c2b068fc378daa952ba7f163c4a11628f55a4df523b3ef8460405161328791815260200190565b60405180910390a36130c0565b6001600160a01b03811660008181526005602052604090819020805461ff00191681559051909133917faee911eec8b2df8f3ae0464841541b1e5f339519bd5cf51889fe8b07fecff658906132f59042904390918252602082015260400190565b60405180910390a36110e182614831565b6001600160a01b03811660008181526005602052604090819020805460ff191681559051909133917fefa2735987005aaa89c050c0ff8cc9ae7d9079d19382081c429130f98c52d480906132f59042904390918252602082015260400190565b60408051808201909152601c81527f19457468657265756d205369676e6564204d6573736167653a0a33320000000060208201526000816133aa60e0850185615c17565b6133b76020870187614de5565b6133c76040880160208901614de5565b87604001358860c001356040516020016133e696959493929190615c5d565b6040516020818303038152906040528051906020012060405160200161340d92919061582b565b60408051601f1981840301815291905280516020909101209050600060018261343c6080870160608801615c9b565b6040805160008152602081018083529390935260ff90911690820152608080870135606083015260a08088013591830191909152016020604051602081039080840390855afa158015613493573d6000803e3d6000fd5b5050604051601f19015191506134ae90506020850185614de5565b6001600160a01b0316816001600160a01b0316146135055760405162461bcd60e51b8152602060048201526014602482015273496e76616c69642070726f76696465722066656560601b6044820152606401610bb8565b6135156040850160208601614de5565b6001600160a01b031661352b6020860186614de5565b6001600160a01b03167ff8ed11cdaaf10eca2b6c941fb802cb8682afe86cac1eb93f70d0780fa062c544604087013561356760e0890189615c17565b61357760808b0160608c01615c9b565b8a608001358b60a001358c60c001356040516135999796959493929190615cb6565b60405180910390a3600084604001351180156135ce575060006135c26040860160208701614de5565b6001600160a01b031614155b80156135f0575060006135e46020860186614de5565b6001600160a01b031614155b156130c05760125460408051636c45e88160e01b815290516000926001600160a01b031691636c45e8819160048083019260209291908290030181865afa15801561363f573d6000803e3d6000fd5b505050506040513d601f19601f820116820180604052508101906136639190615974565b9050600081156136905761368d670de0b6b3a764000061368760408901358561497f565b9061498b565b90505b60006136a0604088013583614997565b90506136c16136b56040890160208a01614de5565b33308a60400135613eab565b6136f26136d16020890189614de5565b826136e260408b0160208c01614de5565b6001600160a01b031691906149a3565b81156129d45760125460408051631a81876d60e01b815290516129d4926001600160a01b031691631a81876d9160048083019260209291908290030181865afa158015613743573d6000803e3d6000fd5b505050506040513d601f19601f82011682018060405250810190613767919061573a565b836136e260408b0160208c01614de5565b6000610e5282846157f9565b6001600160a01b0382166137da5760405162461bcd60e51b815260206004820152601f60248201527f45524332303a206d696e7420746f20746865207a65726f2061646472657373006044820152606401610bb8565b80600260008282546137ec91906157f9565b90915550506001600160a01b038216600090815260208190526040812080548392906138199084906157f9565b90915550506040518181526001600160a01b038316906000907fddf252ad1be2c89b69c2b068fc378daa952ba7f163c4a11628f55a4df523b3ef9060200160405180910390a35050565b6001600160a01b0382166138c35760405162461bcd60e51b815260206004820152602160248201527f45524332303a206275726e2066726f6d20746865207a65726f206164647265736044820152607360f81b6064820152608401610bb8565b6001600160a01b038216600090815260208190526040902054818110156139375760405162461bcd60e51b815260206004820152602260248201527f45524332303a206275726e20616d6f756e7420657863656564732062616c616e604482015261636560f01b6064820152608401610bb8565b6001600160a01b0383166000908152602081905260408120838303905560028054849290613966908490615cf9565b90915550506040518281526000906001600160a01b038516907fddf252ad1be2c89b69c2b068fc378daa952ba7f163c4a11628f55a4df523b3ef90602001612f68565b505050565b6014546013546000916139c0916157f9565b9050600080826001600160401b038111156139dd576139dd61525d565b604051908082528060200260200182016040528015613a06578160200160208202803683370190505b50905060005b601354811015613cec57600060138281548110613a2b57613a2b6158f8565b60009182526020822060029091020154601380546001600160a01b039092169350829182918591634c87087d919088908110613a6957613a696158f8565b9060005260206000209060020201600101546040518263ffffffff1660e01b8152600401613a9991815260200190565b61018060405180830381865afa158015613ab7573d6000803e3d6000fd5b505050506040513d601f19601f82011682018060405250810190613adb919061598d565b9b509b509b505050505050505050506000821115613b8157836001600160a01b031663f32f947660138781548110613b1557613b156158f8565b906000526020600020906002020160010154846040518363ffffffff1660e01b8152600401613b4e929190918252602082015260400190565b600060405180830381600087803b158015613b6857600080fd5b505af1158015613b7c573d6000803e3d6000fd5b505050505b8215613c1557836001600160a01b031663c612e48a60138781548110613ba957613ba96158f8565b906000526020600020906002020160010154856040518363ffffffff1660e01b8152600401613be2929190918252602082015260400190565b600060405180830381600087803b158015613bfc57600080fd5b505af1158015613c10573d6000803e3d6000fd5b505050505b613c5860138681548110613c2b57613c2b6158f8565b600091825260208083206002909202909101546001600160a01b0316825260059052604090205460ff1690565b8015613c6657506001811515145b15613cd55760138581548110613c7e57613c7e6158f8565b600091825260209091206002909102015486516001600160a01b0390911690879089908110613caf57613caf6158f8565b6001600160a01b039092166020928302919091019091015286613cd181615bfc565b9750505b505050508080613ce490615bfc565b915050613a0c565b5060005b601454811015613e315760148181548110613d0d57613d0d6158f8565b60009182526020909120015460405163f9bfaa7d60e01b81523060048201526001600160a01b039091169063f9bfaa7d90602401600060405180830381600087803b158015613d5b57600080fd5b505af1158015613d6f573d6000803e3d6000fd5b50505050613db160148281548110613d8957613d896158f8565b60009182526020808320909101546001600160a01b0316825260059052604090205460ff1690565b15613e1f5760148181548110613dc957613dc96158f8565b9060005260206000200160009054906101000a90046001600160a01b0316828481518110613df957613df96158f8565b6001600160a01b039092166020928302919091019091015282613e1b81615bfc565b9350505b80613e2981615bfc565b915050613cf0565b613e396149d3565b50600c80546001600160a01b031916905560005b828110156130c057613e77828281518110613e6a57613e6a6158f8565b6020026020010151612f75565b80613e8181615bfc565b915050613e4d565b600c80546001600160a01b0319166001600160a01b0392909216919091179055565b6040516370a0823160e01b81526001600160a01b038381166004830152600091908616906370a0823190602401602060405180830381865afa158015613ef5573d6000803e3d6000fd5b505050506040513d601f19601f82011682018060405250810190613f199190615974565b9050613f306001600160a01b038616858585614a82565b613f3a8183613778565b6040516370a0823160e01b81526001600160a01b0385811660048301528716906370a0823190602401602060405180830381865afa158015613f80573d6000803e3d6000fd5b505050506040513d601f19601f82011682018060405250810190613fa49190615974565b10156119285760405162461bcd60e51b815260206004820152601a60248201527f5472616e7366657220616d6f756e7420697320746f6f206c6f770000000000006044820152606401610bb8565b600080600080845160411461400d5760009350505050610a9f565b50505060208201516040830151604184015160ff16601b81101561403957614036601b82615d10565b90505b8060ff16601b1415801561405157508060ff16601c14155b156140625760009350505050610a9f565b60408051600081526020810180835288905260ff831691810191909152606081018490526080810183905260019060a0016020604051602081039080840390855afa1580156140b5573d6000803e3d6000fd5b5050604051601f190151979650505050505050565b604051636eb1769f60e11b81523060048201526001600160a01b038381166024830152600091839186169063dd62ed3e90604401602060405180830381865afa15801561411b573d6000803e3d6000fd5b505050506040513d601f19601f8201168201806040525081019061413f9190615974565b61414991906157f9565b6040516001600160a01b0385166024820152604481018290529091506130c090859063095ea7b360e01b906064015b60408051601f198184030181529190526020810180516001600160e01b03166001600160e01b031990931692909217909152614aba565b6001600160a01b03811615610f75576001600160a01b03811660009081526005602052604090208054610100900460ff16156142385760405162461bcd60e51b815260206004820152602260248201527f4552433230526f6c65733a2020414c5245414459204120464545204d414e414760448201526122a960f11b6064820152608401610bb8565b805461ff00191661010017815561424e8261477a565b6040805142815243602082015233916001600160a01b038516917fb17da2e9910b4ba5754e8872385ba315a238bafb5ae221fc85093c33432c40a79101613040565b600080846000815181106142a6576142a66158f8565b60200260200101519050846001815181106142c3576142c36158f8565b6020908102919091010151601280546001600160a01b0319166001600160a01b03928316179055811661434d5760405162461bcd60e51b815260206004820152602c60248201527f455243323054656d706c6174653a20496e76616c6964206d696e7465722c202060448201526b7a65726f206164647265737360a01b6064820152608401610bb8565b6012546001600160a01b03166143b95760405162461bcd60e51b815260206004820152602b60248201527f455243323054656d706c6174653a20496e76616c696420726f757465722c207a60448201526a65726f206164647265737360a81b6064820152608401610bb8565b836000815181106143cc576143cc6158f8565b6020026020010151600014156144305760405162461bcd60e51b8152602060048201526024808201527f44617461746f6b656e54656d706c6174653a20496e76616c6964206361702076604482015263616c756560e01b6064820152608401610bb8565b83600081518110614443576144436158f8565b6020026020010151600a8190555086600081518110614464576144646158f8565b602002602001015160089080519060200190614481929190614d0d565b5086600181518110614495576144956158f8565b6020026020010151600990805190602001906144b2929190614d0d565b50600b805460ff196001600160a01b03841661010002166001600160a81b031990911617600117905585516144f2908790600090613e6a57613e6a6158f8565b60006001600160a01b031686600181518110614510576145106158f8565b60200260200101516001600160a01b0316146145ba576145498660018151811061453c5761453c6158f8565b6020026020010151613e89565b8560018151811061455c5761455c6158f8565b60200260200101516001600160a01b0316336001600160a01b03167f4d7694d695c57cc54947177c8e8a0e61aae664e9223492a798c32fadfc6419cc42436040516145b1929190918252602082015260400190565b60405180910390a35b856002815181106145cd576145cd6158f8565b6020026020010151600d60006101000a8154816001600160a01b0302191690836001600160a01b031602179055508560038151811061460e5761460e6158f8565b6020026020010151600e60006101000a8154816001600160a01b0302191690836001600160a01b031602179055508360018151811061464f5761464f6158f8565b602090810291909101810151600f819055600d54600e54604080513381526001600160a01b039384169581019590955291169083015260608201527f02ab4b3fc023109c2d0da394bda239166c833f63c42b71b67ed4b836dca0ddfe9060800160405180910390a160405146907f8b73c3c69bb8fe3d512ecc4cf759cc79239f7b179b0ffacaa9a75d522b39400f906146ea90600890615d35565b60408051918290038220828201825260018352603160f81b6020938401528151928301939093528101919091527fc89efdaa54c0f20c7adf612882df0950f5a951637e0307cdcb4c672f298b8bc66060820152608081018290523060a082015260c00160408051808303601f1901815291905280516020909101206010555050600b5460ff169695505050505050565b60005b6006548110156147d657816001600160a01b0316600682815481106147a4576147a46158f8565b6000918252602090912001546001600160a01b031614156147c4576147d6565b806147ce81615bfc565b91505061477d565b6006548114156110e157600680546001810182556000919091527ff652222313e28459528d920b65115c16c04f3efc82aaedc97be59f3f377c0d3f0180546001600160a01b0384166001600160a01b03199091161790555050565b6001600160a01b0381166000908152600560205260409020805460ff1615801561486257508054610100900460ff16155b156110e15760005b6006548110156148c357826001600160a01b031660068281548110614891576148916158f8565b6000918252602090912001546001600160a01b031614156148b1576148c3565b806148bb81615bfc565b91505061486a565b6006548110156139a957600680546148dd90600190615cf9565b815481106148ed576148ed6158f8565b600091825260209091200154600680546001600160a01b039092169183908110614919576149196158f8565b9060005260206000200160006101000a8154816001600160a01b0302191690836001600160a01b03160217905550600680548061495857614958615dd1565b600082815260209020810160001990810180546001600160a01b0319169055019055505050565b6000610e528284615de7565b6000610e528284615e06565b6000610e528284615cf9565b6040516001600160a01b0383166024820152604481018290526139a990849063a9059cbb60e01b90606401614178565b60005b600654811015614a3957600060056000600684815481106149f9576149f96158f8565b60009182526020808320909101546001600160a01b031683528201929092526040019020805461ffff191690555080614a3181615bfc565b9150506149d6565b50614a4660066000614d91565b6040805142815243602082015233917f712bc71db81927a76b8bf1ea346247bb0ad58f18e4e5c1bd4aa0ec6573e02a2b910160405180910390a2565b6040516001600160a01b03808516602483015283166044820152606481018290526130c09085906323b872dd60e01b90608401614178565b6000614b0f826040518060400160405280602081526020017f5361666545524332303a206c6f772d6c6576656c2063616c6c206661696c6564815250856001600160a01b0316614b8c9092919063ffffffff16565b8051909150156139a95780806020019051810190614b2d9190615e28565b6139a95760405162461bcd60e51b815260206004820152602a60248201527f5361666545524332303a204552433230206f7065726174696f6e20646964206e6044820152691bdd081cdd58d8d9595960b21b6064820152608401610bb8565b6060614b9b8484600085614ba3565b949350505050565b606082471015614c045760405162461bcd60e51b815260206004820152602660248201527f416464726573733a20696e73756666696369656e742062616c616e636520666f6044820152651c8818d85b1b60d21b6064820152608401610bb8565b6001600160a01b0385163b614c5b5760405162461bcd60e51b815260206004820152601d60248201527f416464726573733a2063616c6c20746f206e6f6e2d636f6e74726163740000006044820152606401610bb8565b600080866001600160a01b03168587604051614c779190615e45565b60006040518083038185875af1925050503d8060008114614cb4576040519150601f19603f3d011682016040523d82523d6000602084013e614cb9565b606091505b5091509150614cc9828286614cd4565b979650505050505050565b60608315614ce3575081610e52565b825115614cf35782518084602001fd5b8160405162461bcd60e51b8152600401610bb89190614e2e565b828054614d1990615681565b90600052602060002090601f016020900481019282614d3b5760008555614d81565b82601f10614d5457805160ff1916838001178555614d81565b82800160010185558215614d81579182015b82811115614d81578251825591602001919060010190614d66565b50614d8d929150614dab565b5090565b5080546000825590600052602060002090810190610f7591905b5b80821115614d8d5760008155600101614dac565b6001600160a01b0381168114610f7557600080fd5b8035614de081614dc0565b919050565b600060208284031215614df757600080fd5b8135610e5281614dc0565b60005b83811015614e1d578181015183820152602001614e05565b838111156130c05750506000910152565b6020815260008251806020840152614e4d816040850160208701614e02565b601f01601f19169190910160400192915050565b60008060408385031215614e7457600080fd5b8235614e7f81614dc0565b946020939093013593505050565b8015158114610f7557600080fd5b600080600080600060a08688031215614eb357600080fd5b8535614ebe81614dc0565b945060208601359350604086013592506060860135614edc81614e8d565b91506080860135614eec81614dc0565b809150509295509295909350565b600060c08284031215614f0c57600080fd5b50919050565b60008060408385031215614f2557600080fd5b82356001600160401b03811115614f3b57600080fd5b614f4785828601614efa565b9250506020830135614f5881614dc0565b809150509250929050565b600080600060608486031215614f7857600080fd5b8335614f8381614dc0565b92506020840135614f9381614dc0565b929592945050506040919091013590565b60006101008284031215614f0c57600080fd5b60008060408385031215614fca57600080fd5b8235915060208301356001600160401b03811115614fe757600080fd5b614ff385828601614fa4565b9150509250929050565b60006020828403121561500f57600080fd5b5035919050565b600081518084526020808501945080840160005b8381101561504f5781516001600160a01b03168752958201959082019060010161502a565b509495945050505050565b602081526000610e526020830184615016565b60008060008084860360c081121561508457600080fd5b853561508f81614dc0565b94506020860135935060408601356001600160401b038111156150b157600080fd5b6150bd88828901614fa4565b9350506060605f19820112156150d257600080fd5b509295919450926060019150565b602080825282518282018190526000919060409081850190868401855b8281101561512b57815180516001600160a01b031685528601518685015292840192908501906001016150fd565b5091979650505050505050565b60008083601f84011261514a57600080fd5b5081356001600160401b0381111561516157600080fd5b60208301915083602082850101111561517957600080fd5b9250929050565b60008060008060008060008060008060c08b8d03121561519f57600080fd5b8a35995060208b01356001600160401b03808211156151bd57600080fd5b6151c98e838f01615138565b909b50995060408d01359150808211156151e257600080fd5b6151ee8e838f01615138565b909950975060608d013591508082111561520757600080fd5b6152138e838f01615138565b909750955060808d013591508082111561522c57600080fd5b506152398d828e01615138565b909450925061524c905060a08c01614dd5565b90509295989b9194979a5092959850565b634e487b7160e01b600052604160045260246000fd5b604051601f8201601f191681016001600160401b038111828210171561529b5761529b61525d565b604052919050565b60006001600160401b038211156152bc576152bc61525d565b5060051b60200190565b600082601f8301126152d757600080fd5b813560206152ec6152e7836152a3565b615273565b82815260059290921b8401810191818101908684111561530b57600080fd5b8286015b84811015615326578035835291830191830161530f565b509695505050505050565b60008060006060848603121561534657600080fd5b833561535181614dc0565b92506020848101356001600160401b038082111561536e57600080fd5b818701915087601f83011261538257600080fd5b81356153906152e7826152a3565b81815260059190911b8301840190848101908a8311156153af57600080fd5b938501935b828510156153d65784356153c781614dc0565b825293850193908501906153b4565b9650505060408701359250808311156153ee57600080fd5b50506153fc868287016152c6565b9150509250925092565b60008082840360c081121561541a57600080fd5b83356001600160401b0381111561543057600080fd5b61543c86828701614efa565b93505060a0601f198201121561545157600080fd5b506020830190509250929050565b6000806020838503121561547257600080fd5b82356001600160401b0381111561548857600080fd5b61549485828601615138565b90969095509350505050565b60008083601f8401126154b257600080fd5b5081356001600160401b038111156154c957600080fd5b6020830191508360208260051b850101111561517957600080fd5b60008060008060008060008060008060a08b8d03121561550357600080fd5b8a356001600160401b038082111561551a57600080fd5b6155268e838f016154a0565b909c509a5060208d013591508082111561553f57600080fd5b61554b8e838f016154a0565b909a50985060408d013591508082111561556457600080fd5b6155708e838f016154a0565b909850965060608d013591508082111561558957600080fd5b6155958e838f016154a0565b909650945060808d01359150808211156155ae57600080fd5b506155bb8d828e016154a0565b915080935050809150509295989b9194979a5092959850565b803560ff81168114614de057600080fd5b600080600080600080600060e0888a03121561560057600080fd5b873561560b81614dc0565b9650602088013561561b81614dc0565b95506040880135945060608801359350615637608089016155d4565b925060a0880135915060c0880135905092959891949750929550565b6000806040838503121561566657600080fd5b823561567181614dc0565b91506020830135614f5881614dc0565b600181811c9082168061569557607f821691505b60208210811415614f0c57634e487b7160e01b600052602260045260246000fd5b6000608082840312156156c857600080fd5b604051608081018181106001600160401b03821117156156ea576156ea61525d565b60405282516156f881614e8d565b8152602083015161570881614e8d565b6020820152604083015161571b81614e8d565b6040820152606083015161572e81614e8d565b60608201529392505050565b60006020828403121561574c57600080fd5b8151610e5281614dc0565b6020808252818101527f455243323054656d706c6174653a204e4f54204445504c4f59455220524f4c45604082015260600190565b6020808252601f908201527f5265656e7472616e637947756172643a207265656e7472616e742063616c6c00604082015260600190565b6000823560fe198336030181126157d957600080fd5b9190910192915050565b634e487b7160e01b600052601160045260246000fd5b6000821982111561580c5761580c6157e3565b500190565b838152818360208301376000910160200190815292915050565b6000835161583d818460208801614e02565b9190910191825250602001919050565b8183823760009101908152919050565b81835281816020850137506000828201602090810191909152601f909101601f19169091010190565b8b815260e0602082015260006158a060e083018c8e61585d565b82810360408401526158b3818b8d61585d565b905082810360608401526158c881898b61585d565b905082810360808401526158dd81878961585d565b60a0840195909552505060c001529998505050505050505050565b634e487b7160e01b600052603260045260246000fd5b6001600160a01b03841681526060602080830182905260009161593390840186615016565b838103604085015284518082528286019183019060005b818110156159665783518352928401929184019160010161594a565b509098975050505050505050565b60006020828403121561598657600080fd5b5051919050565b6000806000806000806000806000806000806101808d8f0312156159b057600080fd5b8c516159bb81614dc0565b60208e0151909c506159cc81614dc0565b60408e015160608f0151919c509a506159e481614dc0565b8099505060808d0151975060a08d0151965060c08d0151615a0481614e8d565b8096505060e08d015194506101008d015193506101208d015192506101408d015191506101608d0151615a3681614e8d565b809150509295989b509295989b509295989b565b60008060008060808587031215615a6057600080fd5b505082516020840151604085015160609095015191969095509092509050565b838152604060208201526000615a9a60408301848661585d565b95945050505050565b60006001600160401b03831115615abc57615abc61525d565b615acf601f8401601f1916602001615273565b9050828152838383011115615ae357600080fd5b828260208301376000602084830101529392505050565b6000615b086152e7846152a3565b80848252602080830192508560051b850136811115615b2657600080fd5b855b81811015615b755780356001600160401b03811115615b475760008081fd5b870136601f820112615b595760008081fd5b615b67368235868401615aa3565b865250938201938201615b28565b50919695505050505050565b6000615b8f6152e7846152a3565b80848252602080830192508560051b850136811115615bad57600080fd5b855b81811015615b755780356001600160401b03811115615bce5760008081fd5b870136601f820112615be05760008081fd5b615bee368235868401615aa3565b865250938201938201615baf565b6000600019821415615c1057615c106157e3565b5060010190565b6000808335601e19843603018112615c2e57600080fd5b8301803591506001600160401b03821115615c4857600080fd5b60200191503681900382131561517957600080fd5b858782376bffffffffffffffffffffffff19606095861b8116969091019586529290931b909116601484015260288301526048820152606801919050565b600060208284031215615cad57600080fd5b610e52826155d4565b87815260c060208201526000615cd060c08301888a61585d565b905060ff861660408301528460608301528360808301528260a083015298975050505050505050565b600082821015615d0b57615d0b6157e3565b500390565b600060ff821660ff84168060ff03821115615d2d57615d2d6157e3565b019392505050565b600080835481600182811c915080831680615d5157607f831692505b6020808410821415615d7157634e487b7160e01b86526022600452602486fd5b818015615d855760018114615d9657615dc3565b60ff19861689528489019650615dc3565b60008a81526020902060005b86811015615dbb5781548b820152908501908301615da2565b505084890196505b509498975050505050505050565b634e487b7160e01b600052603160045260246000fd5b6000816000190483118215151615615e0157615e016157e3565b500290565b600082615e2357634e487b7160e01b600052601260045260246000fd5b500490565b600060208284031215615e3a57600080fd5b8151610e5281614e8d565b600082516157d9818460208701614e0256fea2646970667358221220efd53211ba948c34636c5fd13d052c10527c61441c4716d4956fc8b1ced3d49064736f6c634300080c0033",
  "linkReferences": {},
  "deployedLinkReferences": {}
}