{
  "_format": "hh-sol-artifact-1",
  "contractName": "ERC721Factory",
  "sourceName": "contracts/ERC721Factory.sol",
  "abi": [
    {
      "inputs": [
        {
          "internalType": "address",
          "name": "_template721",
          "type": "address"
        },
        {
          "internalType": "address",
          "name": "_template",
          "type": "address"
        },
        {
          "internalType": "address",
          "name": "_router",
          "type": "address"
        }
      ],
      "stateMutability": "nonpayable",
      "type": "constructor"
    },
    {
      "anonymous": false,
      "inputs": [
        {
          "indexed": true,
          "internalType": "address",
          "name": "datatokenAddress",
          "type": "address"
        },
        {
          "indexed": true,
          "internalType": "address",
          "name": "owner",
          "type": "address"
        },
        {
          "indexed": false,
          "internalType": "uint256",
          "name": "maxTokens",
          "type": "uint256"
        },
        {
          "indexed": false,
          "internalType": "uint256",
          "name": "maxBalance",
          "type": "uint256"
        },
        {
          "indexed": false,
          "internalType": "address",
          "name": "allowedSwapper",
          "type": "address"
        }
      ],
      "name": "DispenserCreated",
      "type": "event"
    },
    {
      "anonymous": false,
      "inputs": [
        {
          "indexed": false,
          "internalType": "address",
          "name": "instance",
          "type": "address"
        }
      ],
      "name": "InstanceDeployed",
      "type": "event"
    },
    {
      "anonymous": false,
      "inputs": [
        {
          "indexed": false,
          "internalType": "address",
          "name": "newTokenAddress",
          "type": "address"
        },
        {
          "indexed": true,
          "internalType": "address",
          "name": "templateAddress",
          "type": "address"
        },
        {
          "indexed": false,
          "internalType": "string",
          "name": "tokenName",
          "type": "string"
        },
        {
          "indexed": true,
          "internalType": "address",
          "name": "admin",
          "type": "address"
        },
        {
          "indexed": false,
          "internalType": "string",
          "name": "symbol",
          "type": "string"
        },
        {
          "indexed": false,
          "internalType": "string",
          "name": "tokenURI",
          "type": "string"
        },
        {
          "indexed": false,
          "internalType": "bool",
          "name": "transferable",
          "type": "bool"
        },
        {
          "indexed": true,
          "internalType": "address",
          "name": "creator",
          "type": "address"
        }
      ],
      "name": "NFTCreated",
      "type": "event"
    },
    {
      "anonymous": false,
      "inputs": [
        {
          "indexed": false,
          "internalType": "address",
          "name": "dispenserContract",
          "type": "address"
        }
      ],
      "name": "NewDispenser",
      "type": "event"
    },
    {
      "anonymous": false,
      "inputs": [
        {
          "indexed": false,
          "internalType": "bytes32",
          "name": "exchangeId",
          "type": "bytes32"
        },
        {
          "indexed": true,
          "internalType": "address",
          "name": "owner",
          "type": "address"
        },
        {
          "indexed": false,
          "internalType": "address",
          "name": "exchangeContract",
          "type": "address"
        },
        {
          "indexed": true,
          "internalType": "address",
          "name": "baseToken",
          "type": "address"
        }
      ],
      "name": "NewFixedRate",
      "type": "event"
    },
    {
      "anonymous": false,
      "inputs": [
        {
          "indexed": false,
          "internalType": "address",
          "name": "poolAddress",
          "type": "address"
        },
        {
          "indexed": false,
          "internalType": "address",
          "name": "ssContract",
          "type": "address"
        },
        {
          "indexed": false,
          "internalType": "address",
          "name": "baseTokenAddress",
          "type": "address"
        }
      ],
      "name": "NewPool",
      "type": "event"
    },
    {
      "anonymous": false,
      "inputs": [
        {
          "indexed": true,
          "internalType": "address",
          "name": "previousOwner",
          "type": "address"
        },
        {
          "indexed": true,
          "internalType": "address",
          "name": "newOwner",
          "type": "address"
        }
      ],
      "name": "OwnershipTransferred",
      "type": "event"
    },
    {
      "anonymous": false,
      "inputs": [
        {
          "indexed": true,
          "internalType": "address",
          "name": "_templateAddress",
          "type": "address"
        },
        {
          "indexed": true,
          "internalType": "uint256",
          "name": "nftTemplateCount",
          "type": "uint256"
        }
      ],
      "name": "Template20Added",
      "type": "event"
    },
    {
      "anonymous": false,
      "inputs": [
        {
          "indexed": true,
          "internalType": "address",
          "name": "_templateAddress",
          "type": "address"
        },
        {
          "indexed": true,
          "internalType": "uint256",
          "name": "nftTemplateCount",
          "type": "uint256"
        }
      ],
      "name": "Template721Added",
      "type": "event"
    },
    {
      "anonymous": false,
      "inputs": [
        {
          "indexed": true,
          "internalType": "address",
          "name": "newTokenAddress",
          "type": "address"
        },
        {
          "indexed": true,
          "internalType": "address",
          "name": "templateAddress",
          "type": "address"
        },
        {
          "indexed": false,
          "internalType": "string",
          "name": "name",
          "type": "string"
        },
        {
          "indexed": false,
          "internalType": "string",
          "name": "symbol",
          "type": "string"
        },
        {
          "indexed": false,
          "internalType": "uint256",
          "name": "cap",
          "type": "uint256"
        },
        {
          "indexed": false,
          "internalType": "address",
          "name": "creator",
          "type": "address"
        }
      ],
      "name": "TokenCreated",
      "type": "event"
    },
    {
      "anonymous": false,
      "inputs": [
        {
          "indexed": true,
          "internalType": "address",
          "name": "from",
          "type": "address"
        },
        {
          "indexed": true,
          "internalType": "address",
          "name": "to",
          "type": "address"
        },
        {
          "indexed": true,
          "internalType": "uint256",
          "name": "tokenId",
          "type": "uint256"
        }
      ],
      "name": "Transfer",
      "type": "event"
    },
    {
      "inputs": [
        {
          "internalType": "address",
          "name": "_templateAddress",
          "type": "address"
        }
      ],
      "name": "add721TokenTemplate",
      "outputs": [
        {
          "internalType": "uint256",
          "name": "",
          "type": "uint256"
        }
      ],
      "stateMutability": "nonpayable",
      "type": "function"
    },
    {
      "inputs": [
        {
          "internalType": "address",
          "name": "_templateAddress",
          "type": "address"
        }
      ],
      "name": "addTokenTemplate",
      "outputs": [
        {
          "internalType": "uint256",
          "name": "",
          "type": "uint256"
        }
      ],
      "stateMutability": "nonpayable",
      "type": "function"
    },
    {
      "inputs": [
        {
          "components": [
            {
              "internalType": "string",
              "name": "name",
              "type": "string"
            },
            {
              "internalType": "string",
              "name": "symbol",
              "type": "string"
            },
            {
              "internalType": "uint256",
              "name": "templateIndex",
              "type": "uint256"
            },
            {
              "internalType": "string",
              "name": "tokenURI",
              "type": "string"
            },
            {
              "internalType": "bool",
              "name": "transferable",
              "type": "bool"
            },
            {
              "internalType": "address",
              "name": "owner",
              "type": "address"
            }
          ],
          "internalType": "struct IFactory.NftCreateData",
          "name": "_NftCreateData",
          "type": "tuple"
        },
        {
          "components": [
            {
              "internalType": "uint256",
              "name": "templateIndex",
              "type": "uint256"
            },
            {
              "internalType": "string[]",
              "name": "strings",
              "type": "string[]"
            },
            {
              "internalType": "address[]",
              "name": "addresses",
              "type": "address[]"
            },
            {
              "internalType": "uint256[]",
              "name": "uints",
              "type": "uint256[]"
            },
            {
              "internalType": "bytes[]",
              "name": "bytess",
              "type": "bytes[]"
            }
          ],
          "internalType": "struct IFactory.ErcCreateData",
          "name": "_ErcCreateData",
          "type": "tuple"
        }
      ],
      "name": "createNftWithErc20",
      "outputs": [
        {
          "internalType": "address",
          "name": "erc721Address",
          "type": "address"
        },
        {
          "internalType": "address",
          "name": "erc20Address",
          "type": "address"
        }
      ],
      "stateMutability": "nonpayable",
      "type": "function"
    },
    {
      "inputs": [
        {
          "components": [
            {
              "internalType": "string",
              "name": "name",
              "type": "string"
            },
            {
              "internalType": "string",
              "name": "symbol",
              "type": "string"
            },
            {
              "internalType": "uint256",
              "name": "templateIndex",
              "type": "uint256"
            },
            {
              "internalType": "string",
              "name": "tokenURI",
              "type": "string"
            },
            {
              "internalType": "bool",
              "name": "transferable",
              "type": "bool"
            },
            {
              "internalType": "address",
              "name": "owner",
              "type": "address"
            }
          ],
          "internalType": "struct IFactory.NftCreateData",
          "name": "_NftCreateData",
          "type": "tuple"
        },
        {
          "components": [
            {
              "internalType": "uint256",
              "name": "templateIndex",
              "type": "uint256"
            },
            {
              "internalType": "string[]",
              "name": "strings",
              "type": "string[]"
            },
            {
              "internalType": "address[]",
              "name": "addresses",
              "type": "address[]"
            },
            {
              "internalType": "uint256[]",
              "name": "uints",
              "type": "uint256[]"
            },
            {
              "internalType": "bytes[]",
              "name": "bytess",
              "type": "bytes[]"
            }
          ],
          "internalType": "struct IFactory.ErcCreateData",
          "name": "_ErcCreateData",
          "type": "tuple"
        },
        {
          "components": [
            {
              "internalType": "address",
              "name": "dispenserAddress",
              "type": "address"
            },
            {
              "internalType": "uint256",
              "name": "maxTokens",
              "type": "uint256"
            },
            {
              "internalType": "uint256",
              "name": "maxBalance",
              "type": "uint256"
            },
            {
              "internalType": "bool",
              "name": "withMint",
              "type": "bool"
            },
            {
              "internalType": "address",
              "name": "allowedSwapper",
              "type": "address"
            }
          ],
          "internalType": "struct IFactory.DispenserData",
          "name": "_DispenserData",
          "type": "tuple"
        }
      ],
      "name": "createNftWithErc20WithDispenser",
      "outputs": [
        {
          "internalType": "address",
          "name": "erc721Address",
          "type": "address"
        },
        {
          "internalType": "address",
          "name": "erc20Address",
          "type": "address"
        }
      ],
      "stateMutability": "nonpayable",
      "type": "function"
    },
    {
      "inputs": [
        {
          "components": [
            {
              "internalType": "string",
              "name": "name",
              "type": "string"
            },
            {
              "internalType": "string",
              "name": "symbol",
              "type": "string"
            },
            {
              "internalType": "uint256",
              "name": "templateIndex",
              "type": "uint256"
            },
            {
              "internalType": "string",
              "name": "tokenURI",
              "type": "string"
            },
            {
              "internalType": "bool",
              "name": "transferable",
              "type": "bool"
            },
            {
              "internalType": "address",
              "name": "owner",
              "type": "address"
            }
          ],
          "internalType": "struct IFactory.NftCreateData",
          "name": "_NftCreateData",
          "type": "tuple"
        },
        {
          "components": [
            {
              "internalType": "uint256",
              "name": "templateIndex",
              "type": "uint256"
            },
            {
              "internalType": "string[]",
              "name": "strings",
              "type": "string[]"
            },
            {
              "internalType": "address[]",
              "name": "addresses",
              "type": "address[]"
            },
            {
              "internalType": "uint256[]",
              "name": "uints",
              "type": "uint256[]"
            },
            {
              "internalType": "bytes[]",
              "name": "bytess",
              "type": "bytes[]"
            }
          ],
          "internalType": "struct IFactory.ErcCreateData",
          "name": "_ErcCreateData",
          "type": "tuple"
        },
        {
          "components": [
            {
              "internalType": "address",
              "name": "fixedPriceAddress",
              "type": "address"
            },
            {
              "internalType": "address[]",
              "name": "addresses",
              "type": "address[]"
            },
            {
              "internalType": "uint256[]",
              "name": "uints",
              "type": "uint256[]"
            }
          ],
          "internalType": "struct IFactory.FixedData",
          "name": "_FixedData",
          "type": "tuple"
        }
      ],
      "name": "createNftWithErc20WithFixedRate",
      "outputs": [
        {
          "internalType": "address",
          "name": "erc721Address",
          "type": "address"
        },
        {
          "internalType": "address",
          "name": "erc20Address",
          "type": "address"
        },
        {
          "internalType": "bytes32",
          "name": "exchangeId",
          "type": "bytes32"
        }
      ],
      "stateMutability": "nonpayable",
      "type": "function"
    },
    {
      "inputs": [
        {
          "components": [
            {
              "internalType": "string",
              "name": "name",
              "type": "string"
            },
            {
              "internalType": "string",
              "name": "symbol",
              "type": "string"
            },
            {
              "internalType": "uint256",
              "name": "templateIndex",
              "type": "uint256"
            },
            {
              "internalType": "string",
              "name": "tokenURI",
              "type": "string"
            },
            {
              "internalType": "bool",
              "name": "transferable",
              "type": "bool"
            },
            {
              "internalType": "address",
              "name": "owner",
              "type": "address"
            }
          ],
          "internalType": "struct IFactory.NftCreateData",
          "name": "_NftCreateData",
          "type": "tuple"
        },
        {
          "components": [
            {
              "internalType": "uint256",
              "name": "templateIndex",
              "type": "uint256"
            },
            {
              "internalType": "string[]",
              "name": "strings",
              "type": "string[]"
            },
            {
              "internalType": "address[]",
              "name": "addresses",
              "type": "address[]"
            },
            {
              "internalType": "uint256[]",
              "name": "uints",
              "type": "uint256[]"
            },
            {
              "internalType": "bytes[]",
              "name": "bytess",
              "type": "bytes[]"
            }
          ],
          "internalType": "struct IFactory.ErcCreateData",
          "name": "_ErcCreateData",
          "type": "tuple"
        },
        {
          "components": [
            {
              "internalType": "uint256[]",
              "name": "ssParams",
              "type": "uint256[]"
            },
            {
              "internalType": "uint256[]",
              "name": "swapFees",
              "type": "uint256[]"
            },
            {
              "internalType": "address[]",
              "name": "addresses",
              "type": "address[]"
            }
          ],
          "internalType": "struct IFactory.PoolData",
          "name": "_PoolData",
          "type": "tuple"
        }
      ],
      "name": "createNftWithErc20WithPool",
      "outputs": [
        {
          "internalType": "address",
          "name": "erc721Address",
          "type": "address"
        },
        {
          "internalType": "address",
          "name": "erc20Address",
          "type": "address"
        },
        {
          "internalType": "address",
          "name": "poolAddress",
          "type": "address"
        }
      ],
      "stateMutability": "nonpayable",
      "type": "function"
    },
    {
      "inputs": [
        {
          "components": [
            {
              "internalType": "string",
              "name": "name",
              "type": "string"
            },
            {
              "internalType": "string",
              "name": "symbol",
              "type": "string"
            },
            {
              "internalType": "uint256",
              "name": "templateIndex",
              "type": "uint256"
            },
            {
              "internalType": "string",
              "name": "tokenURI",
              "type": "string"
            },
            {
              "internalType": "bool",
              "name": "transferable",
              "type": "bool"
            },
            {
              "internalType": "address",
              "name": "owner",
              "type": "address"
            }
          ],
          "internalType": "struct IFactory.NftCreateData",
          "name": "_NftCreateData",
          "type": "tuple"
        },
        {
          "components": [
            {
              "internalType": "uint8",
              "name": "_metaDataState",
              "type": "uint8"
            },
            {
              "internalType": "string",
              "name": "_metaDataDecryptorUrl",
              "type": "string"
            },
            {
              "internalType": "string",
              "name": "_metaDataDecryptorAddress",
              "type": "string"
            },
            {
              "internalType": "bytes",
              "name": "flags",
              "type": "bytes"
            },
            {
              "internalType": "bytes",
              "name": "data",
              "type": "bytes"
            },
            {
              "internalType": "bytes32",
              "name": "_metaDataHash",
              "type": "bytes32"
            },
            {
              "components": [
                {
                  "internalType": "address",
                  "name": "validatorAddress",
                  "type": "address"
                },
                {
                  "internalType": "uint8",
                  "name": "v",
                  "type": "uint8"
                },
                {
                  "internalType": "bytes32",
                  "name": "r",
                  "type": "bytes32"
                },
                {
                  "internalType": "bytes32",
                  "name": "s",
                  "type": "bytes32"
                }
              ],
              "internalType": "struct IERC721Template.metaDataProof[]",
              "name": "_metadataProofs",
              "type": "tuple[]"
            }
          ],
          "internalType": "struct ERC721Factory.MetaData",
          "name": "_MetaData",
          "type": "tuple"
        }
      ],
      "name": "createNftWithMetaData",
      "outputs": [
        {
          "internalType": "address",
          "name": "erc721Address",
          "type": "address"
        }
      ],
      "stateMutability": "nonpayable",
      "type": "function"
    },
    {
      "inputs": [
        {
          "internalType": "uint256",
          "name": "_templateIndex",
          "type": "uint256"
        },
        {
          "internalType": "string[]",
          "name": "strings",
          "type": "string[]"
        },
        {
          "internalType": "address[]",
          "name": "addresses",
          "type": "address[]"
        },
        {
          "internalType": "uint256[]",
          "name": "uints",
          "type": "uint256[]"
        },
        {
          "internalType": "bytes[]",
          "name": "bytess",
          "type": "bytes[]"
        }
      ],
      "name": "createToken",
      "outputs": [
        {
          "internalType": "address",
          "name": "token",
          "type": "address"
        }
      ],
      "stateMutability": "nonpayable",
      "type": "function"
    },
    {
      "inputs": [
        {
          "internalType": "string",
          "name": "name",
          "type": "string"
        },
        {
          "internalType": "string",
          "name": "symbol",
          "type": "string"
        },
        {
          "internalType": "uint256",
          "name": "_templateIndex",
          "type": "uint256"
        },
        {
          "internalType": "address",
          "name": "additionalERC20Deployer",
          "type": "address"
        },
        {
          "internalType": "address",
          "name": "additionalMetaDataUpdater",
          "type": "address"
        },
        {
          "internalType": "string",
          "name": "tokenURI",
          "type": "string"
        },
        {
          "internalType": "bool",
          "name": "transferable",
          "type": "bool"
        },
        {
          "internalType": "address",
          "name": "owner",
          "type": "address"
        }
      ],
      "name": "deployERC721Contract",
      "outputs": [
        {
          "internalType": "address",
          "name": "token",
          "type": "address"
        }
      ],
      "stateMutability": "nonpayable",
      "type": "function"
    },
    {
      "inputs": [
        {
          "internalType": "uint256",
          "name": "_index",
          "type": "uint256"
        }
      ],
      "name": "disable721TokenTemplate",
      "outputs": [],
      "stateMutability": "nonpayable",
      "type": "function"
    },
    {
      "inputs": [
        {
          "internalType": "uint256",
          "name": "_index",
          "type": "uint256"
        }
      ],
      "name": "disableTokenTemplate",
      "outputs": [],
      "stateMutability": "nonpayable",
      "type": "function"
    },
    {
      "inputs": [
        {
          "internalType": "address",
          "name": "",
          "type": "address"
        }
      ],
      "name": "erc20List",
      "outputs": [
        {
          "internalType": "bool",
          "name": "",
          "type": "bool"
        }
      ],
      "stateMutability": "view",
      "type": "function"
    },
    {
      "inputs": [
        {
          "internalType": "address",
          "name": "",
          "type": "address"
        }
      ],
      "name": "erc721List",
      "outputs": [
        {
          "internalType": "address",
          "name": "",
          "type": "address"
        }
      ],
      "stateMutability": "view",
      "type": "function"
    },
    {
      "inputs": [],
      "name": "getCurrentNFTCount",
      "outputs": [
        {
          "internalType": "uint256",
          "name": "",
          "type": "uint256"
        }
      ],
      "stateMutability": "view",
      "type": "function"
    },
    {
      "inputs": [],
      "name": "getCurrentNFTTemplateCount",
      "outputs": [
        {
          "internalType": "uint256",
          "name": "",
          "type": "uint256"
        }
      ],
      "stateMutability": "view",
      "type": "function"
    },
    {
      "inputs": [],
      "name": "getCurrentTemplateCount",
      "outputs": [
        {
          "internalType": "uint256",
          "name": "",
          "type": "uint256"
        }
      ],
      "stateMutability": "view",
      "type": "function"
    },
    {
      "inputs": [],
      "name": "getCurrentTokenCount",
      "outputs": [
        {
          "internalType": "uint256",
          "name": "",
          "type": "uint256"
        }
      ],
      "stateMutability": "view",
      "type": "function"
    },
    {
      "inputs": [
        {
          "internalType": "uint256",
          "name": "_index",
          "type": "uint256"
        }
      ],
      "name": "getNFTTemplate",
      "outputs": [
        {
          "components": [
            {
              "internalType": "address",
              "name": "templateAddress",
              "type": "address"
            },
            {
              "internalType": "bool",
              "name": "isActive",
              "type": "bool"
            }
          ],
          "internalType": "struct ERC721Factory.Template",
          "name": "",
          "type": "tuple"
        }
      ],
      "stateMutability": "view",
      "type": "function"
    },
    {
      "inputs": [
        {
          "internalType": "uint256",
          "name": "_index",
          "type": "uint256"
        }
      ],
      "name": "getTokenTemplate",
      "outputs": [
        {
          "components": [
            {
              "internalType": "address",
              "name": "templateAddress",
              "type": "address"
            },
            {
              "internalType": "bool",
              "name": "isActive",
              "type": "bool"
            }
          ],
          "internalType": "struct ERC721Factory.Template",
          "name": "",
          "type": "tuple"
        }
      ],
      "stateMutability": "view",
      "type": "function"
    },
    {
      "inputs": [
        {
          "internalType": "uint256",
          "name": "",
          "type": "uint256"
        }
      ],
      "name": "nftTemplateList",
      "outputs": [
        {
          "internalType": "address",
          "name": "templateAddress",
          "type": "address"
        },
        {
          "internalType": "bool",
          "name": "isActive",
          "type": "bool"
        }
      ],
      "stateMutability": "view",
      "type": "function"
    },
    {
      "inputs": [],
      "name": "owner",
      "outputs": [
        {
          "internalType": "address",
          "name": "",
          "type": "address"
        }
      ],
      "stateMutability": "view",
      "type": "function"
    },
    {
      "inputs": [
        {
          "internalType": "uint256",
          "name": "_index",
          "type": "uint256"
        }
      ],
      "name": "reactivate721TokenTemplate",
      "outputs": [],
      "stateMutability": "nonpayable",
      "type": "function"
    },
    {
      "inputs": [
        {
          "internalType": "uint256",
          "name": "_index",
          "type": "uint256"
        }
      ],
      "name": "reactivateTokenTemplate",
      "outputs": [],
      "stateMutability": "nonpayable",
      "type": "function"
    },
    {
      "inputs": [],
      "name": "renounceOwnership",
      "outputs": [],
      "stateMutability": "nonpayable",
      "type": "function"
    },
    {
      "inputs": [
        {
          "components": [
            {
              "internalType": "address",
              "name": "tokenAddress",
              "type": "address"
            },
            {
              "internalType": "bytes32",
              "name": "orderTxId",
              "type": "bytes32"
            },
            {
              "components": [
                {
                  "internalType": "address",
                  "name": "providerFeeAddress",
                  "type": "address"
                },
                {
                  "internalType": "address",
                  "name": "providerFeeToken",
                  "type": "address"
                },
                {
                  "internalType": "uint256",
                  "name": "providerFeeAmount",
                  "type": "uint256"
                },
                {
                  "internalType": "uint8",
                  "name": "v",
                  "type": "uint8"
                },
                {
                  "internalType": "bytes32",
                  "name": "r",
                  "type": "bytes32"
                },
                {
                  "internalType": "bytes32",
                  "name": "s",
                  "type": "bytes32"
                },
                {
                  "internalType": "uint256",
                  "name": "validUntil",
                  "type": "uint256"
                },
                {
                  "internalType": "bytes",
                  "name": "providerData",
                  "type": "bytes"
                }
              ],
              "internalType": "struct IERC20Template.providerFee",
              "name": "_providerFee",
              "type": "tuple"
            }
          ],
          "internalType": "struct ERC721Factory.reuseTokenOrder[]",
          "name": "orders",
          "type": "tuple[]"
        }
      ],
      "name": "reuseMultipleTokenOrder",
      "outputs": [],
      "stateMutability": "nonpayable",
      "type": "function"
    },
    {
      "inputs": [],
      "name": "router",
      "outputs": [
        {
          "internalType": "address",
          "name": "",
          "type": "address"
        }
      ],
      "stateMutability": "view",
      "type": "function"
    },
    {
      "inputs": [
        {
          "components": [
            {
              "internalType": "address",
              "name": "tokenAddress",
              "type": "address"
            },
            {
              "internalType": "address",
              "name": "consumer",
              "type": "address"
            },
            {
              "internalType": "uint256",
              "name": "serviceIndex",
              "type": "uint256"
            },
            {
              "components": [
                {
                  "internalType": "address",
                  "name": "providerFeeAddress",
                  "type": "address"
                },
                {
                  "internalType": "address",
                  "name": "providerFeeToken",
                  "type": "address"
                },
                {
                  "internalType": "uint256",
                  "name": "providerFeeAmount",
                  "type": "uint256"
                },
                {
                  "internalType": "uint8",
                  "name": "v",
                  "type": "uint8"
                },
                {
                  "internalType": "bytes32",
                  "name": "r",
                  "type": "bytes32"
                },
                {
                  "internalType": "bytes32",
                  "name": "s",
                  "type": "bytes32"
                },
                {
                  "internalType": "uint256",
                  "name": "validUntil",
                  "type": "uint256"
                },
                {
                  "internalType": "bytes",
                  "name": "providerData",
                  "type": "bytes"
                }
              ],
              "internalType": "struct IERC20Template.providerFee",
              "name": "_providerFee",
              "type": "tuple"
            },
            {
              "components": [
                {
                  "internalType": "address",
                  "name": "consumeMarketFeeAddress",
                  "type": "address"
                },
                {
                  "internalType": "address",
                  "name": "consumeMarketFeeToken",
                  "type": "address"
                },
                {
                  "internalType": "uint256",
                  "name": "consumeMarketFeeAmount",
                  "type": "uint256"
                }
              ],
              "internalType": "struct IERC20Template.consumeMarketFee",
              "name": "_consumeMarketFee",
              "type": "tuple"
            }
          ],
          "internalType": "struct ERC721Factory.tokenOrder[]",
          "name": "orders",
          "type": "tuple[]"
        }
      ],
      "name": "startMultipleTokenOrder",
      "outputs": [],
      "stateMutability": "nonpayable",
      "type": "function"
    },
    {
      "inputs": [],
      "name": "templateCount",
      "outputs": [
        {
          "internalType": "uint256",
          "name": "",
          "type": "uint256"
        }
      ],
      "stateMutability": "view",
      "type": "function"
    },
    {
      "inputs": [
        {
          "internalType": "uint256",
          "name": "",
          "type": "uint256"
        }
      ],
      "name": "templateList",
      "outputs": [
        {
          "internalType": "address",
          "name": "templateAddress",
          "type": "address"
        },
        {
          "internalType": "bool",
          "name": "isActive",
          "type": "bool"
        }
      ],
      "stateMutability": "view",
      "type": "function"
    },
    {
      "inputs": [
        {
          "internalType": "address",
          "name": "newOwner",
          "type": "address"
        }
      ],
      "name": "transferOwnership",
      "outputs": [],
      "stateMutability": "nonpayable",
      "type": "function"
    }
  ],
  "bytecode": "0x608060405260006009553480156200001657600080fd5b5060405162004835380380620048358339810160408190526200003991620004f5565b62000044336200012a565b600180556001600160a01b038216158015906200006957506001600160a01b03811615155b80156200007e57506001600160a01b03831615155b620000e95760405162461bcd60e51b815260206004820152603060248201527f4552433732314454466163746f72793a20496e76616c69642074656d706c617460448201526f652f726f75746572206164647265737360801b60648201526084015b60405180910390fd5b620000f4836200017a565b506200010082620002fd565b50600b80546001600160a01b0319166001600160a01b039290921691909117905550620005669050565b600080546001600160a01b038381166001600160a01b0319831681178455604051919092169283917f8be0079c531659141344cd1fd0a4f28419497f9722a3daafe3b4186f6b6457e09190a35050565b6000620001866200047f565b6001600160a01b038216620002045760405162461bcd60e51b815260206004820152603760248201527f4552433732314454466163746f72793a204552433732312074656d706c61746560448201527f2061646472657373283029204e4f5420414c4c4f5745440000000000000000006064820152608401620000e0565b813b620002545760405162461bcd60e51b815260206004820152601b60248201527f455243373231466163746f72793a204e4f5420434f4e545241435400000000006044820152606401620000e0565b6001600460008282546200026991906200053f565b90915550506040805180820182526001600160a01b038085168083526001602080850191825260048054600090815260059092528682208651815494511515600160a01b026001600160a81b03199095169616959095179290921790935554935192939290917fc0167b92c8eb4a2bad2c05e0134f076fba5d3cd54671a3e8edf13d2e61443bd991a350506004545b919050565b6000620003096200047f565b6001600160a01b038216620003875760405162461bcd60e51b815260206004820152603460248201527f4552433230466163746f72793a204552433732312074656d706c61746520616460448201527f6472657373283029204e4f5420414c4c4f5745440000000000000000000000006064820152608401620000e0565b813b620003d75760405162461bcd60e51b815260206004820152601a60248201527f4552433230466163746f72793a204e4f5420434f4e54524143540000000000006044820152606401620000e0565b6001600a6000828254620003ec91906200053f565b90915550506040805180820182526001600160a01b0380851680835260016020808501918252600a8054600090815260069092528682208651815494511515600160a01b026001600160a81b03199095169616959095179290921790935554935192939290917fdcd16da87b60cea6dbd55a83f73b8a4bf9a54655db58ae0f35b82a2373fc150d91a35050600a54919050565b6000546001600160a01b03163314620004db5760405162461bcd60e51b815260206004820181905260248201527f4f776e61626c653a2063616c6c6572206973206e6f7420746865206f776e65726044820152606401620000e0565b565b80516001600160a01b0381168114620002f857600080fd5b6000806000606084860312156200050b57600080fd5b6200051684620004dd565b92506200052660208501620004dd565b91506200053660408501620004dd565b90509250925092565b600082198211156200056157634e487b7160e01b600052601160045260246000fd5b500190565b6142bf80620005766000396000f3fe608060405234801561001057600080fd5b50600436106101da5760003560e01c806382c4420411610104578063aa897ddc116100a2578063e5fc01f011610071578063e5fc01f01461053b578063f2fde38b14610543578063f86b2bcf14610556578063f887ea401461056957600080fd5b8063aa897ddc146104b4578063bbf8d71f146104e7578063c6cf868a146104fa578063d282aa861461050257600080fd5b806394051699116100de578063940516991461045157806394be0e881461048657806395c6030514610499578063a33ef2a6146104a157600080fd5b806382c44204146103d95780638da5cb5b1461042d5780638f6051af1461043e57600080fd5b80633315efd11161017c578063715018a61161014b578063715018a61461038257806372f670f01461038a5780637b20bccf146103b3578063809d8105146103c657600080fd5b80633315efd1146102cd57806350447fd51461032a578063557fcfb0146103675780635c7059821461037a57600080fd5b80632515422e116101b85780632515422e1461026557806326705c3c1461027857806326f200661461028f5780633147c798146102ba57600080fd5b8063042ab9b3146101df5780630ffda8871461021d578063226e761514610232575b600080fd5b6101f26101ed366004612e57565b61057c565b6040805182516001600160a01b03168152602092830151151592810192909252015b60405180910390f35b61023061022b366004612e57565b610603565b005b610255610240366004612e90565b60086020526000908152604090205460ff1681565b6040519015158152602001610214565b6102306102733660046130a6565b610626565b610281600a5481565b604051908152602001610214565b6102a261029d3660046131c4565b6108f3565b6040516001600160a01b039091168152602001610214565b6102a26102c8366004613247565b610b2b565b6101f26102db366004612e57565b6040805180820190915260008082526020820152506000908152600560209081526040918290208251808401909352546001600160a01b0381168352600160a01b900460ff1615159082015290565b61033d61033836600461333f565b610ea4565b604080516001600160a01b0394851681529284166020840152921691810191909152606001610214565b6102a261037536600461350f565b61124b565b600254610281565b6102306112ec565b6102a2610398366004612e90565b6007602052600090815260409020546001600160a01b031681565b6102816103c1366004612e90565b611300565b6102306103d4366004612e57565b611472565b61040e6103e7366004612e57565b6005602052600090815260409020546001600160a01b03811690600160a01b900460ff1682565b604080516001600160a01b039093168352901515602083015201610214565b6000546001600160a01b03166102a2565b61028161044c366004612e90565b6114c2565b61040e61045f366004612e57565b6006602052600090815260409020546001600160a01b03811690600160a01b900460ff1682565b610230610494366004613637565b61163c565b600a54610281565b6102306104af366004612e57565b611be1565b6104c76104c2366004613789565b611c37565b604080516001600160a01b03938416815292909116602083015201610214565b6102306104f5366004612e57565b611f24565b600954610281565b61051561051036600461333f565b611fbe565b604080516001600160a01b03948516815293909216602084015290820152606001610214565b600454610281565b610230610551366004612e90565b612141565b6104c76105643660046137fd565b6121ba565b600b546102a2906001600160a01b031681565b60408051808201909152600080825260208201526000828152600660209081526040918290208251808401909352546001600160a01b0381168352600160a01b900460ff16151590820152600a5483118015906105d857508215155b6105fd5760405162461bcd60e51b81526004016105f490613860565b60405180910390fd5b92915050565b61060b6123e9565b6000908152600660205260409020805460ff60a01b19169055565b600260015414156106495760405162461bcd60e51b81526004016105f4906138a9565b60026001558051603210156106a05760405162461bcd60e51b815260206004820152601e60248201527f455243373231466163746f72793a20546f6f204d616e79204f7264657273000060448201526064016105f4565b60005b81518110156108eb5760008282815181106106c0576106c06138e0565b60200260200101516040015160400151118015610711575060006001600160a01b03168282815181106106f5576106f56138e0565b602002602001015160400151602001516001600160a01b031614155b8015610751575060006001600160a01b0316828281518110610735576107356138e0565b602002602001015160400151600001516001600160a01b031614155b15610821576107a482828151811061076b5761076b6138e0565b60200260200101516040015160200151333085858151811061078f5761078f6138e0565b60200260200101516040015160400151612443565b6108218282815181106107b9576107b96138e0565b6020026020010151600001518383815181106107d7576107d76138e0565b602002602001015160400151604001518484815181106107f9576107f96138e0565b602002602001015160400151602001516001600160a01b03166125919092919063ffffffff16565b818181518110610833576108336138e0565b6020026020010151600001516001600160a01b031663361fef4983838151811061085f5761085f6138e0565b60200260200101516020015184848151811061087d5761087d6138e0565b6020026020010151604001516040518363ffffffff1660e01b81526004016108a69291906139c2565b600060405180830381600087803b1580156108c057600080fd5b505af11580156108d4573d6000803e3d6000fd5b5050505080806108e3906139f1565b9150506106a3565b505060018055565b6000600260015414156109185760405162461bcd60e51b81526004016105f4906138a9565b6002600155610a0a61092a8480613a0c565b8080601f01602080910402602001604051908101604052809392919081815260200183838082843760009201919091525061096c925050506020860186613a0c565b8080601f016020809104026020016040519081016040528093929190818152602001838380828437600092018290525060408a0135935091503090506109b560608a018a613a0c565b8080601f0160208091040260200160405190810160405280939291908181526020018383808284376000920191909152506109fa9250505060a08b0160808c01613a59565b6102c860c08c0160a08d01612e90565b90506001600160a01b038116631aa3adf9610a286020850185613a76565b610a356020860186613a0c565b610a426040880188613a0c565b610a4f60608a018a613a0c565b610a5c60808c018c613a0c565b60a08d0135610a6e60c08f018f613a91565b6040518d63ffffffff1660e01b8152600401610a959c9b9a99989796959493929190613b03565b600060405180830381600087803b158015610aaf57600080fd5b505af1158015610ac3573d6000803e3d6000fd5b50506040516310c414eb60e21b81523060048201526001600160a01b038416925063431053ac9150602401600060405180830381600087803b158015610b0857600080fd5b505af1158015610b1c573d6000803e3d6000fd5b50506001805550909392505050565b60006004548711158015610b3e57508615155b610b5a5760405162461bcd60e51b81526004016105f490613be7565b6000878152600560209081526040918290208251808401909352546001600160a01b0381168352600160a01b900460ff161515908201819052610bf65760405162461bcd60e51b815260206004820152602e60248201527f4552433732314454466163746f72793a20455243373231546f6b656e2054656d60448201526d1c1b185d1948191a5cd8589b195960921b60648201526084016105f4565b6001600160a01b038316610c605760405162461bcd60e51b815260206004820152602b60248201527f4552433732314454466163746f72793a20616464726573732830292063616e6e60448201526a37ba1031329037bbb732b960a91b60648201526084016105f4565b8051610c6b9061267c565b91506001600160a01b038216610ceb576040805162461bcd60e51b81526020600482015260248101919091527f4552433732314454466163746f72793a204661696c656420746f20706572666f60448201527f726d206d696e696d616c206465706c6f79206f662061206e657720746f6b656e60648201526084016105f4565b8160076000846001600160a01b03166001600160a01b0316815260200190815260200160002060006101000a8154816001600160a01b0302191690836001600160a01b03160217905550336001600160a01b0316836001600160a01b031682600001516001600160a01b03167f8125264ec1d174cb383ea0646ea1e6921ca3b0aba20370c8e18389e7c2d6a571858e8e8b8b604051610d8e959493929190613c33565b60405180910390a4600160026000828254610da99190613c92565b9091555050604051630343aa3d60e31b815282906001600160a01b03821690631a1d51e890610dea9087908f908f9030908f908f908f908f90600401613caa565b6020604051808303816000875af1158015610e09573d6000803e3d6000fd5b505050506040513d601f19601f82011682018060405250810190610e2d9190613d28565b610e965760405162461bcd60e51b815260206004820152603460248201527f4552433732314454466163746f72793a20556e61626c6520746f20696e697469604482015273616c697a6520746f6b656e20696e7374616e636560601b60648201526084016105f4565b505098975050505050505050565b600080600060026001541415610ecc5760405162461bcd60e51b81526004016105f4906138a9565b6002600155610f30610ee16040860186613d45565b6001818110610ef257610ef26138e0565b9050602002016020810190610f079190612e90565b3330610f138880613d45565b6004818110610f2457610f246138e0565b90506020020135612443565b611020610f3d8780613a0c565b8080601f016020809104026020016040519081016040528093929190818152602001838380828437600092019190915250610f7f925050506020890189613a0c565b8080601f016020809104026020016040519081016040528093929190818152602001838380828437600092018290525060408d013593503092509050610fc860608d018d613a0c565b8080601f01602080910402602001604051908101604052809392919081815260200183838082843760009201919091525061100d9250505060a08e0160808f01613a59565b8d60a00160208101906102c89190612e90565b92506001600160a01b03831663e38d7cad86356110406020890189613d45565b61104d60408b018b613d45565b61105a60608d018d613d45565b61106760808f018f613d45565b6040518a63ffffffff1660e01b815260040161108b99989796959493929190613eaf565b6020604051808303816000875af11580156110aa573d6000803e3d6000fd5b505050506040513d601f19601f820116820180604052508101906110ce9190613f60565b600b54909250611149906001600160a01b03166110eb8680613d45565b60048181106110fc576110fc6138e0565b905060200201358680604001906111139190613d45565b6001818110611124576111246138e0565b90506020020160208101906111399190612e90565b6001600160a01b03169190612591565b6001600160a01b038216635bfe4da06111628680613d45565b61116f6020890189613d45565b61117c60408b018b613d45565b6040518763ffffffff1660e01b815260040161119d96959493929190613f7d565b6020604051808303816000875af11580156111bc573d6000803e3d6000fd5b505050506040513d601f19601f820116820180604052508101906111e09190613f60565b6040516301fc3d9160e71b81523060048201529091506001600160a01b0384169063fe1ec88090602401600060405180830381600087803b15801561122457600080fd5b505af1158015611238573d6000803e3d6000fd5b5050600180555092969195509350915050565b3360008181526007602052604081205490916001600160a01b03909116146112d45760405162461bcd60e51b815260206004820152603660248201527f455243373231466163746f72793a204f4e4c592045524337323120494e5354416044820152754e43452046524f4d20455243373231464143544f525960501b60648201526084016105f4565b6112e286868686863361270c565b9695505050505050565b6112f46123e9565b6112fe60006129f1565b565b600061130a6123e9565b6001600160a01b03821661137d5760405162461bcd60e51b815260206004820152603460248201527f4552433230466163746f72793a204552433732312074656d706c617465206164604482015273191c995cdcca0c0a481393d50810531313d5d15160621b60648201526084016105f4565b813b6113cb5760405162461bcd60e51b815260206004820152601a60248201527f4552433230466163746f72793a204e4f5420434f4e545241435400000000000060448201526064016105f4565b6001600a60008282546113de9190613c92565b90915550506040805180820182526001600160a01b0380851680835260016020808501918252600a8054600090815260069092528682208651815494511515600160a01b026001600160a81b03199095169616959095179290921790935554935192939290917fdcd16da87b60cea6dbd55a83f73b8a4bf9a54655db58ae0f35b82a2373fc150d91a35050600a545b919050565b61147a6123e9565b600454811115801561148b57508015155b6114a75760405162461bcd60e51b81526004016105f490613be7565b6000908152600560205260409020805460ff60a01b19169055565b60006114cc6123e9565b6001600160a01b0382166115485760405162461bcd60e51b815260206004820152603760248201527f4552433732314454466163746f72793a204552433732312074656d706c61746560448201527f2061646472657373283029204e4f5420414c4c4f57454400000000000000000060648201526084016105f4565b813b6115965760405162461bcd60e51b815260206004820152601b60248201527f455243373231466163746f72793a204e4f5420434f4e5452414354000000000060448201526064016105f4565b6001600460008282546115a99190613c92565b90915550506040805180820182526001600160a01b038085168083526001602080850191825260048054600090815260059092528682208651815494511515600160a01b026001600160a81b03199095169616959095179290921790935554935192939290917fc0167b92c8eb4a2bad2c05e0134f076fba5d3cd54671a3e8edf13d2e61443bd991a35050600454919050565b6002600154141561165f5760405162461bcd60e51b81526004016105f4906138a9565b60026001558051603210156116b65760405162461bcd60e51b815260206004820152601e60248201527f455243373231466163746f72793a20546f6f204d616e79204f7264657273000060448201526064016105f4565b60005b81518110156108eb5760008060008484815181106116d9576116d96138e0565b6020026020010151600001516001600160a01b031663397b37436040518163ffffffff1660e01b8152600401606060405180830381865afa158015611722573d6000803e3d6000fd5b505050506040513d601f19601f820116820180604052508101906117469190613fc6565b92509250925060008111801561176457506001600160a01b03821615155b801561177857506001600160a01b03831615155b156117bb5761178982333084612443565b6117bb85858151811061179e5761179e6138e0565b6020908102919091010151516001600160a01b0384169083612591565b60008585815181106117cf576117cf6138e0565b60200260200101516080015160400151118015611820575060006001600160a01b0316858581518110611804576118046138e0565b602002602001015160800151600001516001600160a01b031614155b8015611860575060006001600160a01b0316858581518110611844576118446138e0565b602002602001015160800151602001516001600160a01b031614155b15611930576118b385858151811061187a5761187a6138e0565b60200260200101516080015160200151333088888151811061189e5761189e6138e0565b60200260200101516080015160400151612443565b6119308585815181106118c8576118c86138e0565b6020026020010151600001518686815181106118e6576118e66138e0565b60200260200101516080015160400151878781518110611908576119086138e0565b602002602001015160800151602001516001600160a01b03166125919092919063ffffffff16565b6000858581518110611944576119446138e0565b60200260200101516060015160400151118015611995575060006001600160a01b0316858581518110611979576119796138e0565b602002602001015160600151602001516001600160a01b031614155b80156119d5575060006001600160a01b03168585815181106119b9576119b96138e0565b602002602001015160600151600001516001600160a01b031614155b15611aa557611a288585815181106119ef576119ef6138e0565b602002602001015160600151602001513330888881518110611a1357611a136138e0565b60200260200101516060015160400151612443565b611aa5858581518110611a3d57611a3d6138e0565b602002602001015160000151868681518110611a5b57611a5b6138e0565b60200260200101516060015160400151878781518110611a7d57611a7d6138e0565b602002602001015160600151602001516001600160a01b03166125919092919063ffffffff16565b611ad6858581518110611aba57611aba6138e0565b6020026020010151600001513330670de0b6b3a7640000612443565b848481518110611ae857611ae86138e0565b6020026020010151600001516001600160a01b03166379d9d7f3868681518110611b1457611b146138e0565b602002602001015160200151878781518110611b3257611b326138e0565b602002602001015160400151888881518110611b5057611b506138e0565b602002602001015160600151898981518110611b6e57611b6e6138e0565b6020026020010151608001516040518563ffffffff1660e01b8152600401611b999493929190614009565b600060405180830381600087803b158015611bb357600080fd5b505af1158015611bc7573d6000803e3d6000fd5b505050505050508080611bd9906139f1565b9150506116b9565b611be96123e9565b6004548111158015611bfa57508015155b611c165760405162461bcd60e51b81526004016105f490613be7565b6000908152600560205260409020805460ff60a01b1916600160a01b179055565b60008060026001541415611c5d5760405162461bcd60e51b81526004016105f4906138a9565b6002600155611d4f611c6f8680613a0c565b8080601f016020809104026020016040519081016040528093929190818152602001838380828437600092019190915250611cb1925050506020880188613a0c565b8080601f016020809104026020016040519081016040528093929190818152602001838380828437600092018290525060408c013593503092509050611cfa60608c018c613a0c565b8080601f016020809104026020016040519081016040528093929190818152602001838380828437600092019190915250611d3f9250505060a08d0160808e01613a59565b6102c860c08e0160a08f01612e90565b91506001600160a01b03821663e38d7cad8535611d6f6020880188613d45565b611d7c60408a018a613d45565b611d8960608c018c613d45565b611d9660808e018e613d45565b6040518a63ffffffff1660e01b8152600401611dba99989796959493929190613eaf565b6020604051808303816000875af1158015611dd9573d6000803e3d6000fd5b505050506040513d601f19601f82011682018060405250810190611dfd9190613f60565b90506001600160a01b03811663191c918a611e1b6020860186612e90565b60208601356040870135611e356080890160608a01613a59565b611e4560a08a0160808b01612e90565b60405160e087901b6001600160e01b03191681526001600160a01b0395861660048201526024810194909452604484019290925215156064830152909116608482015260a401600060405180830381600087803b158015611ea557600080fd5b505af1158015611eb9573d6000803e3d6000fd5b50506040516301fc3d9160e71b81523060048201526001600160a01b038516925063fe1ec8809150602401600060405180830381600087803b158015611efe57600080fd5b505af1158015611f12573d6000803e3d6000fd5b50506001805550919590945092505050565b611f2c6123e9565b600a548111158015611f3d57508015155b611f9d5760405162461bcd60e51b815260206004820152602b60248201527f45524332304454466163746f72793a2054656d706c61746520696e646578206460448201526a1bd95cdb9d08195e1a5cdd60aa1b60648201526084016105f4565b6000908152600660205260409020805460ff60a01b1916600160a01b179055565b600080600060026001541415611fe65760405162461bcd60e51b81526004016105f4906138a9565b6002600155611ff8610f3d8780613a0c565b92506001600160a01b03831663e38d7cad86356120186020890189613d45565b61202560408b018b613d45565b61203260608d018d613d45565b61203f60808f018f613d45565b6040518a63ffffffff1660e01b815260040161206399989796959493929190613eaf565b6020604051808303816000875af1158015612082573d6000803e3d6000fd5b505050506040513d601f19601f820116820180604052508101906120a69190613f60565b91506001600160a01b038216638b96412b6120c46020870187612e90565b6120d16020880188613d45565b6120de60408a018a613d45565b6040518663ffffffff1660e01b81526004016120fe95949392919061405c565b6020604051808303816000875af115801561211d573d6000803e3d6000fd5b505050506040513d601f19601f820116820180604052508101906111e091906140a0565b6121496123e9565b6001600160a01b0381166121ae5760405162461bcd60e51b815260206004820152602660248201527f4f776e61626c653a206e6577206f776e657220697320746865207a65726f206160448201526564647265737360d01b60648201526084016105f4565b6121b7816129f1565b50565b600080600260015414156121e05760405162461bcd60e51b81526004016105f4906138a9565b60026001556122d26121f28580613a0c565b8080601f016020809104026020016040519081016040528093929190818152602001838380828437600092019190915250612234925050506020870187613a0c565b8080601f016020809104026020016040519081016040528093929190818152602001838380828437600092018290525060408b01359350309250905061227d60608b018b613a0c565b8080601f0160208091040260200160405190810160405280939291908181526020018383808284376000920191909152506122c29250505060a08c0160808d01613a59565b6102c860c08d0160a08e01612e90565b91506001600160a01b03821663e38d7cad84356122f26020870187613d45565b6122ff6040890189613d45565b61230c60608b018b613d45565b61231960808d018d613d45565b6040518a63ffffffff1660e01b815260040161233d99989796959493929190613eaf565b6020604051808303816000875af115801561235c573d6000803e3d6000fd5b505050506040513d601f19601f820116820180604052508101906123809190613f60565b6040516301fc3d9160e71b81523060048201529091506001600160a01b0383169063fe1ec88090602401600060405180830381600087803b1580156123c457600080fd5b505af11580156123d8573d6000803e3d6000fd5b505060018055509194909350915050565b6000546001600160a01b031633146112fe5760405162461bcd60e51b815260206004820181905260248201527f4f776e61626c653a2063616c6c6572206973206e6f7420746865206f776e657260448201526064016105f4565b6040516370a0823160e01b81526001600160a01b038381166004830152600091908616906370a0823190602401602060405180830381865afa15801561248d573d6000803e3d6000fd5b505050506040513d601f19601f820116820180604052508101906124b191906140a0565b90506124c86001600160a01b038616858585612a41565b6124d28183612a79565b6040516370a0823160e01b81526001600160a01b0385811660048301528716906370a0823190602401602060405180830381865afa158015612518573d6000803e3d6000fd5b505050506040513d601f19601f8201168201806040525081019061253c91906140a0565b101561258a5760405162461bcd60e51b815260206004820152601a60248201527f5472616e7366657220616d6f756e7420697320746f6f206c6f7700000000000060448201526064016105f4565b5050505050565b604051636eb1769f60e11b81523060048201526001600160a01b038381166024830152600091839186169063dd62ed3e90604401602060405180830381865afa1580156125e2573d6000803e3d6000fd5b505050506040513d601f19601f8201168201806040525081019061260691906140a0565b6126109190613c92565b6040516001600160a01b03851660248201526044810182905290915061267690859063095ea7b360e01b906064015b60408051601f198184030181529190526020810180516001600160e01b03166001600160e01b031990931692909217909152612a8c565b50505050565b6000808260601b9050604051733d602d80600a3d3981f3363d3d373d3d3d363d7360601b81528160148201526e5af43d82803e903d91602b57fd5bf360881b60288201526037816000f06040516001600160a01b03821681529093507f117c72e6c25f0a072e36e148df71468ce2f3dbe7defec5b2c257a6e3eb65278c915060200160405180910390a150919050565b600083600081518110612721576127216138e0565b6020026020010151600014156127875760405162461bcd60e51b815260206004820152602560248201527f4552433230466163746f72793a207a65726f20636170206973206e6f7420616c6044820152641b1bddd95960da1b60648201526084016105f4565b600a54871115801561279857508615155b6127b45760405162461bcd60e51b81526004016105f490613860565b6000878152600660209081526040918290208251808401909352546001600160a01b0381168352600160a01b900460ff16151590820181905261284d5760405162461bcd60e51b815260206004820152602b60248201527f4552433230466163746f72793a20455243373231546f6b656e2054656d706c6160448201526a1d1948191a5cd8589b195960aa1b60648201526084016105f4565b80516128589061267c565b6001600160a01b0381166000818152600860205260409020805460ff191660011790559092506128f05760405162461bcd60e51b815260206004820152603e60248201527f455243373231466163746f72793a204661696c656420746f20706572666f726d60448201527f206d696e696d616c206465706c6f79206f662061206e657720746f6b656e000060648201526084016105f4565b80600001516001600160a01b0316826001600160a01b03167f567699dbf7c5f63a51a42fd451f5e065bca0dfc723adf2cc498bbb7cfb780b908960008151811061293c5761293c6138e0565b60200260200101518a600181518110612957576129576138e0565b602002602001015189600081518110612972576129726138e0565b60200260200101518860405161298b94939291906140b9565b60405180910390a36001600960008282546129a69190613c92565b90915550506040805160a08101825288815260208101889052908101869052606081018590526001600160a01b03841660808201526129e58382612b63565b50509695505050505050565b600080546001600160a01b038381166001600160a01b0319831681178455604051919092169283917f8be0079c531659141344cd1fd0a4f28419497f9722a3daafe3b4186f6b6457e09190a35050565b6040516001600160a01b03808516602483015283166044820152606481018290526126769085906323b872dd60e01b9060840161263f565b6000612a858284613c92565b9392505050565b6000612ae1826040518060400160405280602081526020017f5361666545524332303a206c6f772d6c6576656c2063616c6c206661696c6564815250856001600160a01b0316612cdf9092919063ffffffff16565b805190915015612b5e5780806020019051810190612aff9190613d28565b612b5e5760405162461bcd60e51b815260206004820152602a60248201527f5361666545524332303a204552433230206f7065726174696f6e20646964206e6044820152691bdd081cdd58d8d9595960b21b60648201526084016105f4565b505050565b6040805160038082526080820190925283916000919060208201606080368337019050509050826080015181600081518110612ba157612ba16138e0565b6001600160a01b039283166020918202929092010152600b54825191169082906001908110612bd257612bd26138e0565b60200260200101906001600160a01b031690816001600160a01b031681525050816001600160a01b031663b3998be08460000151856020015184876040015188606001516040518663ffffffff1660e01b8152600401612c369594939291906141b1565b6020604051808303816000875af1158015612c55573d6000803e3d6000fd5b505050506040513d601f19601f82011682018060405250810190612c799190613d28565b6126765760405162461bcd60e51b815260206004820152603160248201527f4552433230466163746f72793a20556e61626c6520746f20696e697469616c696044820152707a6520746f6b656e20696e7374616e636560781b60648201526084016105f4565b6060612cee8484600085612cf6565b949350505050565b606082471015612d575760405162461bcd60e51b815260206004820152602660248201527f416464726573733a20696e73756666696369656e742062616c616e636520666f6044820152651c8818d85b1b60d21b60648201526084016105f4565b843b612da55760405162461bcd60e51b815260206004820152601d60248201527f416464726573733a2063616c6c20746f206e6f6e2d636f6e747261637400000060448201526064016105f4565b600080866001600160a01b03168587604051612dc1919061425a565b60006040518083038185875af1925050503d8060008114612dfe576040519150601f19603f3d011682016040523d82523d6000602084013e612e03565b606091505b5091509150612e13828286612e1e565b979650505050505050565b60608315612e2d575081612a85565b825115612e3d5782518084602001fd5b8160405162461bcd60e51b81526004016105f49190614276565b600060208284031215612e6957600080fd5b5035919050565b6001600160a01b03811681146121b757600080fd5b803561146d81612e70565b600060208284031215612ea257600080fd5b8135612a8581612e70565b634e487b7160e01b600052604160045260246000fd5b60405161010081016001600160401b0381118282101715612ee657612ee6612ead565b60405290565b604051606081016001600160401b0381118282101715612ee657612ee6612ead565b60405160a081016001600160401b0381118282101715612ee657612ee6612ead565b604051601f8201601f191681016001600160401b0381118282101715612f5857612f58612ead565b604052919050565b60006001600160401b03821115612f7957612f79612ead565b5060051b60200190565b803560ff8116811461146d57600080fd5b600082601f830112612fa557600080fd5b81356001600160401b03811115612fbe57612fbe612ead565b612fd1601f8201601f1916602001612f30565b818152846020838601011115612fe657600080fd5b816020850160208301376000918101602001919091529392505050565b6000610100828403121561301657600080fd5b61301e612ec3565b905061302982612e85565b815261303760208301612e85565b60208201526040820135604082015261305260608301612f83565b60608201526080820135608082015260a082013560a082015260c082013560c082015260e08201356001600160401b0381111561308e57600080fd5b61309a84828501612f94565b60e08301525092915050565b600060208083850312156130b957600080fd5b82356001600160401b03808211156130d057600080fd5b818501915085601f8301126130e457600080fd5b81356130f76130f282612f60565b612f30565b81815260059190911b8301840190848101908883111561311657600080fd5b8585015b8381101561319f578035858111156131325760008081fd5b86016060818c03601f190181131561314a5760008081fd5b613152612eec565b8983013561315f81612e70565b81526040838101358b83015291830135918883111561317e5760008081fd5b61318c8e8c85870101613003565b908201528552505091860191860161311a565b5098975050505050505050565b600060c082840312156131be57600080fd5b50919050565b600080604083850312156131d757600080fd5b82356001600160401b03808211156131ee57600080fd5b6131fa868387016131ac565b9350602085013591508082111561321057600080fd5b50830160e0818603121561322357600080fd5b809150509250929050565b80151581146121b757600080fd5b803561146d8161322e565b600080600080600080600080610100898b03121561326457600080fd5b88356001600160401b038082111561327b57600080fd5b6132878c838d01612f94565b995060208b013591508082111561329d57600080fd5b6132a98c838d01612f94565b985060408b013597506132be60608c01612e85565b96506132cc60808c01612e85565b955060a08b01359150808211156132e257600080fd5b506132ef8b828c01612f94565b9350506132fe60c08a0161323c565b915061330c60e08a01612e85565b90509295985092959890939650565b600060a082840312156131be57600080fd5b6000606082840312156131be57600080fd5b60008060006060848603121561335457600080fd5b83356001600160401b038082111561336b57600080fd5b613377878388016131ac565b9450602086013591508082111561338d57600080fd5b6133998783880161331b565b935060408601359150808211156133af57600080fd5b506133bc8682870161332d565b9150509250925092565b600082601f8301126133d757600080fd5b813560206133e76130f283612f60565b82815260059290921b8401810191818101908684111561340657600080fd5b8286015b8481101561342a57803561341d81612e70565b835291830191830161340a565b509695505050505050565b600082601f83011261344657600080fd5b813560206134566130f283612f60565b82815260059290921b8401810191818101908684111561347557600080fd5b8286015b8481101561342a5780358352918301918301613479565b600082601f8301126134a157600080fd5b813560206134b16130f283612f60565b82815260059290921b840181019181810190868411156134d057600080fd5b8286015b8481101561342a5780356001600160401b038111156134f35760008081fd5b6135018986838b0101612f94565b8452509183019183016134d4565b600080600080600060a0868803121561352757600080fd5b853594506020808701356001600160401b038082111561354657600080fd5b818901915089601f83011261355a57600080fd5b81356135686130f282612f60565b81815260059190911b8301840190848101908c83111561358757600080fd5b8585015b838110156135bf578035858111156135a35760008081fd5b6135b18f89838a0101612f94565b84525091860191860161358b565b509850505060408901359250808311156135d857600080fd5b6135e48a848b016133c6565b955060608901359250808311156135fa57600080fd5b6136068a848b01613435565b9450608089013592508083111561361c57600080fd5b505061362a88828901613490565b9150509295509295909350565b6000602080838503121561364a57600080fd5b82356001600160401b038082111561366157600080fd5b818501915085601f83011261367557600080fd5b81356136836130f282612f60565b81815260059190911b830184019084810190888311156136a257600080fd5b8585015b8381101561319f578035858111156136bd57600080fd5b8601808b0360e0601f19820112156136d457600080fd5b6136dc612f0e565b898301356136e981612e70565b815260408301356136f981612e70565b818b0152606083810135604083015260808401358981111561371a57600080fd5b6137288f8d83880101613003565b828401525080609f198401121561373e57600080fd5b50613747612eec565b915060a083013561375781612e70565b825260c083013561376781612e70565b828b015260e092909201356040820152608082015283529186019186016136a6565b600080600060e0848603121561379e57600080fd5b83356001600160401b03808211156137b557600080fd5b6137c1878388016131ac565b945060208601359150808211156137d757600080fd5b506137e48682870161331b565b9250506137f4856040860161331b565b90509250925092565b6000806040838503121561381057600080fd5b82356001600160401b038082111561382757600080fd5b613833868387016131ac565b9350602085013591508082111561384957600080fd5b506138568582860161331b565b9150509250929050565b60208082526029908201527f4552433230466163746f72793a2054656d706c61746520696e64657820646f656040820152681cdb9d08195e1a5cdd60ba1b606082015260800190565b6020808252601f908201527f5265656e7472616e637947756172643a207265656e7472616e742063616c6c00604082015260600190565b634e487b7160e01b600052603260045260246000fd5b60005b838110156139115781810151838201526020016138f9565b838111156126765750506000910152565b6000815180845261393a8160208601602086016138f6565b601f01601f19169290920160200192915050565b600061010060018060a01b03808451168552806020850151166020860152506040830151604085015260ff60608401511660608501526080830151608085015260a083015160a085015260c083015160c085015260e08301518160e08601526139b982860182613922565b95945050505050565b828152604060208201526000612cee604083018461394e565b634e487b7160e01b600052601160045260246000fd5b6000600019821415613a0557613a056139db565b5060010190565b6000808335601e19843603018112613a2357600080fd5b8301803591506001600160401b03821115613a3d57600080fd5b602001915036819003821315613a5257600080fd5b9250929050565b600060208284031215613a6b57600080fd5b8135612a858161322e565b600060208284031215613a8857600080fd5b612a8582612f83565b6000808335601e19843603018112613aa857600080fd5b8301803591506001600160401b03821115613ac257600080fd5b6020019150600781901b3603821315613a5257600080fd5b81835281816020850137506000828201602090810191909152601f909101601f19169091010190565b60ff8d16815260e060208201526000613b2060e083018d8f613ada565b604083820381850152613b34828d8f613ada565b9150606084830381860152613b4a838c8e613ada565b9250608085840381870152613b60848b8d613ada565b60a087018a905286810360c088015287815288945060200160005b88811015613bcd578535613b8e81612e70565b6001600160a01b0316825260ff613ba760208801612f83565b166020830152858501358583015283860135848301529482019490820190600101613b7b565b5080955050505050509d9c50505050505050505050505050565b6020808252602c908201527f4552433732314454466163746f72793a2054656d706c61746520696e6465782060408201526b191bd95cdb9d08195e1a5cdd60a21b606082015260800190565b6001600160a01b038616815260a060208201819052600090613c5790830187613922565b8281036040840152613c698187613922565b90508281036060840152613c7d8186613922565b91505082151560808301529695505050505050565b60008219821115613ca557613ca56139db565b500190565b6001600160a01b03898116825261010060208301819052600091613cd08483018c613922565b91508382036040850152613ce4828b613922565b8982166060860152888216608086015290871660a085015283810360c08501529050613d108186613922565b91505082151560e08301529998505050505050505050565b600060208284031215613d3a57600080fd5b8151612a858161322e565b6000808335601e19843603018112613d5c57600080fd5b8301803591506001600160401b03821115613d7657600080fd5b6020019150600581901b3603821315613a5257600080fd5b6000808335601e19843603018112613da557600080fd5b83016020810192503590506001600160401b03811115613dc457600080fd5b803603831315613a5257600080fd5b8183526000602080850194508260005b85811015613e11578135613df681612e70565b6001600160a01b031687529582019590820190600101613de3565b509495945050505050565b81835260006001600160fb1b03831115613e3557600080fd5b8260051b8083602087013760009401602001938452509192915050565b81835260006020808501808196508560051b810191508460005b87811015613ea2578284038952613e838288613d8e565b613e8e868284613ada565b9a87019a9550505090840190600101613e6c565b5091979650505050505050565b89815260a0602082018190528101889052600060c060058a901b830181019083018b835b8c811015613f105785840360bf19018352613eee828f613d8e565b613ef9868284613ada565b955050506020928301929190910190600101613ed3565b5050508281036040840152613f2681898b613dd3565b90508281036060840152613f3b818789613e1c565b90508281036080840152613f50818587613e52565b9c9b505050505050505050505050565b600060208284031215613f7257600080fd5b8151612a8581612e70565b606081526000613f9160608301888a613e1c565b8281036020840152613fa4818789613e1c565b90508281036040840152613fb9818587613dd3565b9998505050505050505050565b600080600060608486031215613fdb57600080fd5b8351613fe681612e70565b6020850151909350613ff781612e70565b80925050604084015190509250925092565b600060018060a01b03808716835285602084015260c0604084015261403160c084018661394e565b915080845116606084015280602085015116608084015250604083015160a083015295945050505050565b6001600160a01b03861681526060602082018190526000906140819083018688613dd3565b8281036040840152614094818587613e1c565b98975050505050505050565b6000602082840312156140b257600080fd5b5051919050565b6080815260006140cc6080830187613922565b82810360208401526140de8187613922565b604084019590955250506001600160a01b039190911660609091015292915050565b600081518084526020808501945080840160005b83811015613e115781516001600160a01b031687529582019590820190600101614114565b600081518084526020808501945080840160005b83811015613e115781518752958201959082019060010161414d565b600081518084526020808501808196508360051b8101915082860160005b85811015613ea257828403895261419f848351613922565b98850198935090840190600101614187565b600060a0820160a0835280885180835260c08501915060c08160051b86010192506020808b0160005b838110156142085760bf198887030185526141f6868351613922565b955093820193908201906001016141da565b50508584038187015250505061421e8188614100565b905082810360408401526142328187614100565b905082810360608401526142468186614139565b905082810360808401526140948185614169565b6000825161426c8184602087016138f6565b9190910192915050565b602081526000612a85602083018461392256fea2646970667358221220f35071833c853c34f62d5fd5ab7aaaeddbee27fcd36d0b8e3780dac9b8d3885564736f6c634300080c0033",
  "linkReferences": {},
  "deployedLinkReferences": {}
}