{
  "_format": "hh-sol-artifact-1",
  "contractName": "ERC20Template",
  "sourceName": "contracts/templates/ERC20Template.sol",
  "abi": [
    {
      "anonymous": false,
      "inputs": [
        {
          "indexed": true,
          "internalType": "address",
          "name": "user",
          "type": "address"
        },
        {
          "indexed": true,
          "internalType": "address",
          "name": "signer",
          "type": "address"
        },
        {
          "indexed": false,
          "internalType": "uint256",
          "name": "timestamp",
          "type": "uint256"
        },
        {
          "indexed": false,
          "internalType": "uint256",
          "name": "blockNumber",
          "type": "uint256"
        }
      ],
      "name": "AddedMinter",
      "type": "event"
    },
    {
      "anonymous": false,
      "inputs": [
        {
          "indexed": true,
          "internalType": "address",
          "name": "user",
          "type": "address"
        },
        {
          "indexed": true,
          "internalType": "address",
          "name": "signer",
          "type": "address"
        },
        {
          "indexed": false,
          "internalType": "uint256",
          "name": "timestamp",
          "type": "uint256"
        },
        {
          "indexed": false,
          "internalType": "uint256",
          "name": "blockNumber",
          "type": "uint256"
        }
      ],
      "name": "AddedPaymentManager",
      "type": "event"
    },
    {
      "anonymous": false,
      "inputs": [
        {
          "indexed": true,
          "internalType": "address",
          "name": "owner",
          "type": "address"
        },
        {
          "indexed": true,
          "internalType": "address",
          "name": "spender",
          "type": "address"
        },
        {
          "indexed": false,
          "internalType": "uint256",
          "name": "value",
          "type": "uint256"
        }
      ],
      "name": "Approval",
      "type": "event"
    },
    {
      "anonymous": false,
      "inputs": [
        {
          "indexed": true,
          "internalType": "address",
          "name": "signer",
          "type": "address"
        },
        {
          "indexed": false,
          "internalType": "uint256",
          "name": "timestamp",
          "type": "uint256"
        },
        {
          "indexed": false,
          "internalType": "uint256",
          "name": "blockNumber",
          "type": "uint256"
        }
      ],
      "name": "CleanedPermissions",
      "type": "event"
    },
    {
      "anonymous": false,
      "inputs": [
        {
          "indexed": true,
          "internalType": "address",
          "name": "consumeMarketFeeAddress",
          "type": "address"
        },
        {
          "indexed": true,
          "internalType": "address",
          "name": "consumeMarketFeeToken",
          "type": "address"
        },
        {
          "indexed": false,
          "internalType": "uint256",
          "name": "consumeMarketFeeAmount",
          "type": "uint256"
        }
      ],
      "name": "ConsumeMarketFee",
      "type": "event"
    },
    {
      "anonymous": false,
      "inputs": [
        {
          "indexed": false,
          "internalType": "address",
          "name": "currentMinter",
          "type": "address"
        },
        {
          "indexed": false,
          "internalType": "address",
          "name": "newMinter",
          "type": "address"
        }
      ],
      "name": "MinterApproved",
      "type": "event"
    },
    {
      "anonymous": false,
      "inputs": [
        {
          "indexed": false,
          "internalType": "address",
          "name": "currentMinter",
          "type": "address"
        },
        {
          "indexed": false,
          "internalType": "address",
          "name": "newMinter",
          "type": "address"
        }
      ],
      "name": "MinterProposed",
      "type": "event"
    },
    {
      "anonymous": false,
      "inputs": [
        {
          "indexed": false,
          "internalType": "address",
          "name": "dispenserContract",
          "type": "address"
        }
      ],
      "name": "NewDispenser",
      "type": "event"
    },
    {
      "anonymous": false,
      "inputs": [
        {
          "indexed": false,
          "internalType": "bytes32",
          "name": "exchangeId",
          "type": "bytes32"
        },
        {
          "indexed": true,
          "internalType": "address",
          "name": "owner",
          "type": "address"
        },
        {
          "indexed": false,
          "internalType": "address",
          "name": "exchangeContract",
          "type": "address"
        },
        {
          "indexed": true,
          "internalType": "address",
          "name": "baseToken",
          "type": "address"
        }
      ],
      "name": "NewFixedRate",
      "type": "event"
    },
    {
      "anonymous": false,
      "inputs": [
        {
          "indexed": true,
          "internalType": "address",
          "name": "caller",
          "type": "address"
        },
        {
          "indexed": true,
          "internalType": "address",
          "name": "_newPaymentCollector",
          "type": "address"
        },
        {
          "indexed": false,
          "internalType": "uint256",
          "name": "timestamp",
          "type": "uint256"
        },
        {
          "indexed": false,
          "internalType": "uint256",
          "name": "blockNumber",
          "type": "uint256"
        }
      ],
      "name": "NewPaymentCollector",
      "type": "event"
    },
    {
      "anonymous": false,
      "inputs": [
        {
          "indexed": false,
          "internalType": "address",
          "name": "poolAddress",
          "type": "address"
        },
        {
          "indexed": false,
          "internalType": "address",
          "name": "ssContract",
          "type": "address"
        },
        {
          "indexed": false,
          "internalType": "address",
          "name": "baseTokenAddress",
          "type": "address"
        }
      ],
      "name": "NewPool",
      "type": "event"
    },
    {
      "anonymous": false,
      "inputs": [
        {
          "indexed": true,
          "internalType": "address",
          "name": "providerAddress",
          "type": "address"
        },
        {
          "indexed": true,
          "internalType": "address",
          "name": "consumerAddress",
          "type": "address"
        },
        {
          "indexed": false,
          "internalType": "bytes32",
          "name": "orderTxId",
          "type": "bytes32"
        },
        {
          "indexed": false,
          "internalType": "bytes",
          "name": "providerData",
          "type": "bytes"
        },
        {
          "indexed": false,
          "internalType": "bytes",
          "name": "providerSignature",
          "type": "bytes"
        },
        {
          "indexed": false,
          "internalType": "bytes",
          "name": "consumerData",
          "type": "bytes"
        },
        {
          "indexed": false,
          "internalType": "bytes",
          "name": "consumerSignature",
          "type": "bytes"
        },
        {
          "indexed": false,
          "internalType": "uint256",
          "name": "timestamp",
          "type": "uint256"
        },
        {
          "indexed": false,
          "internalType": "uint256",
          "name": "blockNumber",
          "type": "uint256"
        }
      ],
      "name": "OrderExecuted",
      "type": "event"
    },
    {
      "anonymous": false,
      "inputs": [
        {
          "indexed": false,
          "internalType": "bytes32",
          "name": "orderTxId",
          "type": "bytes32"
        },
        {
          "indexed": false,
          "internalType": "address",
          "name": "caller",
          "type": "address"
        },
        {
          "indexed": false,
          "internalType": "uint256",
          "name": "timestamp",
          "type": "uint256"
        },
        {
          "indexed": false,
          "internalType": "uint256",
          "name": "number",
          "type": "uint256"
        }
      ],
      "name": "OrderReused",
      "type": "event"
    },
    {
      "anonymous": false,
      "inputs": [
        {
          "indexed": true,
          "internalType": "address",
          "name": "consumer",
          "type": "address"
        },
        {
          "indexed": false,
          "internalType": "address",
          "name": "payer",
          "type": "address"
        },
        {
          "indexed": false,
          "internalType": "uint256",
          "name": "amount",
          "type": "uint256"
        },
        {
          "indexed": false,
          "internalType": "uint256",
          "name": "serviceIndex",
          "type": "uint256"
        },
        {
          "indexed": false,
          "internalType": "uint256",
          "name": "timestamp",
          "type": "uint256"
        },
        {
          "indexed": true,
          "internalType": "address",
          "name": "publishMarketAddress",
          "type": "address"
        },
        {
          "indexed": false,
          "internalType": "uint256",
          "name": "blockNumber",
          "type": "uint256"
        }
      ],
      "name": "OrderStarted",
      "type": "event"
    },
    {
      "anonymous": false,
      "inputs": [
        {
          "indexed": true,
          "internalType": "address",
          "name": "providerFeeAddress",
          "type": "address"
        },
        {
          "indexed": true,
          "internalType": "address",
          "name": "providerFeeToken",
          "type": "address"
        },
        {
          "indexed": false,
          "internalType": "uint256",
          "name": "providerFeeAmount",
          "type": "uint256"
        },
        {
          "indexed": false,
          "internalType": "bytes",
          "name": "providerData",
          "type": "bytes"
        },
        {
          "indexed": false,
          "internalType": "uint8",
          "name": "v",
          "type": "uint8"
        },
        {
          "indexed": false,
          "internalType": "bytes32",
          "name": "r",
          "type": "bytes32"
        },
        {
          "indexed": false,
          "internalType": "bytes32",
          "name": "s",
          "type": "bytes32"
        },
        {
          "indexed": false,
          "internalType": "uint256",
          "name": "validUntil",
          "type": "uint256"
        }
      ],
      "name": "ProviderFee",
      "type": "event"
    },
    {
      "anonymous": false,
      "inputs": [
        {
          "indexed": true,
          "internalType": "address",
          "name": "PublishMarketFeeAddress",
          "type": "address"
        },
        {
          "indexed": true,
          "internalType": "address",
          "name": "PublishMarketFeeToken",
          "type": "address"
        },
        {
          "indexed": false,
          "internalType": "uint256",
          "name": "PublishMarketFeeAmount",
          "type": "uint256"
        }
      ],
      "name": "PublishMarketFee",
      "type": "event"
    },
    {
      "anonymous": false,
      "inputs": [
        {
          "indexed": false,
          "internalType": "address",
          "name": "caller",
          "type": "address"
        },
        {
          "indexed": false,
          "internalType": "address",
          "name": "PublishMarketFeeAddress",
          "type": "address"
        },
        {
          "indexed": false,
          "internalType": "address",
          "name": "PublishMarketFeeToken",
          "type": "address"
        },
        {
          "indexed": false,
          "internalType": "uint256",
          "name": "PublishMarketFeeAmount",
          "type": "uint256"
        }
      ],
      "name": "PublishMarketFeeChanged",
      "type": "event"
    },
    {
      "anonymous": false,
      "inputs": [
        {
          "indexed": true,
          "internalType": "address",
          "name": "user",
          "type": "address"
        },
        {
          "indexed": true,
          "internalType": "address",
          "name": "signer",
          "type": "address"
        },
        {
          "indexed": false,
          "internalType": "uint256",
          "name": "timestamp",
          "type": "uint256"
        },
        {
          "indexed": false,
          "internalType": "uint256",
          "name": "blockNumber",
          "type": "uint256"
        }
      ],
      "name": "RemovedMinter",
      "type": "event"
    },
    {
      "anonymous": false,
      "inputs": [
        {
          "indexed": true,
          "internalType": "address",
          "name": "user",
          "type": "address"
        },
        {
          "indexed": true,
          "internalType": "address",
          "name": "signer",
          "type": "address"
        },
        {
          "indexed": false,
          "internalType": "uint256",
          "name": "timestamp",
          "type": "uint256"
        },
        {
          "indexed": false,
          "internalType": "uint256",
          "name": "blockNumber",
          "type": "uint256"
        }
      ],
      "name": "RemovedPaymentManager",
      "type": "event"
    },
    {
      "anonymous": false,
      "inputs": [
        {
          "indexed": true,
          "internalType": "address",
          "name": "from",
          "type": "address"
        },
        {
          "indexed": true,
          "internalType": "address",
          "name": "to",
          "type": "address"
        },
        {
          "indexed": false,
          "internalType": "uint256",
          "name": "value",
          "type": "uint256"
        }
      ],
      "name": "Transfer",
      "type": "event"
    },
    {
      "anonymous": false,
      "inputs": [
        {
          "indexed": true,
          "internalType": "address",
          "name": "datatokenAddress",
          "type": "address"
        },
        {
          "indexed": true,
          "internalType": "address",
          "name": "publisherAddress",
          "type": "address"
        },
        {
          "indexed": false,
          "internalType": "uint256",
          "name": "vestingEndBlock",
          "type": "uint256"
        },
        {
          "indexed": false,
          "internalType": "uint256",
          "name": "totalVestingAmount",
          "type": "uint256"
        }
      ],
      "name": "VestingCreated",
      "type": "event"
    },
    {
      "stateMutability": "payable",
      "type": "fallback"
    },
    {
      "inputs": [],
      "name": "BASE",
      "outputs": [
        {
          "internalType": "uint256",
          "name": "",
          "type": "uint256"
        }
      ],
      "stateMutability": "view",
      "type": "function"
    },
    {
      "inputs": [],
      "name": "DOMAIN_SEPARATOR",
      "outputs": [
        {
          "internalType": "bytes32",
          "name": "",
          "type": "bytes32"
        }
      ],
      "stateMutability": "view",
      "type": "function"
    },
    {
      "inputs": [],
      "name": "PERMIT_TYPEHASH",
      "outputs": [
        {
          "internalType": "bytes32",
          "name": "",
          "type": "bytes32"
        }
      ],
      "stateMutability": "view",
      "type": "function"
    },
    {
      "inputs": [
        {
          "internalType": "address",
          "name": "_minter",
          "type": "address"
        }
      ],
      "name": "addMinter",
      "outputs": [],
      "stateMutability": "nonpayable",
      "type": "function"
    },
    {
      "inputs": [
        {
          "internalType": "address",
          "name": "_paymentManager",
          "type": "address"
        }
      ],
      "name": "addPaymentManager",
      "outputs": [],
      "stateMutability": "nonpayable",
      "type": "function"
    },
    {
      "inputs": [
        {
          "internalType": "address",
          "name": "owner",
          "type": "address"
        },
        {
          "internalType": "address",
          "name": "spender",
          "type": "address"
        }
      ],
      "name": "allowance",
      "outputs": [
        {
          "internalType": "uint256",
          "name": "",
          "type": "uint256"
        }
      ],
      "stateMutability": "view",
      "type": "function"
    },
    {
      "inputs": [
        {
          "internalType": "address",
          "name": "spender",
          "type": "address"
        },
        {
          "internalType": "uint256",
          "name": "amount",
          "type": "uint256"
        }
      ],
      "name": "approve",
      "outputs": [
        {
          "internalType": "bool",
          "name": "",
          "type": "bool"
        }
      ],
      "stateMutability": "nonpayable",
      "type": "function"
    },
    {
      "inputs": [
        {
          "internalType": "uint256",
          "name": "",
          "type": "uint256"
        }
      ],
      "name": "authERC20",
      "outputs": [
        {
          "internalType": "address",
          "name": "",
          "type": "address"
        }
      ],
      "stateMutability": "view",
      "type": "function"
    },
    {
      "inputs": [
        {
          "internalType": "address",
          "name": "account",
          "type": "address"
        }
      ],
      "name": "balanceOf",
      "outputs": [
        {
          "internalType": "uint256",
          "name": "",
          "type": "uint256"
        }
      ],
      "stateMutability": "view",
      "type": "function"
    },
    {
      "inputs": [
        {
          "internalType": "uint256",
          "name": "amount",
          "type": "uint256"
        }
      ],
      "name": "burn",
      "outputs": [],
      "stateMutability": "nonpayable",
      "type": "function"
    },
    {
      "inputs": [
        {
          "internalType": "address",
          "name": "account",
          "type": "address"
        },
        {
          "internalType": "uint256",
          "name": "amount",
          "type": "uint256"
        }
      ],
      "name": "burnFrom",
      "outputs": [],
      "stateMutability": "nonpayable",
      "type": "function"
    },
    {
      "inputs": [],
      "name": "cap",
      "outputs": [
        {
          "internalType": "uint256",
          "name": "",
          "type": "uint256"
        }
      ],
      "stateMutability": "view",
      "type": "function"
    },
    {
      "inputs": [],
      "name": "cleanFrom721",
      "outputs": [],
      "stateMutability": "nonpayable",
      "type": "function"
    },
    {
      "inputs": [],
      "name": "cleanPermissions",
      "outputs": [],
      "stateMutability": "nonpayable",
      "type": "function"
    },
    {
      "inputs": [
        {
          "internalType": "address",
          "name": "_dispenser",
          "type": "address"
        },
        {
          "internalType": "uint256",
          "name": "maxTokens",
          "type": "uint256"
        },
        {
          "internalType": "uint256",
          "name": "maxBalance",
          "type": "uint256"
        },
        {
          "internalType": "bool",
          "name": "withMint",
          "type": "bool"
        },
        {
          "internalType": "address",
          "name": "allowedSwapper",
          "type": "address"
        }
      ],
      "name": "createDispenser",
      "outputs": [],
      "stateMutability": "nonpayable",
      "type": "function"
    },
    {
      "inputs": [
        {
          "internalType": "address",
          "name": "fixedPriceAddress",
          "type": "address"
        },
        {
          "internalType": "address[]",
          "name": "addresses",
          "type": "address[]"
        },
        {
          "internalType": "uint256[]",
          "name": "uints",
          "type": "uint256[]"
        }
      ],
      "name": "createFixedRate",
      "outputs": [
        {
          "internalType": "bytes32",
          "name": "exchangeId",
          "type": "bytes32"
        }
      ],
      "stateMutability": "nonpayable",
      "type": "function"
    },
    {
      "inputs": [],
      "name": "decimals",
      "outputs": [
        {
          "internalType": "uint8",
          "name": "",
          "type": "uint8"
        }
      ],
      "stateMutability": "pure",
      "type": "function"
    },
    {
      "inputs": [
        {
          "internalType": "address",
          "name": "spender",
          "type": "address"
        },
        {
          "internalType": "uint256",
          "name": "subtractedValue",
          "type": "uint256"
        }
      ],
      "name": "decreaseAllowance",
      "outputs": [
        {
          "internalType": "bool",
          "name": "",
          "type": "bool"
        }
      ],
      "stateMutability": "nonpayable",
      "type": "function"
    },
    {
      "inputs": [
        {
          "internalType": "uint256[]",
          "name": "ssParams",
          "type": "uint256[]"
        },
        {
          "internalType": "uint256[]",
          "name": "swapFees",
          "type": "uint256[]"
        },
        {
          "internalType": "address[]",
          "name": "addresses",
          "type": "address[]"
        }
      ],
      "name": "deployPool",
      "outputs": [
        {
          "internalType": "address",
          "name": "pool",
          "type": "address"
        }
      ],
      "stateMutability": "nonpayable",
      "type": "function"
    },
    {
      "inputs": [],
      "name": "getDispensers",
      "outputs": [
        {
          "internalType": "address[]",
          "name": "",
          "type": "address[]"
        }
      ],
      "stateMutability": "view",
      "type": "function"
    },
    {
      "inputs": [],
      "name": "getERC721Address",
      "outputs": [
        {
          "internalType": "address",
          "name": "",
          "type": "address"
        }
      ],
      "stateMutability": "view",
      "type": "function"
    },
    {
      "inputs": [],
      "name": "getFixedRates",
      "outputs": [
        {
          "components": [
            {
              "internalType": "address",
              "name": "contractAddress",
              "type": "address"
            },
            {
              "internalType": "bytes32",
              "name": "id",
              "type": "bytes32"
            }
          ],
          "internalType": "struct ERC20Template.fixedRate[]",
          "name": "",
          "type": "tuple[]"
        }
      ],
      "stateMutability": "view",
      "type": "function"
    },
    {
      "inputs": [],
      "name": "getId",
      "outputs": [
        {
          "internalType": "uint8",
          "name": "",
          "type": "uint8"
        }
      ],
      "stateMutability": "pure",
      "type": "function"
    },
    {
      "inputs": [],
      "name": "getPaymentCollector",
      "outputs": [
        {
          "internalType": "address",
          "name": "",
          "type": "address"
        }
      ],
      "stateMutability": "view",
      "type": "function"
    },
    {
      "inputs": [
        {
          "internalType": "address",
          "name": "user",
          "type": "address"
        }
      ],
      "name": "getPermissions",
      "outputs": [
        {
          "components": [
            {
              "internalType": "bool",
              "name": "minter",
              "type": "bool"
            },
            {
              "internalType": "bool",
              "name": "paymentManager",
              "type": "bool"
            }
          ],
          "internalType": "struct ERC20Roles.RolesERC20",
          "name": "",
          "type": "tuple"
        }
      ],
      "stateMutability": "view",
      "type": "function"
    },
    {
      "inputs": [],
      "name": "getPools",
      "outputs": [
        {
          "internalType": "address[]",
          "name": "",
          "type": "address[]"
        }
      ],
      "stateMutability": "view",
      "type": "function"
    },
    {
      "inputs": [],
      "name": "getPublishingMarketFee",
      "outputs": [
        {
          "internalType": "address",
          "name": "",
          "type": "address"
        },
        {
          "internalType": "address",
          "name": "",
          "type": "address"
        },
        {
          "internalType": "uint256",
          "name": "",
          "type": "uint256"
        }
      ],
      "stateMutability": "view",
      "type": "function"
    },
    {
      "inputs": [
        {
          "internalType": "address",
          "name": "spender",
          "type": "address"
        },
        {
          "internalType": "uint256",
          "name": "addedValue",
          "type": "uint256"
        }
      ],
      "name": "increaseAllowance",
      "outputs": [
        {
          "internalType": "bool",
          "name": "",
          "type": "bool"
        }
      ],
      "stateMutability": "nonpayable",
      "type": "function"
    },
    {
      "inputs": [
        {
          "internalType": "string[]",
          "name": "strings_",
          "type": "string[]"
        },
        {
          "internalType": "address[]",
          "name": "addresses_",
          "type": "address[]"
        },
        {
          "internalType": "address[]",
          "name": "factoryAddresses_",
          "type": "address[]"
        },
        {
          "internalType": "uint256[]",
          "name": "uints_",
          "type": "uint256[]"
        },
        {
          "internalType": "bytes[]",
          "name": "bytes_",
          "type": "bytes[]"
        }
      ],
      "name": "initialize",
      "outputs": [
        {
          "internalType": "bool",
          "name": "",
          "type": "bool"
        }
      ],
      "stateMutability": "nonpayable",
      "type": "function"
    },
    {
      "inputs": [
        {
          "internalType": "address",
          "name": "user",
          "type": "address"
        }
      ],
      "name": "isERC20Deployer",
      "outputs": [
        {
          "internalType": "bool",
          "name": "",
          "type": "bool"
        }
      ],
      "stateMutability": "view",
      "type": "function"
    },
    {
      "inputs": [],
      "name": "isInitialized",
      "outputs": [
        {
          "internalType": "bool",
          "name": "",
          "type": "bool"
        }
      ],
      "stateMutability": "view",
      "type": "function"
    },
    {
      "inputs": [
        {
          "internalType": "address",
          "name": "account",
          "type": "address"
        }
      ],
      "name": "isMinter",
      "outputs": [
        {
          "internalType": "bool",
          "name": "",
          "type": "bool"
        }
      ],
      "stateMutability": "view",
      "type": "function"
    },
    {
      "inputs": [
        {
          "internalType": "address",
          "name": "account",
          "type": "address"
        },
        {
          "internalType": "uint256",
          "name": "value",
          "type": "uint256"
        }
      ],
      "name": "mint",
      "outputs": [],
      "stateMutability": "nonpayable",
      "type": "function"
    },
    {
      "inputs": [],
      "name": "name",
      "outputs": [
        {
          "internalType": "string",
          "name": "",
          "type": "string"
        }
      ],
      "stateMutability": "view",
      "type": "function"
    },
    {
      "inputs": [
        {
          "internalType": "address",
          "name": "",
          "type": "address"
        }
      ],
      "name": "nonces",
      "outputs": [
        {
          "internalType": "uint256",
          "name": "",
          "type": "uint256"
        }
      ],
      "stateMutability": "view",
      "type": "function"
    },
    {
      "inputs": [
        {
          "internalType": "bytes32",
          "name": "orderTxId",
          "type": "bytes32"
        },
        {
          "internalType": "bytes",
          "name": "providerData",
          "type": "bytes"
        },
        {
          "internalType": "bytes",
          "name": "providerSignature",
          "type": "bytes"
        },
        {
          "internalType": "bytes",
          "name": "consumerData",
          "type": "bytes"
        },
        {
          "internalType": "bytes",
          "name": "consumerSignature",
          "type": "bytes"
        },
        {
          "internalType": "address",
          "name": "consumerAddress",
          "type": "address"
        }
      ],
      "name": "orderExecuted",
      "outputs": [],
      "stateMutability": "nonpayable",
      "type": "function"
    },
    {
      "inputs": [
        {
          "internalType": "address",
          "name": "",
          "type": "address"
        }
      ],
      "name": "permissions",
      "outputs": [
        {
          "internalType": "bool",
          "name": "minter",
          "type": "bool"
        },
        {
          "internalType": "bool",
          "name": "paymentManager",
          "type": "bool"
        }
      ],
      "stateMutability": "view",
      "type": "function"
    },
    {
      "inputs": [
        {
          "internalType": "address",
          "name": "owner",
          "type": "address"
        },
        {
          "internalType": "address",
          "name": "spender",
          "type": "address"
        },
        {
          "internalType": "uint256",
          "name": "value",
          "type": "uint256"
        },
        {
          "internalType": "uint256",
          "name": "deadline",
          "type": "uint256"
        },
        {
          "internalType": "uint8",
          "name": "v",
          "type": "uint8"
        },
        {
          "internalType": "bytes32",
          "name": "r",
          "type": "bytes32"
        },
        {
          "internalType": "bytes32",
          "name": "s",
          "type": "bytes32"
        }
      ],
      "name": "permit",
      "outputs": [],
      "stateMutability": "nonpayable",
      "type": "function"
    },
    {
      "inputs": [
        {
          "internalType": "address",
          "name": "_minter",
          "type": "address"
        }
      ],
      "name": "removeMinter",
      "outputs": [],
      "stateMutability": "nonpayable",
      "type": "function"
    },
    {
      "inputs": [
        {
          "internalType": "address",
          "name": "_paymentManager",
          "type": "address"
        }
      ],
      "name": "removePaymentManager",
      "outputs": [],
      "stateMutability": "nonpayable",
      "type": "function"
    },
    {
      "inputs": [
        {
          "internalType": "bytes32",
          "name": "orderTxId",
          "type": "bytes32"
        },
        {
          "components": [
            {
              "internalType": "address",
              "name": "providerFeeAddress",
              "type": "address"
            },
            {
              "internalType": "address",
              "name": "providerFeeToken",
              "type": "address"
            },
            {
              "internalType": "uint256",
              "name": "providerFeeAmount",
              "type": "uint256"
            },
            {
              "internalType": "uint8",
              "name": "v",
              "type": "uint8"
            },
            {
              "internalType": "bytes32",
              "name": "r",
              "type": "bytes32"
            },
            {
              "internalType": "bytes32",
              "name": "s",
              "type": "bytes32"
            },
            {
              "internalType": "uint256",
              "name": "validUntil",
              "type": "uint256"
            },
            {
              "internalType": "bytes",
              "name": "providerData",
              "type": "bytes"
            }
          ],
          "internalType": "struct ERC20Template.providerFee",
          "name": "_providerFee",
          "type": "tuple"
        }
      ],
      "name": "reuseOrder",
      "outputs": [],
      "stateMutability": "nonpayable",
      "type": "function"
    },
    {
      "inputs": [],
      "name": "router",
      "outputs": [
        {
          "internalType": "address",
          "name": "",
          "type": "address"
        }
      ],
      "stateMutability": "view",
      "type": "function"
    },
    {
      "inputs": [
        {
          "internalType": "bytes",
          "name": "_value",
          "type": "bytes"
        }
      ],
      "name": "setData",
      "outputs": [],
      "stateMutability": "nonpayable",
      "type": "function"
    },
    {
      "inputs": [
        {
          "internalType": "address",
          "name": "_newPaymentCollector",
          "type": "address"
        }
      ],
      "name": "setPaymentCollector",
      "outputs": [],
      "stateMutability": "nonpayable",
      "type": "function"
    },
    {
      "inputs": [
        {
          "internalType": "address",
          "name": "_publishMarketFeeAddress",
          "type": "address"
        },
        {
          "internalType": "address",
          "name": "_publishMarketFeeToken",
          "type": "address"
        },
        {
          "internalType": "uint256",
          "name": "_publishMarketFeeAmount",
          "type": "uint256"
        }
      ],
      "name": "setPublishingMarketFee",
      "outputs": [],
      "stateMutability": "nonpayable",
      "type": "function"
    },
    {
      "inputs": [
        {
          "internalType": "address",
          "name": "consumer",
          "type": "address"
        },
        {
          "internalType": "uint256",
          "name": "serviceIndex",
          "type": "uint256"
        },
        {
          "components": [
            {
              "internalType": "address",
              "name": "providerFeeAddress",
              "type": "address"
            },
            {
              "internalType": "address",
              "name": "providerFeeToken",
              "type": "address"
            },
            {
              "internalType": "uint256",
              "name": "providerFeeAmount",
              "type": "uint256"
            },
            {
              "internalType": "uint8",
              "name": "v",
              "type": "uint8"
            },
            {
              "internalType": "bytes32",
              "name": "r",
              "type": "bytes32"
            },
            {
              "internalType": "bytes32",
              "name": "s",
              "type": "bytes32"
            },
            {
              "internalType": "uint256",
              "name": "validUntil",
              "type": "uint256"
            },
            {
              "internalType": "bytes",
              "name": "providerData",
              "type": "bytes"
            }
          ],
          "internalType": "struct ERC20Template.providerFee",
          "name": "_providerFee",
          "type": "tuple"
        },
        {
          "components": [
            {
              "internalType": "address",
              "name": "consumeMarketFeeAddress",
              "type": "address"
            },
            {
              "internalType": "address",
              "name": "consumeMarketFeeToken",
              "type": "address"
            },
            {
              "internalType": "uint256",
              "name": "consumeMarketFeeAmount",
              "type": "uint256"
            }
          ],
          "internalType": "struct ERC20Template.consumeMarketFee",
          "name": "_consumeMarketFee",
          "type": "tuple"
        }
      ],
      "name": "startOrder",
      "outputs": [],
      "stateMutability": "nonpayable",
      "type": "function"
    },
    {
      "inputs": [],
      "name": "symbol",
      "outputs": [
        {
          "internalType": "string",
          "name": "",
          "type": "string"
        }
      ],
      "stateMutability": "view",
      "type": "function"
    },
    {
      "inputs": [],
      "name": "totalSupply",
      "outputs": [
        {
          "internalType": "uint256",
          "name": "",
          "type": "uint256"
        }
      ],
      "stateMutability": "view",
      "type": "function"
    },
    {
      "inputs": [
        {
          "internalType": "address",
          "name": "to",
          "type": "address"
        },
        {
          "internalType": "uint256",
          "name": "amount",
          "type": "uint256"
        }
      ],
      "name": "transfer",
      "outputs": [
        {
          "internalType": "bool",
          "name": "",
          "type": "bool"
        }
      ],
      "stateMutability": "nonpayable",
      "type": "function"
    },
    {
      "inputs": [
        {
          "internalType": "address",
          "name": "from",
          "type": "address"
        },
        {
          "internalType": "address",
          "name": "to",
          "type": "address"
        },
        {
          "internalType": "uint256",
          "name": "amount",
          "type": "uint256"
        }
      ],
      "name": "transferFrom",
      "outputs": [
        {
          "internalType": "bool",
          "name": "",
          "type": "bool"
        }
      ],
      "stateMutability": "nonpayable",
      "type": "function"
    },
    {
      "inputs": [],
      "name": "withdrawETH",
      "outputs": [],
      "stateMutability": "payable",
      "type": "function"
    },
    {
      "stateMutability": "payable",
      "type": "receive"
    }
  ],
  "bytecode": "0x6080604052600b805460ff191690553480156200001b57600080fd5b5060408051808201825260048152631d195cdd60e21b60208083019182528351808501909452600a8452691d195cdd14de5b589bdb60b21b9084015281519192916200006a916003916200008e565b508051620000809060049060208401906200008e565b505060016007555062000171565b8280546200009c9062000134565b90600052602060002090601f016020900481019282620000c057600085556200010b565b82601f10620000db57805160ff19168380011785556200010b565b828001600101855582156200010b579182015b828111156200010b578251825591602001919060010190620000ee565b50620001199291506200011d565b5090565b5b808211156200011957600081556001016200011e565b600181811c908216806200014957607f821691505b602082108114156200016b57634e487b7160e01b600052602260045260246000fd5b50919050565b615e1780620001816000396000f3fe6080604052600436106102c65760003560e01c80635d1ca6311161017e578063a457c2d7116100d3578063d505accf1161008f578063e487c2e81161006c578063e487c2e81461097d578063ec342ad014610992578063ef867ff4146109ae578063f887ea40146109ce57005b8063d505accf14610935578063dd62ed3e14610955578063e086e5ec1461097557005b8063a457c2d71461085c578063a9059cbb1461087c578063aa271e1a1461089c578063aa492ef9146108d5578063ab62f0e1146108f5578063b3998be01461091557005b80637ecebe001161013a5780638b96412b116101175780638b96412b146107e757806395d89b411461080757806396fb3eaf1461081c578063983b2d561461083c57005b80637ecebe001461078557806382c03da5146107b257806389208f0f146107c757005b80635d1ca631146106c4578063673a2a1f146106d857806370a08231146106ed57806379cc67901461072357806379d9d7f3146107435780637dda231e1461076357005b8063355274ea1161023457806340c10f19116101f05780634f189cb2116101cd5780634f189cb21461064f57806357a3a31b1461066457806357ad5ff6146106845780635bfe4da0146106a457005b806340c10f19146105ed57806342966c681461060d57806347ac7d551461062d57005b8063355274ea1461052e578063361fef49146105435780633644e51514610563578063392e53cd146105795780633950935114610591578063397b3743146105b157005b8063191c918a11610283578063191c918a1461045857806323b872dd1461047857806325b00243146104985780633092afd5146104b857806330adf81f146104d8578063313ce5671461050c57005b80627ffb78146102cf57806301e882081461030b57806306fdde031461035b578063095ea7b31461037d578063160a7925146103ad57806318160ddd1461043957005b366102cd57005b005b3480156102db57600080fd5b50600b5461010090046001600160a01b03165b6040516001600160a01b0390911681526020015b60405180910390f35b34801561031757600080fd5b50610344610326366004614d76565b60056020526000908152604090205460ff8082169161010090041682565b604080519215158352901515602083015201610302565b34801561036757600080fd5b506103706109ee565b6040516103029190614dbf565b34801561038957600080fd5b5061039d610398366004614df2565b610a80565b6040519015158152602001610302565b3480156103b957600080fd5b5061041a6103c8366004614d76565b6040805180820190915260008082526020820152506001600160a01b031660009081526005602090815260409182902082518084019093525460ff808216151584526101009091041615159082015290565b6040805182511515815260209283015115159281019290925201610302565b34801561044557600080fd5b506002545b604051908152602001610302565b34801561046457600080fd5b506102cd610473366004614e2c565b610a9a565b34801561048457600080fd5b5061039d610493366004614e8b565b610cfb565b3480156104a457600080fd5b506102cd6104b3366004614d76565b610d21565b3480156104c457600080fd5b506102cd6104d3366004614d76565b610e40565b3480156104e457600080fd5b5061044a7f6e71edae12b1b97f4d1f60370fef10105fa2faae0126114a169c64845d6126c981565b34801561051857600080fd5b5060125b60405160ff9091168152602001610302565b34801561053a57600080fd5b50600a5461044a565b34801561054f57600080fd5b506102cd61055e366004614ee5565b610f5c565b34801561056f57600080fd5b5061044a60105481565b34801561058557600080fd5b50600b5460ff1661039d565b34801561059d57600080fd5b5061039d6105ac366004614df2565b610fda565b3480156105bd57600080fd5b50600d54600e54600f54604080516001600160a01b03948516815293909216602084015290820152606001610302565b3480156105f957600080fd5b506102cd610608366004614df2565b610ffc565b34801561061957600080fd5b506102cd610628366004614f2b565b6110cd565b34801561063957600080fd5b506106426110d7565b6040516103029190614f88565b34801561065b57600080fd5b506102cd611138565b34801561067057600080fd5b506102cd61067f366004614d76565b611213565b34801561069057600080fd5b506102cd61069f366004614e8b565b6113da565b3480156106b057600080fd5b506102ee6106bf3660046150d3565b611593565b3480156106d057600080fd5b50600161051c565b3480156106e457600080fd5b50610642611a1e565b3480156106f957600080fd5b5061044a610708366004614d76565b6001600160a01b031660009081526020819052604090205490565b34801561072f57600080fd5b506102cd61073e366004614df2565b611a7e565b34801561074f57600080fd5b506102cd61075e36600461515a565b611a93565b34801561076f57600080fd5b50610778611eca565b60405161030291906151cd565b34801561079157600080fd5b5061044a6107a0366004614d76565b60116020526000908152604090205481565b3480156107be57600080fd5b506102cd611f3f565b3480156107d357600080fd5b506102cd6107e236600461526d565b611f9e565b3480156107f357600080fd5b5061044a61080236600461534a565b61228b565b34801561081357600080fd5b506103706125a4565b34801561082857600080fd5b5061039d610837366004614d76565b6125b3565b34801561084857600080fd5b506102cd610857366004614d76565b612631565b34801561086857600080fd5b5061039d610877366004614df2565b61274d565b34801561088857600080fd5b5061039d610897366004614df2565b6127d3565b3480156108a857600080fd5b5061039d6108b7366004614d76565b6001600160a01b031660009081526005602052604090205460ff1690565b3480156108e157600080fd5b506102cd6108f0366004614d76565b6127e1565b34801561090157600080fd5b506102cd6109103660046153b5565b6128fd565b34801561092157600080fd5b5061039d61093036600461543a565b612ab8565b34801561094157600080fd5b506102cd61095036600461553b565b612beb565b34801561096157600080fd5b5061044a6109703660046155a9565b612dfd565b6102cd612e28565b34801561098957600080fd5b506102ee612e68565b34801561099e57600080fd5b5061044a670de0b6b3a764000081565b3480156109ba57600080fd5b506102ee6109c9366004614f2b565b612f01565b3480156109da57600080fd5b506012546102ee906001600160a01b031681565b6060600880546109fd906155e2565b80601f0160208091040260200160405190810160405280929190818152602001828054610a29906155e2565b8015610a765780601f10610a4b57610100808354040283529160200191610a76565b820191906000526020600020905b815481529060010190602001808311610a5957829003601f168201915b5050505050905090565b600033610a8e818585612f2b565b60019150505b92915050565b600b5460405163160a792560e01b81523360048201526101009091046001600160a01b03169063160a792590602401608060405180830381865afa158015610ae6573d6000803e3d6000fd5b505050506040513d601f19601f82011682018060405250810190610b0a9190615617565b6020015180610b915750600b546040516331a9108f60e11b815260016004820152339161010090046001600160a01b031690636352211e90602401602060405180830381865afa158015610b62573d6000803e3d6000fd5b505050506040513d601f19601f82011682018060405250810190610b86919061569b565b6001600160a01b0316145b610bb65760405162461bcd60e51b8152600401610bad906156b8565b60405180910390fd5b60026007541415610bd95760405162461bcd60e51b8152600401610bad906156ed565b60026007558115610bed57610bed85613050565b601580546001810182556000919091527f55f448fdea98c4d29eb340757ef0a66cd03dbb9538908a6a81d96026b71ec4750180546001600160a01b0319166001600160a01b0387169081179091556040519081527fa31ffd41531537eb31bfd827a3f5372b5f62bf4dd8579e5354b280dc58490e709060200160405180910390a1601254604051636b14d00560e11b81526001600160a01b038781166004830152306024830152604482018790526064820186905233608483015283811660a48301529091169063d629a00a9060c401600060405180830381600087803b158015610cd757600080fd5b505af1158015610ceb573d6000803e3d6000fd5b5050600160075550505050505050565b600033610d09858285613127565b610d148585856131a1565b60019150505b9392505050565b600b5460405163160a792560e01b81523360048201526101009091046001600160a01b03169063160a792590602401608060405180830381865afa158015610d6d573d6000803e3d6000fd5b505050506040513d601f19601f82011682018060405250810190610d919190615617565b6020015180610e185750600b546040516331a9108f60e11b815260016004820152339161010090046001600160a01b031690636352211e90602401602060405180830381865afa158015610de9573d6000803e3d6000fd5b505050506040513d601f19601f82011682018060405250810190610e0d919061569b565b6001600160a01b0316145b610e345760405162461bcd60e51b8152600401610bad906156b8565b610e3d8161336f565b50565b600b5460405163160a792560e01b81523360048201526101009091046001600160a01b03169063160a792590602401608060405180830381865afa158015610e8c573d6000803e3d6000fd5b505050506040513d601f19601f82011682018060405250810190610eb09190615617565b6020015180610f375750600b546040516331a9108f60e11b815260016004820152339161010090046001600160a01b031690636352211e90602401602060405180830381865afa158015610f08573d6000803e3d6000fd5b505050506040513d601f19601f82011682018060405250810190610f2c919061569b565b6001600160a01b0316145b610f535760405162461bcd60e51b8152600401610bad906156b8565b610e3d816133e1565b60026007541415610f7f5760405162461bcd60e51b8152600401610bad906156ed565b600260075560408051838152336020820152428183015243606082015290517f526e31449ea46e2aecf9b480c8d7dfa191348ef74ffdf75b445a6ab726daa6ff9181900360800190a1610fd181613441565b50506001600755565b600033610a8e818585610fed8383612dfd565b610ff7919061573a565b612f2b565b3360009081526005602052604090205460ff1661105b5760405162461bcd60e51b815260206004820152601960248201527f455243323054656d706c6174653a204e4f54204d494e544552000000000000006044820152606401610bad565b600a546110718261106b60025490565b90613853565b11156110bf5760405162461bcd60e51b815260206004820152601f60248201527f44617461746f6b656e54656d706c6174653a20636170206578636565646564006044820152606401610bad565b6110c9828261385f565b5050565b610e3d338261393e565b60606015805480602002602001604051908101604052809291908181526020018280548015610a7657602002820191906000526020600020905b81546001600160a01b03168152600190910190602001808311611111575050505050905090565b600b546040516331a9108f60e11b8152600160048201526101009091046001600160a01b031690636352211e90602401602060405180830381865afa158015611185573d6000803e3d6000fd5b505050506040513d601f19601f820116820180604052508101906111a9919061569b565b6001600160a01b0316336001600160a01b0316146112095760405162461bcd60e51b815260206004820152601b60248201527f455243323054656d706c6174653a206e6f74204e46544f776e657200000000006044820152606401610bad565b611211613a89565b565b33600090815260056020526040902054610100900460ff16806112a65750600b5460405163160a792560e01b81523360048201526101009091046001600160a01b03169063160a792590602401608060405180830381865afa15801561127d573d6000803e3d6000fd5b505050506040513d601f19601f820116820180604052508101906112a19190615617565b602001515b806113295750600b546040516331a9108f60e11b815260016004820152339161010090046001600160a01b031690636352211e90602401602060405180830381865afa1580156112fa573d6000803e3d6000fd5b505050506040513d601f19601f8201168201806040525081019061131e919061569b565b6001600160a01b0316145b6113895760405162461bcd60e51b815260206004820152602b60248201527f455243323054656d706c6174653a204e4f54205041594d454e54204d414e414760448201526a22a91037b91027aba722a960a91b6064820152608401610bad565b61139281613f57565b604080514281524360208201526001600160a01b0383169133917f4d7694d695c57cc54947177c8e8a0e61aae664e9223492a798c32fadfc6419cc910160405180910390a350565b600d546001600160a01b031633146114475760405162461bcd60e51b815260206004820152602a60248201527f455243323054656d706c6174653a206e6f74207075626c6973684d61726b65746044820152694665654164647265737360b01b6064820152608401610bad565b6001600160a01b0383166114ae5760405162461bcd60e51b815260206004820152602860248201527f496e76616c6964205f7075626c6973684d61726b657446656541646472657373604482015267206164647265737360c01b6064820152608401610bad565b6001600160a01b0382166115135760405162461bcd60e51b815260206004820152602660248201527f496e76616c6964205f7075626c6973684d61726b6574466565546f6b656e206160448201526564647265737360d01b6064820152608401610bad565b600d80546001600160a01b038581166001600160a01b03199283168117909355600e8054918616919092168117909155600f839055604080513381526020810193909352820152606081018290527f02ab4b3fc023109c2d0da394bda239166c833f63c42b71b67ed4b836dca0ddfe9060800160405180910390a1505050565b600b5460405163160a792560e01b815233600482015260009161010090046001600160a01b03169063160a792590602401608060405180830381865afa1580156115e1573d6000803e3d6000fd5b505050506040513d601f19601f820116820180604052508101906116059190615617565b602001518061168c5750600b546040516331a9108f60e11b815260016004820152339161010090046001600160a01b031690636352211e90602401602060405180830381865afa15801561165d573d6000803e3d6000fd5b505050506040513d601f19601f82011682018060405250810190611681919061569b565b6001600160a01b0316145b6116a85760405162461bcd60e51b8152600401610bad906156b8565b600260075414156116cb5760405162461bcd60e51b8152600401610bad906156ed565b60026007556116d960025490565b156117325760405162461bcd60e51b8152602060048201526024808201527f455243323054656d706c6174653a20746f6b656e7320616c7265616479206d696044820152631b9d195960e21b6064820152608401610bad565b6117558260008151811061174857611748615752565b6020026020010151613050565b601260009054906101000a90046001600160a01b03166001600160a01b031663510f34656040518163ffffffff1660e01b8152600401602060405180830381865afa1580156117a8573d6000803e3d6000fd5b505050506040513d601f19601f820116820180604052508101906117cc9190615768565b846003815181106117df576117df615752565b602002602001015110156118755760405162461bcd60e51b815260206004820152605160248201527f455243323054656d706c6174653a2056657374696e6720706572696f6420746f60448201527f6f206c6f772e2053656520466163746f7279526f757465722e6d696e56657374606482015270696e67506572696f64496e426c6f636b7360781b608482015260a401610bad565b60006040518060400160405280306001600160a01b03166001600160a01b03168152602001846001815181106118ad576118ad615752565b60209081029190910101516001600160a01b0390811690915260125460405163ee3bc63560e01b8152929350169063ee3bc635906118f59084908990899089906004016157b1565b6020604051808303816000875af1158015611914573d6000803e3d6000fd5b505050506040513d601f19601f82011682018060405250810190611938919061569b565b6013805460018101825560009182527f66de8ffda797e3de9c05e8fc57b3bf0ec28a930d40b0d285d93c06501cf6a0900180546001600160a01b0319166001600160a01b03841617905584519193507fd02da1bec30f7f750aa0a131745dfb9ce96767c45a192dc26409f5d690e0b96791849186916119b9576119b9615752565b6020026020010151856001815181106119d4576119d4615752565b6020026020010151604051611a09939291906001600160a01b0393841681529183166020830152909116604082015260600190565b60405180910390a15060016007559392505050565b60606013805480602002602001604051908101604052809291908181526020018280548015610a76576020028201919060005260206000209081546001600160a01b03168152600190910190602001808311611111575050505050905090565b611a89823383613127565b6110c9828261393e565b60026007541415611ab65760405162461bcd60e51b8152600401610bad906156ed565b600260075533600090815260208190526040902054670de0b6b3a764000090811115611b305760405162461bcd60e51b8152602060048201526024808201527f4e6f7420656e6f7567682064617461746f6b656e7320746f207374617274204f604482015263393232b960e11b6064820152608401610bad565b600d5460408051338152602081018490529081018690524260608201524360808201526001600160a01b03918216918716907fe1c4fa794edfa8f619b8257a077398950357b9c6398528f94480307352f9afcc9060a00160405180910390a36000600f54118015611bab5750600e546001600160a01b031615155b8015611bc15750600d546001600160a01b031615155b15611c3657600e54600d54600f54611be9926001600160a01b03908116923392911690613f79565b600e54600d54600f546040519081526001600160a01b0392831692909116907f4049a448ac6f0284a98d2cb9199e73605944ea5bec901a037f88c84703de82b29060200160405180910390a35b60008260400135118015611c6357506000611c576040840160208501614d76565b6001600160a01b031614155b8015611c8557506000611c796020840184614d76565b6001600160a01b031614155b15611d2257611cb5611c9d6040840160208501614d76565b33611cab6020860186614d76565b8560400135613f79565b611cc56040830160208401614d76565b6001600160a01b0316611cdb6020840184614d76565b6001600160a01b03167f6d11837f46cc09b011cf4aae09fcade046c020aac088090ae4f77ff67b7079728460400135604051611d1991815260200190565b60405180910390a35b611d2b83613441565b60125460408051637d28354d60e01b815290516000926001600160a01b031691637d28354d9160048083019260209291908290030181865afa158015611d75573d6000803e3d6000fd5b505050506040513d601f19601f82011682018060405250810190611d999190615768565b9050611db0611da6612e68565b61089784846140c7565b611dfc5760405162461bcd60e51b815260206004820152601e60248201527f4661696c656420746f2073656e6420445420746f207075626c697368657200006044820152606401610bad565b60125460408051631a81876d60e01b81529051611e71926001600160a01b031691631a81876d9160048083019260209291908290030181865afa158015611e47573d6000803e3d6000fd5b505050506040513d601f19601f82011682018060405250810190611e6b919061569b565b826127d3565b611ebd5760405162461bcd60e51b815260206004820152601860248201527f4661696c656420746f2073656e6420445420746f204f504300000000000000006044820152606401610bad565b5050600160075550505050565b60606014805480602002602001604051908101604052809291908181526020016000905b82821015611f36576000848152602090819020604080518082019091526002850290910180546001600160a01b03168252600190810154828401529083529092019101611eee565b50505050905090565b600b5461010090046001600160a01b031633146112095760405162461bcd60e51b815260206004820152601f60248201527f455243323054656d706c6174653a204e4f542037323120436f6e7472616374006044820152606401610bad565b336001600160a01b0382161415611ff75760405162461bcd60e51b815260206004820152601f60248201527f50726f76696465722063616e6e6f742062652074686520636f6e73756d6572006044820152606401610bad565b60006040518060400160405280601c81526020017f19457468657265756d205369676e6564204d6573736167653a0a33320000000081525090506000818c8c8c6040516020016120499392919061581c565b60405160208183030381529060405280519060200120604051602001612070929190615836565b604051602081830303815290604052805190602001209050336001600160a01b03166120d2828b8b8080601f0160208091040260200160405190810160405280939291908181526020018383808284376000920191909152506140d392505050565b6001600160a01b0316146121285760405162461bcd60e51b815260206004820152601f60248201527f50726f7669646572207369676e617475726520636865636b206661696c6564006044820152606401610bad565b600082888860405160200161213e929190615858565b60405160208183030381529060405280519060200120604051602001612165929190615836565b604051602081830303815290604052805190602001209050836001600160a01b03166121c78288888080601f0160208091040260200160405190810160405280939291908181526020018383808284376000920191909152506140d392505050565b6001600160a01b03161461221d5760405162461bcd60e51b815260206004820152601f60248201527f436f6e73756d6572207369676e617475726520636865636b206661696c6564006044820152606401610bad565b836001600160a01b0316336001600160a01b03167fc9a10280e9c735c63092fa5431e6acb3ed342e08b69a083e5e676994eb7070f98f8f8f8f8f8f8f8f8f42436040516122749b9a99989796959493929190615891565b60405180910390a350505050505050505050505050565b600b5460405163160a792560e01b815233600482015260009161010090046001600160a01b03169063160a792590602401608060405180830381865afa1580156122d9573d6000803e3d6000fd5b505050506040513d601f19601f820116820180604052508101906122fd9190615617565b60200151806123845750600b546040516331a9108f60e11b815260016004820152339161010090046001600160a01b031690636352211e90602401602060405180830381865afa158015612355573d6000803e3d6000fd5b505050506040513d601f19601f82011682018060405250810190612379919061569b565b6001600160a01b0316145b6123a05760405162461bcd60e51b8152600401610bad906156b8565b600260075414156123c35760405162461bcd60e51b8152600401610bad906156ed565b60026007819055506000826004815181106123e0576123e0615752565b602002602001015111156123f7576123f784613050565b601254604051638244937560e01b81526001600160a01b039091169063824493759061242b90879087908790600401615903565b6020604051808303816000875af115801561244a573d6000803e3d6000fd5b505050506040513d601f19601f8201168201806040525081019061246e9190615768565b90508260008151811061248357612483615752565b60200260200101516001600160a01b0316836001815181106124a7576124a7615752565b60200260200101516001600160a01b03167fb3fac3ae95956dbac74e63ba8dac94081832395c8788e3049c900a7732f3480583876040516124fb9291909182526001600160a01b0316602082015260400190565b60405180910390a3604080518082019091526001600160a01b03948516815260208101828152601480546001808201835560009290925292517fce6d7b5282bd9a3661ae061feed1dbda4e52ab073b1f9285be6e155d9c38d4ec600290940293840180546001600160a01b0319169190981617909655517fce6d7b5282bd9a3661ae061feed1dbda4e52ab073b1f9285be6e155d9c38d4ed909101556007939093555090919050565b6060600980546109fd906155e2565b600b5460405163160a792560e01b81526001600160a01b0383811660048301526000926101009004169063160a792590602401608060405180830381865afa158015612603573d6000803e3d6000fd5b505050506040513d601f19601f820116820180604052508101906126279190615617565b6020015192915050565b600b5460405163160a792560e01b81523360048201526101009091046001600160a01b03169063160a792590602401608060405180830381865afa15801561267d573d6000803e3d6000fd5b505050506040513d601f19601f820116820180604052508101906126a19190615617565b60200151806127285750600b546040516331a9108f60e11b815260016004820152339161010090046001600160a01b031690636352211e90602401602060405180830381865afa1580156126f9573d6000803e3d6000fd5b505050506040513d601f19601f8201168201806040525081019061271d919061569b565b6001600160a01b0316145b6127445760405162461bcd60e51b8152600401610bad906156b8565b610e3d81613050565b6000338161275b8286612dfd565b9050838110156127bb5760405162461bcd60e51b815260206004820152602560248201527f45524332303a2064656372656173656420616c6c6f77616e63652062656c6f77604482015264207a65726f60d81b6064820152608401610bad565b6127c88286868403612f2b565b506001949350505050565b600033610a8e8185856131a1565b600b5460405163160a792560e01b81523360048201526101009091046001600160a01b03169063160a792590602401608060405180830381865afa15801561282d573d6000803e3d6000fd5b505050506040513d601f19601f820116820180604052508101906128519190615617565b60200151806128d85750600b546040516331a9108f60e11b815260016004820152339161010090046001600160a01b031690636352211e90602401602060405180830381865afa1580156128a9573d6000803e3d6000fd5b505050506040513d601f19601f820116820180604052508101906128cd919061569b565b6001600160a01b0316145b6128f45760405162461bcd60e51b8152600401610bad906156b8565b610e3d816141ab565b600b5460405163160a792560e01b81523360048201526101009091046001600160a01b03169063160a792590602401608060405180830381865afa158015612949573d6000803e3d6000fd5b505050506040513d601f19601f8201168201806040525081019061296d9190615617565b60200151806129f45750600b546040516331a9108f60e11b815260016004820152339161010090046001600160a01b031690636352211e90602401602060405180830381865afa1580156129c5573d6000803e3d6000fd5b505050506040513d601f19601f820116820180604052508101906129e9919061569b565b6001600160a01b0316145b612a105760405162461bcd60e51b8152600401610bad906156b8565b6040516bffffffffffffffffffffffff193060601b16602082015260009060340160408051808303601f19018152908290528051602090910120600b546301caf8fd60e31b835290925061010090046001600160a01b031690630e57c7e890612a8190849087908790600401615943565b600060405180830381600087803b158015612a9b57600080fd5b505af1158015612aaf573d6000803e3d6000fd5b50505050505050565b600b5460009060ff1615612b285760405162461bcd60e51b815260206004820152603160248201527f455243323054656d706c6174653a20746f6b656e20696e7374616e636520616c6044820152701c9958591e481a5b9a5d1a585b1a5e9959607a1b6064820152608401610bad565b612bdc612b358b8d6159bd565b8a8a8080602002602001604051908101604052809392919081815260200183836020028082843760009201919091525050604080516020808e0282810182019093528d82529093508d92508c91829185019084908082843760009201919091525050604080516020808d0282810182019093528c82529093508c92508b918291850190849080828437600092019190915250612bd792508991508a9050615a44565b61428c565b9b9a5050505050505050505050565b43841015612c2e5760405162461bcd60e51b815260206004820152601060248201526f115490cc8c11150e881156141254915160821b6044820152606401610bad565b6010546001600160a01b038816600090815260116020526040812080549192917f6e71edae12b1b97f4d1f60370fef10105fa2faae0126114a169c64845d6126c9918b918b918b919087612c8183615abf565b909155506040805160208101969096526001600160a01b0394851690860152929091166060840152608083015260a082015260c0810187905260e00160405160208183030381529060405280519060200120604051602001612cfa92919061190160f01b81526002810192909252602282015260420190565b60408051601f198184030181528282528051602091820120600080855291840180845281905260ff88169284019290925260608301869052608083018590529092509060019060a0016020604051602081039080840390855afa158015612d65573d6000803e3d6000fd5b5050604051601f1901519150506001600160a01b03811615801590612d9b5750886001600160a01b0316816001600160a01b0316145b612de75760405162461bcd60e51b815260206004820152601a60248201527f455243323044543a20494e56414c49445f5349474e41545552450000000000006044820152606401610bad565b612df2898989612f2b565b505050505050505050565b6001600160a01b03918216600090815260016020908152604080832093909416825291909152205490565b612e30612e68565b6001600160a01b03166108fc479081150290604051600060405180830381858888f19350505050158015610e3d573d6000803e3d6000fd5b600c546000906001600160a01b0316612ef157600b546040516331a9108f60e11b8152600160048201526101009091046001600160a01b031690636352211e90602401602060405180830381865afa158015612ec8573d6000803e3d6000fd5b505050506040513d601f19601f82011682018060405250810190612eec919061569b565b905090565b50600c546001600160a01b031690565b60068181548110612f1157600080fd5b6000918252602090912001546001600160a01b0316905081565b6001600160a01b038316612f8d5760405162461bcd60e51b8152602060048201526024808201527f45524332303a20617070726f76652066726f6d20746865207a65726f206164646044820152637265737360e01b6064820152608401610bad565b6001600160a01b038216612fee5760405162461bcd60e51b815260206004820152602260248201527f45524332303a20617070726f766520746f20746865207a65726f206164647265604482015261737360f01b6064820152608401610bad565b6001600160a01b0383811660008181526001602090815260408083209487168084529482529182902085905590518481527f8c5be1e5ebec7d5bd14f71427d1e84f3dd0314c0f7b2291e5b200ac8c7c3b92591015b60405180910390a3505050565b6001600160a01b03811615610e3d576001600160a01b0381166000908152600560205260409020805460ff16156130c95760405162461bcd60e51b815260206004820152601d60248201527f4552433230526f6c65733a2020414c52454144592041204d494e5445520000006044820152606401610bad565b805460ff191660011781556130dd826146e4565b6040805142815243602082015233916001600160a01b038516917f4f7e100eb1ee13e903798bd0d6aa854152e07eb05544f392b9409c12935c809591015b60405180910390a35050565b60006131338484612dfd565b9050600019811461319b578181101561318e5760405162461bcd60e51b815260206004820152601d60248201527f45524332303a20696e73756666696369656e7420616c6c6f77616e63650000006044820152606401610bad565b61319b8484848403612f2b565b50505050565b6001600160a01b0383166132055760405162461bcd60e51b815260206004820152602560248201527f45524332303a207472616e736665722066726f6d20746865207a65726f206164604482015264647265737360d81b6064820152608401610bad565b6001600160a01b0382166132675760405162461bcd60e51b815260206004820152602360248201527f45524332303a207472616e7366657220746f20746865207a65726f206164647260448201526265737360e81b6064820152608401610bad565b6001600160a01b038316600090815260208190526040902054818110156132df5760405162461bcd60e51b815260206004820152602660248201527f45524332303a207472616e7366657220616d6f756e7420657863656564732062604482015265616c616e636560d01b6064820152608401610bad565b6001600160a01b0380851660009081526020819052604080822085850390559185168152908120805484929061331690849061573a565b92505081905550826001600160a01b0316846001600160a01b03167fddf252ad1be2c89b69c2b068fc378daa952ba7f163c4a11628f55a4df523b3ef8460405161336291815260200190565b60405180910390a361319b565b6001600160a01b03811660008181526005602052604090819020805461ff00191681559051909133917faee911eec8b2df8f3ae0464841541b1e5f339519bd5cf51889fe8b07fecff658906133d09042904390918252602082015260400190565b60405180910390a36110c98261479b565b6001600160a01b03811660008181526005602052604090819020805460ff191681559051909133917fefa2735987005aaa89c050c0ff8cc9ae7d9079d19382081c429130f98c52d480906133d09042904390918252602082015260400190565b60408051808201909152601c81527f19457468657265756d205369676e6564204d6573736167653a0a333200000000602082015260008161348560e0850185615ada565b6134926020870187614d76565b6134a26040880160208901614d76565b87604001358860c001356040516020016134c196959493929190615b20565b604051602081830303815290604052805190602001206040516020016134e8929190615836565b60408051601f198184030181529190528051602090910120905060006001826135176080870160608801615b5e565b6040805160008152602081018083529390935260ff90911690820152608080870135606083015260a08088013591830191909152016020604051602081039080840390855afa15801561356e573d6000803e3d6000fd5b5050604051601f190151915061358990506020850185614d76565b6001600160a01b0316816001600160a01b0316146135e05760405162461bcd60e51b8152602060048201526014602482015273496e76616c69642070726f76696465722066656560601b6044820152606401610bad565b6135f06040850160208601614d76565b6001600160a01b03166136066020860186614d76565b6001600160a01b03167ff8ed11cdaaf10eca2b6c941fb802cb8682afe86cac1eb93f70d0780fa062c544604087013561364260e0890189615ada565b61365260808b0160608c01615b5e565b8a608001358b60a001358c60c001356040516136749796959493929190615b79565b60405180910390a3600084604001351180156136a95750600061369d6040860160208701614d76565b6001600160a01b031614155b80156136cb575060006136bf6020860186614d76565b6001600160a01b031614155b1561319b5760125460408051636c45e88160e01b815290516000926001600160a01b031691636c45e8819160048083019260209291908290030181865afa15801561371a573d6000803e3d6000fd5b505050506040513d601f19601f8201168201806040525081019061373e9190615768565b90506000811561376b57613768670de0b6b3a76400006137626040890135856148e9565b906148f5565b90505b600061377b6040880135836140c7565b905061379c6137906040890160208a01614d76565b33308a60400135613f79565b6137cd6137ac6020890189614d76565b826137bd60408b0160208c01614d76565b6001600160a01b03169190614901565b8115612aaf5760125460408051631a81876d60e01b81529051612aaf926001600160a01b031691631a81876d9160048083019260209291908290030181865afa15801561381e573d6000803e3d6000fd5b505050506040513d601f19601f82011682018060405250810190613842919061569b565b836137bd60408b0160208c01614d76565b6000610d1a828461573a565b6001600160a01b0382166138b55760405162461bcd60e51b815260206004820152601f60248201527f45524332303a206d696e7420746f20746865207a65726f2061646472657373006044820152606401610bad565b80600260008282546138c7919061573a565b90915550506001600160a01b038216600090815260208190526040812080548392906138f490849061573a565b90915550506040518181526001600160a01b038316906000907fddf252ad1be2c89b69c2b068fc378daa952ba7f163c4a11628f55a4df523b3ef9060200160405180910390a35050565b6001600160a01b03821661399e5760405162461bcd60e51b815260206004820152602160248201527f45524332303a206275726e2066726f6d20746865207a65726f206164647265736044820152607360f81b6064820152608401610bad565b6001600160a01b03821660009081526020819052604090205481811015613a125760405162461bcd60e51b815260206004820152602260248201527f45524332303a206275726e20616d6f756e7420657863656564732062616c616e604482015261636560f01b6064820152608401610bad565b6001600160a01b0383166000908152602081905260408120838303905560028054849290613a41908490615bbc565b90915550506040518281526000906001600160a01b038516907fddf252ad1be2c89b69c2b068fc378daa952ba7f163c4a11628f55a4df523b3ef90602001613043565b505050565b601554601454600091613a9b9161573a565b9050600080826001600160401b03811115613ab857613ab8614f9b565b604051908082528060200260200182016040528015613ae1578160200160208202803683370190505b50905060005b601454811015613dc757600060148281548110613b0657613b06615752565b60009182526020822060029091020154601480546001600160a01b039092169350829182918591634c87087d919088908110613b4457613b44615752565b9060005260206000209060020201600101546040518263ffffffff1660e01b8152600401613b7491815260200190565b61018060405180830381865afa158015613b92573d6000803e3d6000fd5b505050506040513d601f19601f82011682018060405250810190613bb69190615bd3565b9b509b509b505050505050505050506000821115613c5c57836001600160a01b031663f32f947660148781548110613bf057613bf0615752565b906000526020600020906002020160010154846040518363ffffffff1660e01b8152600401613c29929190918252602082015260400190565b600060405180830381600087803b158015613c4357600080fd5b505af1158015613c57573d6000803e3d6000fd5b505050505b8215613cf057836001600160a01b031663c612e48a60148781548110613c8457613c84615752565b906000526020600020906002020160010154856040518363ffffffff1660e01b8152600401613cbd929190918252602082015260400190565b600060405180830381600087803b158015613cd757600080fd5b505af1158015613ceb573d6000803e3d6000fd5b505050505b613d3360148681548110613d0657613d06615752565b600091825260208083206002909202909101546001600160a01b0316825260059052604090205460ff1690565b8015613d4157506001811515145b15613db05760148581548110613d5957613d59615752565b600091825260209091206002909102015486516001600160a01b0390911690879089908110613d8a57613d8a615752565b6001600160a01b039092166020928302919091019091015286613dac81615abf565b9750505b505050508080613dbf90615abf565b915050613ae7565b5060005b601554811015613f0c5760158181548110613de857613de8615752565b60009182526020909120015460405163f9bfaa7d60e01b81523060048201526001600160a01b039091169063f9bfaa7d90602401600060405180830381600087803b158015613e3657600080fd5b505af1158015613e4a573d6000803e3d6000fd5b50505050613e8c60158281548110613e6457613e64615752565b60009182526020808320909101546001600160a01b0316825260059052604090205460ff1690565b15613efa5760158181548110613ea457613ea4615752565b9060005260206000200160009054906101000a90046001600160a01b0316828481518110613ed457613ed4615752565b6001600160a01b039092166020928302919091019091015282613ef681615abf565b9350505b80613f0481615abf565b915050613dcb565b613f14614964565b50600c80546001600160a01b031916905560005b8281101561319b57613f4582828151811061174857611748615752565b80613f4f81615abf565b915050613f28565b600c80546001600160a01b0319166001600160a01b0392909216919091179055565b6040516370a0823160e01b81526001600160a01b038381166004830152600091908616906370a0823190602401602060405180830381865afa158015613fc3573d6000803e3d6000fd5b505050506040513d601f19601f82011682018060405250810190613fe79190615768565b9050613ffe6001600160a01b038616858585614a13565b6140088183613853565b6040516370a0823160e01b81526001600160a01b0385811660048301528716906370a0823190602401602060405180830381865afa15801561404e573d6000803e3d6000fd5b505050506040513d601f19601f820116820180604052508101906140729190615768565b10156140c05760405162461bcd60e51b815260206004820152601a60248201527f5472616e7366657220616d6f756e7420697320746f6f206c6f770000000000006044820152606401610bad565b5050505050565b6000610d1a8284615bbc565b60008060008084516041146140ee5760009350505050610a94565b50505060208201516040830151604184015160ff16601b81101561411a57614117601b82615c90565b90505b8060ff16601b1415801561413257508060ff16601c14155b156141435760009350505050610a94565b60408051600081526020810180835288905260ff831691810191909152606081018490526080810183905260019060a0016020604051602081039080840390855afa158015614196573d6000803e3d6000fd5b5050604051601f190151979650505050505050565b6001600160a01b03811615610e3d576001600160a01b03811660009081526005602052604090208054610100900460ff16156142345760405162461bcd60e51b815260206004820152602260248201527f4552433230526f6c65733a2020414c5245414459204120464545204d414e414760448201526122a960f11b6064820152608401610bad565b805461ff00191661010017815561424a826146e4565b6040805142815243602082015233916001600160a01b038516917fb17da2e9910b4ba5754e8872385ba315a238bafb5ae221fc85093c33432c40a7910161311b565b600080846000815181106142a2576142a2615752565b60200260200101519050846001815181106142bf576142bf615752565b6020908102919091010151601280546001600160a01b0319166001600160a01b0392831617905581166143495760405162461bcd60e51b815260206004820152602c60248201527f455243323054656d706c6174653a20496e76616c6964206d696e7465722c202060448201526b7a65726f206164647265737360a01b6064820152608401610bad565b6012546001600160a01b03166143b55760405162461bcd60e51b815260206004820152602b60248201527f455243323054656d706c6174653a20496e76616c696420726f757465722c207a60448201526a65726f206164647265737360a81b6064820152608401610bad565b600019600a55865187906000906143ce576143ce615752565b6020026020010151600890805190602001906143eb929190614c9e565b50866001815181106143ff576143ff615752565b60200260200101516009908051906020019061441c929190614c9e565b50600b805460ff196001600160a01b03841661010002166001600160a81b0319909116176001179055855161445c90879060009061174857611748615752565b60006001600160a01b03168660018151811061447a5761447a615752565b60200260200101516001600160a01b031614614524576144b3866001815181106144a6576144a6615752565b6020026020010151613f57565b856001815181106144c6576144c6615752565b60200260200101516001600160a01b0316336001600160a01b03167f4d7694d695c57cc54947177c8e8a0e61aae664e9223492a798c32fadfc6419cc424360405161451b929190918252602082015260400190565b60405180910390a35b8560028151811061453757614537615752565b6020026020010151600d60006101000a8154816001600160a01b0302191690836001600160a01b031602179055508560038151811061457857614578615752565b6020026020010151600e60006101000a8154816001600160a01b0302191690836001600160a01b03160217905550836001815181106145b9576145b9615752565b602090810291909101810151600f819055600d54600e54604080513381526001600160a01b039384169581019590955291169083015260608201527f02ab4b3fc023109c2d0da394bda239166c833f63c42b71b67ed4b836dca0ddfe9060800160405180910390a160405146907f8b73c3c69bb8fe3d512ecc4cf759cc79239f7b179b0ffacaa9a75d522b39400f9061465490600890615cb5565b60408051918290038220828201825260018352603160f81b6020938401528151928301939093528101919091527fc89efdaa54c0f20c7adf612882df0950f5a951637e0307cdcb4c672f298b8bc66060820152608081018290523060a082015260c00160408051808303601f1901815291905280516020909101206010555050600b5460ff169695505050505050565b60005b60065481101561474057816001600160a01b03166006828154811061470e5761470e615752565b6000918252602090912001546001600160a01b0316141561472e57614740565b8061473881615abf565b9150506146e7565b6006548114156110c957600680546001810182556000919091527ff652222313e28459528d920b65115c16c04f3efc82aaedc97be59f3f377c0d3f0180546001600160a01b0384166001600160a01b03199091161790555050565b6001600160a01b0381166000908152600560205260409020805460ff161580156147cc57508054610100900460ff16155b156110c95760005b60065481101561482d57826001600160a01b0316600682815481106147fb576147fb615752565b6000918252602090912001546001600160a01b0316141561481b5761482d565b8061482581615abf565b9150506147d4565b600654811015613a84576006805461484790600190615bbc565b8154811061485757614857615752565b600091825260209091200154600680546001600160a01b03909216918390811061488357614883615752565b9060005260206000200160006101000a8154816001600160a01b0302191690836001600160a01b0316021790555060068054806148c2576148c2615d51565b600082815260209020810160001990810180546001600160a01b0319169055019055505050565b6000610d1a8284615d67565b6000610d1a8284615d86565b6040516001600160a01b038316602482015260448101829052613a8490849063a9059cbb60e01b906064015b60408051601f198184030181529190526020810180516001600160e01b03166001600160e01b031990931692909217909152614a4b565b60005b6006548110156149ca576000600560006006848154811061498a5761498a615752565b60009182526020808320909101546001600160a01b031683528201929092526040019020805461ffff1916905550806149c281615abf565b915050614967565b506149d760066000614d22565b6040805142815243602082015233917f712bc71db81927a76b8bf1ea346247bb0ad58f18e4e5c1bd4aa0ec6573e02a2b910160405180910390a2565b6040516001600160a01b038085166024830152831660448201526064810182905261319b9085906323b872dd60e01b9060840161492d565b6000614aa0826040518060400160405280602081526020017f5361666545524332303a206c6f772d6c6576656c2063616c6c206661696c6564815250856001600160a01b0316614b1d9092919063ffffffff16565b805190915015613a845780806020019051810190614abe9190615da8565b613a845760405162461bcd60e51b815260206004820152602a60248201527f5361666545524332303a204552433230206f7065726174696f6e20646964206e6044820152691bdd081cdd58d8d9595960b21b6064820152608401610bad565b6060614b2c8484600085614b34565b949350505050565b606082471015614b955760405162461bcd60e51b815260206004820152602660248201527f416464726573733a20696e73756666696369656e742062616c616e636520666f6044820152651c8818d85b1b60d21b6064820152608401610bad565b6001600160a01b0385163b614bec5760405162461bcd60e51b815260206004820152601d60248201527f416464726573733a2063616c6c20746f206e6f6e2d636f6e74726163740000006044820152606401610bad565b600080866001600160a01b03168587604051614c089190615dc5565b60006040518083038185875af1925050503d8060008114614c45576040519150601f19603f3d011682016040523d82523d6000602084013e614c4a565b606091505b5091509150614c5a828286614c65565b979650505050505050565b60608315614c74575081610d1a565b825115614c845782518084602001fd5b8160405162461bcd60e51b8152600401610bad9190614dbf565b828054614caa906155e2565b90600052602060002090601f016020900481019282614ccc5760008555614d12565b82601f10614ce557805160ff1916838001178555614d12565b82800160010185558215614d12579182015b82811115614d12578251825591602001919060010190614cf7565b50614d1e929150614d3c565b5090565b5080546000825590600052602060002090810190610e3d91905b5b80821115614d1e5760008155600101614d3d565b6001600160a01b0381168114610e3d57600080fd5b8035614d7181614d51565b919050565b600060208284031215614d8857600080fd5b8135610d1a81614d51565b60005b83811015614dae578181015183820152602001614d96565b8381111561319b5750506000910152565b6020815260008251806020840152614dde816040850160208701614d93565b601f01601f19169190910160400192915050565b60008060408385031215614e0557600080fd5b8235614e1081614d51565b946020939093013593505050565b8015158114610e3d57600080fd5b600080600080600060a08688031215614e4457600080fd5b8535614e4f81614d51565b945060208601359350604086013592506060860135614e6d81614e1e565b91506080860135614e7d81614d51565b809150509295509295909350565b600080600060608486031215614ea057600080fd5b8335614eab81614d51565b92506020840135614ebb81614d51565b929592945050506040919091013590565b60006101008284031215614edf57600080fd5b50919050565b60008060408385031215614ef857600080fd5b8235915060208301356001600160401b03811115614f1557600080fd5b614f2185828601614ecc565b9150509250929050565b600060208284031215614f3d57600080fd5b5035919050565b600081518084526020808501945080840160005b83811015614f7d5781516001600160a01b031687529582019590820190600101614f58565b509495945050505050565b602081526000610d1a6020830184614f44565b634e487b7160e01b600052604160045260246000fd5b604051601f8201601f191681016001600160401b0381118282101715614fd957614fd9614f9b565b604052919050565b60006001600160401b03821115614ffa57614ffa614f9b565b5060051b60200190565b600082601f83011261501557600080fd5b8135602061502a61502583614fe1565b614fb1565b82815260059290921b8401810191818101908684111561504957600080fd5b8286015b84811015615064578035835291830191830161504d565b509695505050505050565b600082601f83011261508057600080fd5b8135602061509061502583614fe1565b82815260059290921b840181019181810190868411156150af57600080fd5b8286015b848110156150645780356150c681614d51565b83529183019183016150b3565b6000806000606084860312156150e857600080fd5b83356001600160401b03808211156150ff57600080fd5b61510b87838801615004565b9450602086013591508082111561512157600080fd5b61512d87838801615004565b9350604086013591508082111561514357600080fd5b506151508682870161506f565b9150509250925092565b60008060008084860360c081121561517157600080fd5b853561517c81614d51565b94506020860135935060408601356001600160401b0381111561519e57600080fd5b6151aa88828901614ecc565b9350506060605f19820112156151bf57600080fd5b509295919450926060019150565b602080825282518282018190526000919060409081850190868401855b8281101561521857815180516001600160a01b031685528601518685015292840192908501906001016151ea565b5091979650505050505050565b60008083601f84011261523757600080fd5b5081356001600160401b0381111561524e57600080fd5b60208301915083602082850101111561526657600080fd5b9250929050565b60008060008060008060008060008060c08b8d03121561528c57600080fd5b8a35995060208b01356001600160401b03808211156152aa57600080fd5b6152b68e838f01615225565b909b50995060408d01359150808211156152cf57600080fd5b6152db8e838f01615225565b909950975060608d01359150808211156152f457600080fd5b6153008e838f01615225565b909750955060808d013591508082111561531957600080fd5b506153268d828e01615225565b9094509250615339905060a08c01614d66565b90509295989b9194979a5092959850565b60008060006060848603121561535f57600080fd5b833561536a81614d51565b925060208401356001600160401b038082111561538657600080fd5b6153928783880161506f565b935060408601359150808211156153a857600080fd5b5061515086828701615004565b600080602083850312156153c857600080fd5b82356001600160401b038111156153de57600080fd5b6153ea85828601615225565b90969095509350505050565b60008083601f84011261540857600080fd5b5081356001600160401b0381111561541f57600080fd5b6020830191508360208260051b850101111561526657600080fd5b60008060008060008060008060008060a08b8d03121561545957600080fd5b8a356001600160401b038082111561547057600080fd5b61547c8e838f016153f6565b909c509a5060208d013591508082111561549557600080fd5b6154a18e838f016153f6565b909a50985060408d01359150808211156154ba57600080fd5b6154c68e838f016153f6565b909850965060608d01359150808211156154df57600080fd5b6154eb8e838f016153f6565b909650945060808d013591508082111561550457600080fd5b506155118d828e016153f6565b915080935050809150509295989b9194979a5092959850565b803560ff81168114614d7157600080fd5b600080600080600080600060e0888a03121561555657600080fd5b873561556181614d51565b9650602088013561557181614d51565b9550604088013594506060880135935061558d6080890161552a565b925060a0880135915060c0880135905092959891949750929550565b600080604083850312156155bc57600080fd5b82356155c781614d51565b915060208301356155d781614d51565b809150509250929050565b600181811c908216806155f657607f821691505b60208210811415614edf57634e487b7160e01b600052602260045260246000fd5b60006080828403121561562957600080fd5b604051608081018181106001600160401b038211171561564b5761564b614f9b565b604052825161565981614e1e565b8152602083015161566981614e1e565b6020820152604083015161567c81614e1e565b6040820152606083015161568f81614e1e565b60608201529392505050565b6000602082840312156156ad57600080fd5b8151610d1a81614d51565b6020808252818101527f455243323054656d706c6174653a204e4f54204445504c4f59455220524f4c45604082015260600190565b6020808252601f908201527f5265656e7472616e637947756172643a207265656e7472616e742063616c6c00604082015260600190565b634e487b7160e01b600052601160045260246000fd5b6000821982111561574d5761574d615724565b500190565b634e487b7160e01b600052603260045260246000fd5b60006020828403121561577a57600080fd5b5051919050565b600081518084526020808501945080840160005b83811015614f7d57815187529582019590820190600101615795565b60008186825b60028110156157df5781516001600160a01b03168352602092830192909101906001016157b7565b50505060a060408301526157f660a0830186615781565b82810360608401526158088186615781565b90508281036080840152614c5a8185614f44565b838152818360208301376000910160200190815292915050565b60008351615848818460208801614d93565b9190910191825250602001919050565b8183823760009101908152919050565b81835281816020850137506000828201602090810191909152601f909101601f19169091010190565b8b815260e0602082015260006158ab60e083018c8e615868565b82810360408401526158be818b8d615868565b905082810360608401526158d381898b615868565b905082810360808401526158e8818789615868565b60a0840195909552505060c001529998505050505050505050565b6001600160a01b038416815260606020820181905260009061592790830185614f44565b82810360408401526159398185615781565b9695505050505050565b83815260406020820152600061595d604083018486615868565b95945050505050565b60006001600160401b0383111561597f5761597f614f9b565b615992601f8401601f1916602001614fb1565b90508281528383830111156159a657600080fd5b828260208301376000602084830101529392505050565b60006159cb61502584614fe1565b80848252602080830192508560051b8501368111156159e957600080fd5b855b81811015615a385780356001600160401b03811115615a0a5760008081fd5b870136601f820112615a1c5760008081fd5b615a2a368235868401615966565b8652509382019382016159eb565b50919695505050505050565b6000615a5261502584614fe1565b80848252602080830192508560051b850136811115615a7057600080fd5b855b81811015615a385780356001600160401b03811115615a915760008081fd5b870136601f820112615aa35760008081fd5b615ab1368235868401615966565b865250938201938201615a72565b6000600019821415615ad357615ad3615724565b5060010190565b6000808335601e19843603018112615af157600080fd5b8301803591506001600160401b03821115615b0b57600080fd5b60200191503681900382131561526657600080fd5b858782376bffffffffffffffffffffffff19606095861b8116969091019586529290931b909116601484015260288301526048820152606801919050565b600060208284031215615b7057600080fd5b610d1a8261552a565b87815260c060208201526000615b9360c08301888a615868565b905060ff861660408301528460608301528360808301528260a083015298975050505050505050565b600082821015615bce57615bce615724565b500390565b6000806000806000806000806000806000806101808d8f031215615bf657600080fd5b8c51615c0181614d51565b60208e0151909c50615c1281614d51565b60408e015160608f0151919c509a50615c2a81614d51565b8099505060808d0151975060a08d0151965060c08d0151615c4a81614e1e565b8096505060e08d015194506101008d015193506101208d015192506101408d015191506101608d0151615c7c81614e1e565b809150509295989b509295989b509295989b565b600060ff821660ff84168060ff03821115615cad57615cad615724565b019392505050565b600080835481600182811c915080831680615cd157607f831692505b6020808410821415615cf157634e487b7160e01b86526022600452602486fd5b818015615d055760018114615d1657615d43565b60ff19861689528489019650615d43565b60008a81526020902060005b86811015615d3b5781548b820152908501908301615d22565b505084890196505b509498975050505050505050565b634e487b7160e01b600052603160045260246000fd5b6000816000190483118215151615615d8157615d81615724565b500290565b600082615da357634e487b7160e01b600052601260045260246000fd5b500490565b600060208284031215615dba57600080fd5b8151610d1a81614e1e565b60008251615dd7818460208701614d93565b919091019291505056fea2646970667358221220b07d12caa577006b66b6a0349d69789f75fe11c7c0361d95503a740c78a5282764736f6c634300080c0033",
  "linkReferences": {},
  "deployedLinkReferences": {}
}