{
  "_format": "hh-sol-artifact-1",
  "contractName": "DFRewards",
  "sourceName": "contracts/df/DFRewards.sol",
  "abi": [
    {
      "anonymous": false,
      "inputs": [
        {
          "indexed": false,
          "internalType": "address[]",
          "name": "tos",
          "type": "address[]"
        },
        {
          "indexed": false,
          "internalType": "uint256[]",
          "name": "values",
          "type": "uint256[]"
        },
        {
          "indexed": false,
          "internalType": "address",
          "name": "tokenAddress",
          "type": "address"
        }
      ],
      "name": "Allocated",
      "type": "event"
    },
    {
      "anonymous": false,
      "inputs": [
        {
          "indexed": false,
          "internalType": "address",
          "name": "to",
          "type": "address"
        },
        {
          "indexed": false,
          "internalType": "uint256",
          "name": "value",
          "type": "uint256"
        },
        {
          "indexed": false,
          "internalType": "address",
          "name": "tokenAddress",
          "type": "address"
        }
      ],
      "name": "Claimed",
      "type": "event"
    },
    {
      "anonymous": false,
      "inputs": [
        {
          "indexed": true,
          "internalType": "address",
          "name": "previousOwner",
          "type": "address"
        },
        {
          "indexed": true,
          "internalType": "address",
          "name": "newOwner",
          "type": "address"
        }
      ],
      "name": "OwnershipTransferred",
      "type": "event"
    },
    {
      "anonymous": false,
      "inputs": [
        {
          "indexed": false,
          "internalType": "address",
          "name": "strategy",
          "type": "address"
        }
      ],
      "name": "StrategyAdded",
      "type": "event"
    },
    {
      "anonymous": false,
      "inputs": [
        {
          "indexed": false,
          "internalType": "address",
          "name": "strategy",
          "type": "address"
        }
      ],
      "name": "StrategyRetired",
      "type": "event"
    },
    {
      "stateMutability": "nonpayable",
      "type": "fallback"
    },
    {
      "inputs": [
        {
          "internalType": "address",
          "name": "_strategy",
          "type": "address"
        }
      ],
      "name": "addStrategy",
      "outputs": [],
      "stateMutability": "nonpayable",
      "type": "function"
    },
    {
      "inputs": [
        {
          "internalType": "address[]",
          "name": "_tos",
          "type": "address[]"
        },
        {
          "internalType": "uint256[]",
          "name": "_values",
          "type": "uint256[]"
        },
        {
          "internalType": "address",
          "name": "tokenAddress",
          "type": "address"
        }
      ],
      "name": "allocate",
      "outputs": [
        {
          "internalType": "bool",
          "name": "",
          "type": "bool"
        }
      ],
      "stateMutability": "nonpayable",
      "type": "function"
    },
    {
      "inputs": [
        {
          "internalType": "address",
          "name": "_to",
          "type": "address"
        },
        {
          "internalType": "address",
          "name": "tokenAddress",
          "type": "address"
        }
      ],
      "name": "claimFor",
      "outputs": [
        {
          "internalType": "uint256",
          "name": "",
          "type": "uint256"
        }
      ],
      "stateMutability": "nonpayable",
      "type": "function"
    },
    {
      "inputs": [
        {
          "internalType": "address",
          "name": "_to",
          "type": "address"
        },
        {
          "internalType": "address",
          "name": "tokenAddress",
          "type": "address"
        }
      ],
      "name": "claimForStrat",
      "outputs": [
        {
          "internalType": "uint256",
          "name": "",
          "type": "uint256"
        }
      ],
      "stateMutability": "nonpayable",
      "type": "function"
    },
    {
      "inputs": [
        {
          "internalType": "address",
          "name": "_to",
          "type": "address"
        },
        {
          "internalType": "address",
          "name": "tokenAddress",
          "type": "address"
        }
      ],
      "name": "claimable",
      "outputs": [
        {
          "internalType": "uint256",
          "name": "",
          "type": "uint256"
        }
      ],
      "stateMutability": "view",
      "type": "function"
    },
    {
      "inputs": [
        {
          "internalType": "address",
          "name": "_strategy",
          "type": "address"
        }
      ],
      "name": "isStrategy",
      "outputs": [
        {
          "internalType": "bool",
          "name": "",
          "type": "bool"
        }
      ],
      "stateMutability": "view",
      "type": "function"
    },
    {
      "inputs": [
        {
          "internalType": "uint256",
          "name": "",
          "type": "uint256"
        }
      ],
      "name": "live_strategies",
      "outputs": [
        {
          "internalType": "address",
          "name": "",
          "type": "address"
        }
      ],
      "stateMutability": "view",
      "type": "function"
    },
    {
      "inputs": [],
      "name": "owner",
      "outputs": [
        {
          "internalType": "address",
          "name": "",
          "type": "address"
        }
      ],
      "stateMutability": "view",
      "type": "function"
    },
    {
      "inputs": [],
      "name": "renounceOwnership",
      "outputs": [],
      "stateMutability": "nonpayable",
      "type": "function"
    },
    {
      "inputs": [
        {
          "internalType": "address",
          "name": "_strategy",
          "type": "address"
        }
      ],
      "name": "retireStrategy",
      "outputs": [],
      "stateMutability": "nonpayable",
      "type": "function"
    },
    {
      "inputs": [
        {
          "internalType": "address",
          "name": "newOwner",
          "type": "address"
        }
      ],
      "name": "transferOwnership",
      "outputs": [],
      "stateMutability": "nonpayable",
      "type": "function"
    },
    {
      "inputs": [
        {
          "internalType": "uint256",
          "name": "amount",
          "type": "uint256"
        },
        {
          "internalType": "address",
          "name": "_token",
          "type": "address"
        }
      ],
      "name": "withdrawERCToken",
      "outputs": [],
      "stateMutability": "nonpayable",
      "type": "function"
    }
  ],
  "bytecode": "0x608060405234801561001057600080fd5b5061001a33610023565b60018055610073565b600080546001600160a01b038381166001600160a01b0319831681178455604051919092169283917f8be0079c531659141344cd1fd0a4f28419497f9722a3daafe3b4186f6b6457e09190a35050565b61143c806100826000396000f3fe608060405234801561001057600080fd5b50600436106100b45760003560e01c80638da5cb5b116100715780638da5cb5b14610186578063b4ba9e11146101ab578063b94b7a97146101be578063d4570c1c146101d1578063d731060c1461020b578063f2fde38b1461021e576100b4565b8063223e5479146100fa5780632c71df621461010f5780632e8ebaae1461013557806344469f9814610158578063691083631461016b578063715018a61461017e575b60405162461bcd60e51b815260206004820152601660248201527524b73b30b634b21032ba3432b9103a3930b739b332b960511b60448201526064015b60405180910390fd5b61010d6101083660046110d6565b610231565b005b61012261011d3660046110f1565b6102cb565b6040519081526020015b60405180910390f35b6101486101433660046110d6565b6103df565b604051901515815260200161012c565b610148610166366004611170565b610449565b61010d6101793660046110d6565b610804565b61010d6109b9565b6000546001600160a01b03165b6040516001600160a01b03909116815260200161012c565b6101226101b93660046110f1565b6109cd565b61010d6101cc3660046111f1565b610a32565b6101226101df3660046110f1565b6001600160a01b0380821660009081526002602090815260408083209386168352929052205492915050565b610193610219366004611214565b610b83565b61010d61022c3660046110d6565b610bad565b610239610c23565b610242816103df565b6102c857600480546001810182556000919091527f8a35acfbc15ff81a39ae7d344fd709f28e8600b4aa8c65c6b64bfe7fe36bd19b0180546001600160a01b0319166001600160a01b0383169081179091556040519081527f3f008fd510eae7a9e7bee13513d7b83bef8003d488b5a3d0b0da4de71d6846f19060200160405180910390a15b50565b6000600260015414156103205760405162461bcd60e51b815260206004820152601f60248201527f5265656e7472616e637947756172643a207265656e7472616e742063616c6c0060448201526064016100f1565b6002600155326001600160a01b038416146103745760405162461bcd60e51b8152602060048201526014602482015273086c2d8d8cae440c8decae6dc4ee840dac2e8c6d60631b60448201526064016100f1565b61037d336103df565b6103c95760405162461bcd60e51b815260206004820152601960248201527f43616c6c6572206d75737420626520612073747261746567790000000000000060448201526064016100f1565b6103d4838333610c7d565b600180559392505050565b6000805b60045481101561044057826001600160a01b03166004828154811061040a5761040a61122d565b6000918252602090912001546001600160a01b0316141561042e5750600192915050565b8061043881611259565b9150506103e3565b50600092915050565b600084831461048f5760405162461bcd60e51b8152602060048201526012602482015271098cadccee8d0e640daeae6e840dac2e8c6d60731b60448201526064016100f1565b6000805b848110156106395760008888838181106104af576104af61122d565b90506020020160208101906104c491906110d6565b6001600160a01b0316141561050d5760405162461bcd60e51b815260206004820152600f60248201526e1059191c995cdcc81a5b9d985b1a59608a1b60448201526064016100f1565b60008686838181106105215761052161122d565b90506020020135116105655760405162461bcd60e51b815260206004820152600d60248201526c15985b1d59481a5b9d985b1a59609a1b60448201526064016100f1565b8585828181106105775761057761122d565b9050602002013560026000866001600160a01b03166001600160a01b0316815260200190815260200160002060008a8a858181106105b7576105b761122d565b90506020020160208101906105cc91906110d6565b6001600160a01b03166001600160a01b0316815260200190815260200160002060008282546105fb9190611274565b9091555086905085828181106106135761061361122d565b90506020020135826106259190611274565b9150610632600182611274565b9050610493565b506040516370a0823160e01b81523060048201526000906001600160a01b038516906370a0823190602401602060405180830381865afa158015610681573d6000803e3d6000fd5b505050506040513d601f19601f820116820180604052508101906106a5919061128c565b90506106bc6001600160a01b038516333085610d76565b6040516370a0823160e01b81523060048201526000906001600160a01b038616906370a0823190602401602060405180830381865afa158015610703573d6000803e3d6000fd5b505050506040513d601f19601f82011682018060405250810190610727919061128c565b90508261073483836112a5565b146107755760405162461bcd60e51b81526020600482015260116024820152704e6f7420656e6f75676820746f6b656e7360781b60448201526064016100f1565b6001600160a01b038516600090815260036020526040902054610799908490611274565b6001600160a01b0386166000908152600360205260409081902091909155517fa6c91e0714fa5cea1a48a7903a4cb4fdfc6a5409b04c2f5e5f01140140846f74906107ed908b908b908b908b908b906112bc565b60405180910390a150600198975050505050505050565b61080c610c23565b6001600160a01b0381166108625760405162461bcd60e51b815260206004820152601860248201527f496e76616c69642073747261746567792061646472657373000000000000000060448201526064016100f1565b60005b6004548110156108be57816001600160a01b03166004828154811061088c5761088c61122d565b6000918252602090912001546001600160a01b031614156108ac576108be565b806108b681611259565b915050610865565b6004548110156109b557600480546108d8906001906112a5565b815481106108e8576108e861122d565b600091825260209091200154600480546001600160a01b0390921691839081106109145761091461122d565b9060005260206000200160006101000a8154816001600160a01b0302191690836001600160a01b03160217905550600480548061095357610953611353565b6000828152602090819020600019908301810180546001600160a01b03191690559091019091556040516001600160a01b03841681527f43328b6eb7f0f6711a295cfc22368af8227bf60b67a6f6a5454f6168726d3e25910160405180910390a15b5050565b6109c1610c23565b6109cb6000610de7565b565b600060026001541415610a225760405162461bcd60e51b815260206004820152601f60248201527f5265656e7472616e637947756172643a207265656e7472616e742063616c6c0060448201526064016100f1565b60026001556103d4838381610c7d565b610a3a610c23565b6001600160a01b038116600081815260036020526040908190205490516370a0823160e01b8152306004820152909184916370a0823190602401602060405180830381865afa158015610a91573d6000803e3d6000fd5b505050506040513d601f19601f82011682018060405250810190610ab5919061128c565b610abf91906112a5565b1015610b0d5760405162461bcd60e51b815260206004820152601f60248201527f43616e6e6f7420776974686472617720616c6c6f636174656420746f6b656e0060448201526064016100f1565b60405163a9059cbb60e01b8152336004820152602481018390526001600160a01b0382169063a9059cbb906044016020604051808303816000875af1158015610b5a573d6000803e3d6000fd5b505050506040513d601f19601f82011682018060405250810190610b7e9190611369565b505050565b60048181548110610b9357600080fd5b6000918252602090912001546001600160a01b0316905081565b610bb5610c23565b6001600160a01b038116610c1a5760405162461bcd60e51b815260206004820152602660248201527f4f776e61626c653a206e6577206f776e657220697320746865207a65726f206160448201526564647265737360d01b60648201526084016100f1565b6102c881610de7565b6000546001600160a01b031633146109cb5760405162461bcd60e51b815260206004820181905260248201527f4f776e61626c653a2063616c6c6572206973206e6f7420746865206f776e657260448201526064016100f1565b6001600160a01b03808316600090815260026020908152604080832093871683529290529081205480610cb4576000915050610d6f565b6001600160a01b038085166000818152600260209081526040808320948a16835293905291822091909155610cea908483610e37565b6001600160a01b038416600090815260036020526040902054610d0e9082906112a5565b6001600160a01b0385811660008181526003602090815260409182902094909455805192891683529282018490528183015290517f7e6632ca16a0ac6cf28448500b1a17d96c8b8163ad4c4a9b44ef5386cc02779e9181900360600190a190505b9392505050565b6040516001600160a01b0380851660248301528316604482015260648101829052610de19085906323b872dd60e01b906084015b60408051601f198184030181529190526020810180516001600160e01b03166001600160e01b031990931692909217909152610e67565b50505050565b600080546001600160a01b038381166001600160a01b0319831681178455604051919092169283917f8be0079c531659141344cd1fd0a4f28419497f9722a3daafe3b4186f6b6457e09190a35050565b6040516001600160a01b038316602482015260448101829052610b7e90849063a9059cbb60e01b90606401610daa565b6000610ebc826040518060400160405280602081526020017f5361666545524332303a206c6f772d6c6576656c2063616c6c206661696c6564815250856001600160a01b0316610f399092919063ffffffff16565b805190915015610b7e5780806020019051810190610eda9190611369565b610b7e5760405162461bcd60e51b815260206004820152602a60248201527f5361666545524332303a204552433230206f7065726174696f6e20646964206e6044820152691bdd081cdd58d8d9595960b21b60648201526084016100f1565b6060610f488484600085610f50565b949350505050565b606082471015610fb15760405162461bcd60e51b815260206004820152602660248201527f416464726573733a20696e73756666696369656e742062616c616e636520666f6044820152651c8818d85b1b60d21b60648201526084016100f1565b6001600160a01b0385163b6110085760405162461bcd60e51b815260206004820152601d60248201527f416464726573733a2063616c6c20746f206e6f6e2d636f6e747261637400000060448201526064016100f1565b600080866001600160a01b0316858760405161102491906113b7565b60006040518083038185875af1925050503d8060008114611061576040519150601f19603f3d011682016040523d82523d6000602084013e611066565b606091505b5091509150611076828286611081565b979650505050505050565b60608315611090575081610d6f565b8251156110a05782518084602001fd5b8160405162461bcd60e51b81526004016100f191906113d3565b80356001600160a01b03811681146110d157600080fd5b919050565b6000602082840312156110e857600080fd5b610d6f826110ba565b6000806040838503121561110457600080fd5b61110d836110ba565b915061111b602084016110ba565b90509250929050565b60008083601f84011261113657600080fd5b50813567ffffffffffffffff81111561114e57600080fd5b6020830191508360208260051b850101111561116957600080fd5b9250929050565b60008060008060006060868803121561118857600080fd5b853567ffffffffffffffff808211156111a057600080fd5b6111ac89838a01611124565b909750955060208801359150808211156111c557600080fd5b506111d288828901611124565b90945092506111e59050604087016110ba565b90509295509295909350565b6000806040838503121561120457600080fd5b8235915061111b602084016110ba565b60006020828403121561122657600080fd5b5035919050565b634e487b7160e01b600052603260045260246000fd5b634e487b7160e01b600052601160045260246000fd5b600060001982141561126d5761126d611243565b5060010190565b6000821982111561128757611287611243565b500190565b60006020828403121561129e57600080fd5b5051919050565b6000828210156112b7576112b7611243565b500390565b6060808252810185905260008660808301825b888110156112fd576001600160a01b036112e8846110ba565b168252602092830192909101906001016112cf565b5083810360208501528581526001600160fb1b0386111561131d57600080fd5b8560051b915081876020830137600091016020019081526001600160a01b03939093166040929092019190915250949350505050565b634e487b7160e01b600052603160045260246000fd5b60006020828403121561137b57600080fd5b81518015158114610d6f57600080fd5b60005b838110156113a657818101518382015260200161138e565b83811115610de15750506000910152565b600082516113c981846020870161138b565b9190910192915050565b60208152600082518060208401526113f281604085016020870161138b565b601f01601f1916919091016040019291505056fea26469706673582212203c781b135c8f41f0cdf7a39a7cff978fcb289db8e5010a17187b2c0a72ba28dd64736f6c634300080c0033",
  "linkReferences": {},
  "deployedLinkReferences": {}
}