{
  "_format": "hh-sol-artifact-1",
  "contractName": "MockOldDT",
  "sourceName": "contracts/utils/mock/MockOldDT.sol",
  "abi": [
    {
      "inputs": [],
      "stateMutability": "nonpayable",
      "type": "constructor"
    },
    {
      "anonymous": false,
      "inputs": [
        {
          "indexed": true,
          "internalType": "address",
          "name": "owner",
          "type": "address"
        },
        {
          "indexed": true,
          "internalType": "address",
          "name": "spender",
          "type": "address"
        },
        {
          "indexed": false,
          "internalType": "uint256",
          "name": "value",
          "type": "uint256"
        }
      ],
      "name": "Approval",
      "type": "event"
    },
    {
      "anonymous": false,
      "inputs": [
        {
          "indexed": false,
          "internalType": "address",
          "name": "currentMinter",
          "type": "address"
        },
        {
          "indexed": false,
          "internalType": "address",
          "name": "newMinter",
          "type": "address"
        }
      ],
      "name": "MinterApproved",
      "type": "event"
    },
    {
      "anonymous": false,
      "inputs": [
        {
          "indexed": false,
          "internalType": "address",
          "name": "currentMinter",
          "type": "address"
        },
        {
          "indexed": false,
          "internalType": "address",
          "name": "newMinter",
          "type": "address"
        }
      ],
      "name": "MinterProposed",
      "type": "event"
    },
    {
      "anonymous": false,
      "inputs": [
        {
          "indexed": false,
          "internalType": "bytes32",
          "name": "orderTxId",
          "type": "bytes32"
        },
        {
          "indexed": true,
          "internalType": "address",
          "name": "consumer",
          "type": "address"
        },
        {
          "indexed": false,
          "internalType": "uint256",
          "name": "amount",
          "type": "uint256"
        },
        {
          "indexed": false,
          "internalType": "uint256",
          "name": "serviceId",
          "type": "uint256"
        },
        {
          "indexed": true,
          "internalType": "address",
          "name": "provider",
          "type": "address"
        },
        {
          "indexed": false,
          "internalType": "uint256",
          "name": "timestamp",
          "type": "uint256"
        }
      ],
      "name": "OrderFinished",
      "type": "event"
    },
    {
      "anonymous": false,
      "inputs": [
        {
          "indexed": true,
          "internalType": "address",
          "name": "consumer",
          "type": "address"
        },
        {
          "indexed": true,
          "internalType": "address",
          "name": "payer",
          "type": "address"
        },
        {
          "indexed": false,
          "internalType": "uint256",
          "name": "amount",
          "type": "uint256"
        },
        {
          "indexed": false,
          "internalType": "uint256",
          "name": "serviceId",
          "type": "uint256"
        },
        {
          "indexed": false,
          "internalType": "uint256",
          "name": "timestamp",
          "type": "uint256"
        },
        {
          "indexed": true,
          "internalType": "address",
          "name": "mrktFeeCollector",
          "type": "address"
        },
        {
          "indexed": false,
          "internalType": "uint256",
          "name": "marketFee",
          "type": "uint256"
        }
      ],
      "name": "OrderStarted",
      "type": "event"
    },
    {
      "anonymous": false,
      "inputs": [
        {
          "indexed": true,
          "internalType": "address",
          "name": "from",
          "type": "address"
        },
        {
          "indexed": true,
          "internalType": "address",
          "name": "to",
          "type": "address"
        },
        {
          "indexed": false,
          "internalType": "uint256",
          "name": "value",
          "type": "uint256"
        }
      ],
      "name": "Transfer",
      "type": "event"
    },
    {
      "inputs": [],
      "name": "BASE",
      "outputs": [
        {
          "internalType": "uint256",
          "name": "",
          "type": "uint256"
        }
      ],
      "stateMutability": "view",
      "type": "function"
    },
    {
      "inputs": [],
      "name": "BASE_COMMUNITY_FEE_PERCENTAGE",
      "outputs": [
        {
          "internalType": "uint256",
          "name": "",
          "type": "uint256"
        }
      ],
      "stateMutability": "view",
      "type": "function"
    },
    {
      "inputs": [],
      "name": "BASE_MARKET_FEE_PERCENTAGE",
      "outputs": [
        {
          "internalType": "uint256",
          "name": "",
          "type": "uint256"
        }
      ],
      "stateMutability": "view",
      "type": "function"
    },
    {
      "inputs": [
        {
          "internalType": "address",
          "name": "owner",
          "type": "address"
        },
        {
          "internalType": "address",
          "name": "spender",
          "type": "address"
        }
      ],
      "name": "allowance",
      "outputs": [
        {
          "internalType": "uint256",
          "name": "",
          "type": "uint256"
        }
      ],
      "stateMutability": "view",
      "type": "function"
    },
    {
      "inputs": [
        {
          "internalType": "address",
          "name": "spender",
          "type": "address"
        },
        {
          "internalType": "uint256",
          "name": "amount",
          "type": "uint256"
        }
      ],
      "name": "approve",
      "outputs": [
        {
          "internalType": "bool",
          "name": "",
          "type": "bool"
        }
      ],
      "stateMutability": "nonpayable",
      "type": "function"
    },
    {
      "inputs": [],
      "name": "approveMinter",
      "outputs": [],
      "stateMutability": "nonpayable",
      "type": "function"
    },
    {
      "inputs": [
        {
          "internalType": "address",
          "name": "account",
          "type": "address"
        }
      ],
      "name": "balanceOf",
      "outputs": [
        {
          "internalType": "uint256",
          "name": "",
          "type": "uint256"
        }
      ],
      "stateMutability": "view",
      "type": "function"
    },
    {
      "inputs": [],
      "name": "blob",
      "outputs": [
        {
          "internalType": "string",
          "name": "",
          "type": "string"
        }
      ],
      "stateMutability": "view",
      "type": "function"
    },
    {
      "inputs": [
        {
          "internalType": "uint256",
          "name": "amount",
          "type": "uint256"
        },
        {
          "internalType": "uint256",
          "name": "feePercentage",
          "type": "uint256"
        }
      ],
      "name": "calculateFee",
      "outputs": [
        {
          "internalType": "uint256",
          "name": "",
          "type": "uint256"
        }
      ],
      "stateMutability": "pure",
      "type": "function"
    },
    {
      "inputs": [],
      "name": "cap",
      "outputs": [
        {
          "internalType": "uint256",
          "name": "",
          "type": "uint256"
        }
      ],
      "stateMutability": "view",
      "type": "function"
    },
    {
      "inputs": [],
      "name": "decimals",
      "outputs": [
        {
          "internalType": "uint8",
          "name": "",
          "type": "uint8"
        }
      ],
      "stateMutability": "view",
      "type": "function"
    },
    {
      "inputs": [
        {
          "internalType": "address",
          "name": "spender",
          "type": "address"
        },
        {
          "internalType": "uint256",
          "name": "subtractedValue",
          "type": "uint256"
        }
      ],
      "name": "decreaseAllowance",
      "outputs": [
        {
          "internalType": "bool",
          "name": "",
          "type": "bool"
        }
      ],
      "stateMutability": "nonpayable",
      "type": "function"
    },
    {
      "inputs": [
        {
          "internalType": "bytes32",
          "name": "orderTxId",
          "type": "bytes32"
        },
        {
          "internalType": "address",
          "name": "consumer",
          "type": "address"
        },
        {
          "internalType": "uint256",
          "name": "amount",
          "type": "uint256"
        },
        {
          "internalType": "uint256",
          "name": "serviceId",
          "type": "uint256"
        }
      ],
      "name": "finishOrder",
      "outputs": [],
      "stateMutability": "nonpayable",
      "type": "function"
    },
    {
      "inputs": [
        {
          "internalType": "address",
          "name": "spender",
          "type": "address"
        },
        {
          "internalType": "uint256",
          "name": "addedValue",
          "type": "uint256"
        }
      ],
      "name": "increaseAllowance",
      "outputs": [
        {
          "internalType": "bool",
          "name": "",
          "type": "bool"
        }
      ],
      "stateMutability": "nonpayable",
      "type": "function"
    },
    {
      "inputs": [
        {
          "internalType": "string",
          "name": "name",
          "type": "string"
        },
        {
          "internalType": "string",
          "name": "symbol",
          "type": "string"
        },
        {
          "internalType": "address",
          "name": "minterAddress",
          "type": "address"
        },
        {
          "internalType": "uint256",
          "name": "cap_",
          "type": "uint256"
        },
        {
          "internalType": "string",
          "name": "blob_",
          "type": "string"
        },
        {
          "internalType": "address",
          "name": "feeCollector",
          "type": "address"
        }
      ],
      "name": "initialize",
      "outputs": [
        {
          "internalType": "bool",
          "name": "",
          "type": "bool"
        }
      ],
      "stateMutability": "nonpayable",
      "type": "function"
    },
    {
      "inputs": [],
      "name": "isInitialized",
      "outputs": [
        {
          "internalType": "bool",
          "name": "",
          "type": "bool"
        }
      ],
      "stateMutability": "view",
      "type": "function"
    },
    {
      "inputs": [
        {
          "internalType": "address",
          "name": "account",
          "type": "address"
        }
      ],
      "name": "isMinter",
      "outputs": [
        {
          "internalType": "bool",
          "name": "",
          "type": "bool"
        }
      ],
      "stateMutability": "view",
      "type": "function"
    },
    {
      "inputs": [
        {
          "internalType": "address",
          "name": "account",
          "type": "address"
        },
        {
          "internalType": "uint256",
          "name": "value",
          "type": "uint256"
        }
      ],
      "name": "mint",
      "outputs": [],
      "stateMutability": "nonpayable",
      "type": "function"
    },
    {
      "inputs": [],
      "name": "minter",
      "outputs": [
        {
          "internalType": "address",
          "name": "",
          "type": "address"
        }
      ],
      "stateMutability": "view",
      "type": "function"
    },
    {
      "inputs": [],
      "name": "name",
      "outputs": [
        {
          "internalType": "string",
          "name": "",
          "type": "string"
        }
      ],
      "stateMutability": "view",
      "type": "function"
    },
    {
      "inputs": [
        {
          "internalType": "address",
          "name": "newMinter",
          "type": "address"
        }
      ],
      "name": "proposeMinter",
      "outputs": [],
      "stateMutability": "nonpayable",
      "type": "function"
    },
    {
      "inputs": [
        {
          "internalType": "address",
          "name": "consumer",
          "type": "address"
        },
        {
          "internalType": "uint256",
          "name": "amount",
          "type": "uint256"
        },
        {
          "internalType": "uint256",
          "name": "serviceId",
          "type": "uint256"
        },
        {
          "internalType": "address",
          "name": "mrktFeeCollector",
          "type": "address"
        }
      ],
      "name": "startOrder",
      "outputs": [],
      "stateMutability": "nonpayable",
      "type": "function"
    },
    {
      "inputs": [],
      "name": "symbol",
      "outputs": [
        {
          "internalType": "string",
          "name": "",
          "type": "string"
        }
      ],
      "stateMutability": "view",
      "type": "function"
    },
    {
      "inputs": [],
      "name": "totalSupply",
      "outputs": [
        {
          "internalType": "uint256",
          "name": "",
          "type": "uint256"
        }
      ],
      "stateMutability": "view",
      "type": "function"
    },
    {
      "inputs": [
        {
          "internalType": "address",
          "name": "to",
          "type": "address"
        },
        {
          "internalType": "uint256",
          "name": "amount",
          "type": "uint256"
        }
      ],
      "name": "transfer",
      "outputs": [
        {
          "internalType": "bool",
          "name": "",
          "type": "bool"
        }
      ],
      "stateMutability": "nonpayable",
      "type": "function"
    },
    {
      "inputs": [
        {
          "internalType": "address",
          "name": "from",
          "type": "address"
        },
        {
          "internalType": "address",
          "name": "to",
          "type": "address"
        },
        {
          "internalType": "uint256",
          "name": "amount",
          "type": "uint256"
        }
      ],
      "name": "transferFrom",
      "outputs": [
        {
          "internalType": "bool",
          "name": "",
          "type": "bool"
        }
      ],
      "stateMutability": "nonpayable",
      "type": "function"
    }
  ],
  "bytecode": "0x60c060405260086080819052671353d0d2d58cd11560c21b60a09081526200002b916005919062000525565b5060408051808201909152600480825263158cd11560e21b6020909201918252620000599160069162000525565b5060408051808201909152600480825263313637b160e11b6020909201918252620000879160079162000525565b50683635c9adc5dea00000600855600980546001600160a81b0319169055348015620000b257600080fd5b50604080518082018252600481526315195cdd60e21b60208083019182528351808501909452600a845269151154d514d6535093d360b21b908401528151919291620001019160039162000525565b5080516200011790600490602084019062000525565b505050620002e8600580546200012d90620005cb565b80601f01602080910402602001604051908101604052809291908181526020018280546200015b90620005cb565b8015620001ac5780601f106200018057610100808354040283529160200191620001ac565b820191906000526020600020905b8154815290600101906020018083116200018e57829003601f168201915b505050505060068054620001c090620005cb565b80601f0160208091040260200160405190810160405280929190818152602001828054620001ee90620005cb565b80156200023f5780601f1062000213576101008083540402835291602001916200023f565b820191906000526020600020905b8154815290600101906020018083116200022157829003601f168201915b505050505033600854600780546200025790620005cb565b80601f01602080910402602001604051908101604052809291908181526020018280546200028590620005cb565b8015620002d65780601f10620002aa57610100808354040283529160200191620002d6565b820191906000526020600020905b815481529060010190602001808311620002b857829003601f168201915b505050505033620002ef60201b60201c565b5062000608565b60006001600160a01b038516620003555760405162461bcd60e51b8152602060048201526030602482015260008051602062001c1783398151915260448201526f722c20207a65726f206164647265737360801b60648201526084015b60405180910390fd5b600a546001600160a01b031615620003b75760405162461bcd60e51b815260206004820152602f602482015260008051602062001c1783398151915260448201526e722c207a65726f206164647265737360881b60648201526084016200034c565b6001600160a01b03821662000437576040805162461bcd60e51b81526020600482015260248101919091527f44617461746f6b656e54656d706c6174653a20496e76616c696420636f6d6d7560448201527f6e6974792066656520636f6c6c6563746f722c207a65726f206164647265737360648201526084016200034c565b83620004925760405162461bcd60e51b8152602060048201526024808201527f44617461746f6b656e54656d706c6174653a20496e76616c6964206361702076604482015263616c756560e01b60648201526084016200034c565b60088490558651620004ac9060059060208a019062000525565b508251620004c290600790602086019062000525565b508551620004d890600690602089019062000525565b5050600a80546001600160a01b039586166001600160a01b0319909116179055600980546001600160a81b0319169190941617600160a01b9081179384905590920460ff16949350505050565b8280546200053390620005cb565b90600052602060002090601f016020900481019282620005575760008555620005a2565b82601f106200057257805160ff1916838001178555620005a2565b82800160010185558215620005a2579182015b82811115620005a257825182559160200191906001019062000585565b50620005b0929150620005b4565b5090565b5b80821115620005b05760008155600101620005b5565b600181811c90821680620005e057607f821691505b602082108114156200060257634e487b7160e01b600052602260045260246000fd5b50919050565b6115ff80620006186000396000f3fe608060405234801561001057600080fd5b506004361061018e5760003560e01c806370a08231116100de578063aa271e1a11610097578063dd62ed3e11610071578063dd62ed3e14610345578063eb40024b14610358578063ec342ad014610360578063fde0e7a81461036f57600080fd5b8063aa271e1a14610310578063ab63d2b214610332578063b2263a5d1461021457600080fd5b806370a08231146102935780638ca0c059146102bc5780639070d2f8146102cf57806395d89b41146102e2578063a457c2d7146102ea578063a9059cbb146102fd57600080fd5b8063313ce5671161014b578063392e53cd11610125578063392e53cd14610246578063395093511461025857806340c10f191461026b57806350d2fcc41461028057600080fd5b8063313ce5671461021c57806334e731221461022b578063355274ea1461023e57600080fd5b806306fdde031461019357806307546172146101b1578063095ea7b3146101cc57806318160ddd146101ef57806323b872dd14610201578063294541c714610214575b600080fd5b61019b610377565b6040516101a891906111ef565b60405180910390f35b600a546040516001600160a01b0390911681526020016101a8565b6101df6101da366004611260565b610409565b60405190151581526020016101a8565b6002545b6040519081526020016101a8565b6101df61020f36600461128a565b610423565b6101f3610447565b604051601281526020016101a8565b6101f36102393660046112c6565b61045e565b6008546101f3565b600954600160a01b900460ff166101df565b6101df610266366004611260565b61049d565b61027e610279366004611260565b6104bf565b005b61027e61028e3660046112e8565b610564565b6101f36102a13660046112e8565b6001600160a01b031660009081526020819052604090205490565b61027e6102ca366004611303565b6105e9565b6101df6102dd366004611387565b6106b1565b61019b6107e7565b6101df6102f8366004611260565b6107f6565b6101df61030b366004611260565b610871565b6101df61031e3660046112e8565b600a546001600160a01b0390811691161490565b61027e61034036600461144e565b61087f565b6101f3610353366004611494565b610974565b61027e61099f565b6101f3670de0b6b3a764000081565b61019b610a86565b606060038054610386906114c7565b80601f01602080910402602001604051908101604052809291908181526020018280546103b2906114c7565b80156103ff5780601f106103d4576101008083540402835291602001916103ff565b820191906000526020600020905b8154815290600101906020018083116103e257829003601f168201915b5050505050905090565b600033610417818585610a95565b60019150505b92915050565b600033610431858285610bb9565b61043c858585610c33565b506001949350505050565b61045b6103e8670de0b6b3a7640000611518565b81565b60008261046d5750600061041d565b8161047a5750600061041d565b610496670de0b6b3a76400006104908585610e01565b90610e0d565b9392505050565b6000336104178185856104b08383610974565b6104ba919061153a565b610a95565b600a546001600160a01b031633146104f25760405162461bcd60e51b81526004016104e990611552565b60405180910390fd5b6008546105088261050260025490565b90610e19565b11156105565760405162461bcd60e51b815260206004820152601f60248201527f44617461746f6b656e54656d706c6174653a206361702065786365656465640060448201526064016104e9565b6105608282610e25565b5050565b600a546001600160a01b0316331461058e5760405162461bcd60e51b81526004016104e990611552565b600b80546001600160a01b0319166001600160a01b0383169081179091556040805133815260208101929092527fa24c529cc8b2d85b7dfb2ed0b4d7e9a816546212138b5d223bee13481e21be6b910160405180910390a150565b8115610657576105f98383610871565b6106575760405162461bcd60e51b815260206004820152602960248201527f44617461746f6b656e54656d706c6174653a206661696c656420746f2066696e60448201526834b9b41037b93232b960b91b60648201526084016104e9565b604080518581526020810184905290810182905242606082015233906001600160a01b038516907f46872661d5d7765097d3a97ca99b7cbfa68b54b6d51904168974901ee607a26d9060800160405180910390a350505050565b600954600090600160a01b900460ff161561072c5760405162461bcd60e51b815260206004820152603560248201527f44617461746f6b656e54656d706c6174653a20746f6b656e20696e7374616e636044820152741948185b1c9958591e481a5b9a5d1a585b1a5e9959605a1b60648201526084016104e9565b6107d98a8a8080601f01602080910402602001604051908101604052809392919081815260200183838082843760009201919091525050604080516020601f8e018190048102820181019092528c815292508c91508b908190840183828082843760009201919091525050604080516020601f8b018190048102820181019092528981528c93508b9250908a908a90819084018382808284376000920191909152508a9250610f04915050565b9a9950505050505050505050565b606060048054610386906114c7565b600033816108048286610974565b9050838110156108645760405162461bcd60e51b815260206004820152602560248201527f45524332303a2064656372656173656420616c6c6f77616e63652062656c6f77604482015264207a65726f60d81b60648201526084016104e9565b61043c8286868403610a95565b600033610417818585610c33565b60008061089a856102396103e8670de0b6b3a7640000611518565b6009549091506108b3906001600160a01b031682610871565b506001600160a01b038316156108e9576108db856102396103e8670de0b6b3a7640000611518565b91506108e78383610871565b505b60006108f58284610e19565b600a54909150610912906001600160a01b031661030b888461114a565b50604080518781526020810187905242818301526060810185905290516001600160a01b03868116923392918b16917fe1c4fa794edfa8f619b8257a077398950357b9c6398528f94480307352f9afcc9181900360800190a450505050505050565b6001600160a01b03918216600090815260016020908152604080832093909416825291909152205490565b600b546001600160a01b03163314610a145760405162461bcd60e51b815260206004820152603260248201527f44617461746f6b656e54656d706c6174653a20696e76616c69642070726f706f604482015271736564206d696e746572206164647265737360701b60648201526084016104e9565b600a54600b54604080516001600160a01b0393841681529290911660208301527f96ab0400119a548d3cc4c74e857d0d9c427fe9df20d3d0d99af10cc292e6c886910160405180910390a1600b8054600a80546001600160a01b03199081166001600160a01b03841617909155169055565b606060078054610386906114c7565b6001600160a01b038316610af75760405162461bcd60e51b8152602060048201526024808201527f45524332303a20617070726f76652066726f6d20746865207a65726f206164646044820152637265737360e01b60648201526084016104e9565b6001600160a01b038216610b585760405162461bcd60e51b815260206004820152602260248201527f45524332303a20617070726f766520746f20746865207a65726f206164647265604482015261737360f01b60648201526084016104e9565b6001600160a01b0383811660008181526001602090815260408083209487168084529482529182902085905590518481527f8c5be1e5ebec7d5bd14f71427d1e84f3dd0314c0f7b2291e5b200ac8c7c3b925910160405180910390a3505050565b6000610bc58484610974565b90506000198114610c2d5781811015610c205760405162461bcd60e51b815260206004820152601d60248201527f45524332303a20696e73756666696369656e7420616c6c6f77616e636500000060448201526064016104e9565b610c2d8484848403610a95565b50505050565b6001600160a01b038316610c975760405162461bcd60e51b815260206004820152602560248201527f45524332303a207472616e736665722066726f6d20746865207a65726f206164604482015264647265737360d81b60648201526084016104e9565b6001600160a01b038216610cf95760405162461bcd60e51b815260206004820152602360248201527f45524332303a207472616e7366657220746f20746865207a65726f206164647260448201526265737360e81b60648201526084016104e9565b6001600160a01b03831660009081526020819052604090205481811015610d715760405162461bcd60e51b815260206004820152602660248201527f45524332303a207472616e7366657220616d6f756e7420657863656564732062604482015265616c616e636560d01b60648201526084016104e9565b6001600160a01b03808516600090815260208190526040808220858503905591851681529081208054849290610da890849061153a565b92505081905550826001600160a01b0316846001600160a01b03167fddf252ad1be2c89b69c2b068fc378daa952ba7f163c4a11628f55a4df523b3ef84604051610df491815260200190565b60405180910390a3610c2d565b60006104968284611593565b60006104968284611518565b6000610496828461153a565b6001600160a01b038216610e7b5760405162461bcd60e51b815260206004820152601f60248201527f45524332303a206d696e7420746f20746865207a65726f20616464726573730060448201526064016104e9565b8060026000828254610e8d919061153a565b90915550506001600160a01b03821660009081526020819052604081208054839290610eba90849061153a565b90915550506040518181526001600160a01b038316906000907fddf252ad1be2c89b69c2b068fc378daa952ba7f163c4a11628f55a4df523b3ef9060200160405180910390a35050565b60006001600160a01b038516610f755760405162461bcd60e51b815260206004820152603060248201527f44617461746f6b656e54656d706c6174653a20496e76616c6964206d696e746560448201526f722c20207a65726f206164647265737360801b60648201526084016104e9565b600a546001600160a01b031615610fe65760405162461bcd60e51b815260206004820152602f60248201527f44617461746f6b656e54656d706c6174653a20496e76616c6964206d696e746560448201526e722c207a65726f206164647265737360881b60648201526084016104e9565b6001600160a01b038216611064576040805162461bcd60e51b81526020600482015260248101919091527f44617461746f6b656e54656d706c6174653a20496e76616c696420636f6d6d7560448201527f6e6974792066656520636f6c6c6563746f722c207a65726f206164647265737360648201526084016104e9565b836110bd5760405162461bcd60e51b8152602060048201526024808201527f44617461746f6b656e54656d706c6174653a20496e76616c6964206361702076604482015263616c756560e01b60648201526084016104e9565b600884905586516110d59060059060208a0190611156565b5082516110e9906007906020860190611156565b5085516110fd906006906020890190611156565b5050600a80546001600160a01b039586166001600160a01b0319909116179055600980546001600160a81b0319169190941617600160a01b9081179384905590920460ff16949350505050565b600061049682846115b2565b828054611162906114c7565b90600052602060002090601f01602090048101928261118457600085556111ca565b82601f1061119d57805160ff19168380011785556111ca565b828001600101855582156111ca579182015b828111156111ca5782518255916020019190600101906111af565b506111d69291506111da565b5090565b5b808211156111d657600081556001016111db565b600060208083528351808285015260005b8181101561121c57858101830151858201604001528201611200565b8181111561122e576000604083870101525b50601f01601f1916929092016040019392505050565b80356001600160a01b038116811461125b57600080fd5b919050565b6000806040838503121561127357600080fd5b61127c83611244565b946020939093013593505050565b60008060006060848603121561129f57600080fd5b6112a884611244565b92506112b660208501611244565b9150604084013590509250925092565b600080604083850312156112d957600080fd5b50508035926020909101359150565b6000602082840312156112fa57600080fd5b61049682611244565b6000806000806080858703121561131957600080fd5b8435935061132960208601611244565b93969395505050506040820135916060013590565b60008083601f84011261135057600080fd5b50813567ffffffffffffffff81111561136857600080fd5b60208301915083602082850101111561138057600080fd5b9250929050565b600080600080600080600080600060c08a8c0312156113a557600080fd5b893567ffffffffffffffff808211156113bd57600080fd5b6113c98d838e0161133e565b909b50995060208c01359150808211156113e257600080fd5b6113ee8d838e0161133e565b909950975087915061140260408d01611244565b965060608c0135955060808c013591508082111561141f57600080fd5b5061142c8c828d0161133e565b909450925061143f905060a08b01611244565b90509295985092959850929598565b6000806000806080858703121561146457600080fd5b61146d85611244565b9350602085013592506040850135915061148960608601611244565b905092959194509250565b600080604083850312156114a757600080fd5b6114b083611244565b91506114be60208401611244565b90509250929050565b600181811c908216806114db57607f821691505b602082108114156114fc57634e487b7160e01b600052602260045260246000fd5b50919050565b634e487b7160e01b600052601160045260246000fd5b60008261153557634e487b7160e01b600052601260045260246000fd5b500490565b6000821982111561154d5761154d611502565b500190565b60208082526021908201527f44617461746f6b656e54656d706c6174653a20696e76616c6964206d696e74656040820152603960f91b606082015260800190565b60008160001904831182151516156115ad576115ad611502565b500290565b6000828210156115c4576115c4611502565b50039056fea26469706673582212203a85e44c52baa1c7f48163f3f905ba1f0fcd8f87619aeba5f630fcc8f349215f64736f6c634300080c003344617461746f6b656e54656d706c6174653a20496e76616c6964206d696e7465",
  "linkReferences": {},
  "deployedLinkReferences": {}
}